{
  "contractName": "hectorTokenSale",
  "abi": [
    {
      "inputs": [
        {
          "internalType": "uint256",
          "name": "_price",
          "type": "uint256"
        },
        {
          "internalType": "address",
          "name": "_addressContract",
          "type": "address"
        }
      ],
      "stateMutability": "nonpayable",
      "type": "constructor"
    },
    {
      "anonymous": false,
      "inputs": [
        {
          "indexed": true,
          "internalType": "address",
          "name": "buyer",
          "type": "address"
        },
        {
          "indexed": false,
          "internalType": "uint256",
          "name": "amount",
          "type": "uint256"
        }
      ],
      "name": "Sold",
      "type": "event"
    },
    {
      "inputs": [],
      "name": "tokensSold",
      "outputs": [
        {
          "internalType": "uint256",
          "name": "",
          "type": "uint256"
        }
      ],
      "stateMutability": "view",
      "type": "function",
      "constant": true
    },
    {
      "inputs": [],
      "name": "priceinWeis",
      "outputs": [
        {
          "internalType": "uint256",
          "name": "",
          "type": "uint256"
        }
      ],
      "stateMutability": "view",
      "type": "function",
      "constant": true
    },
    {
      "inputs": [
        {
          "internalType": "uint256",
          "name": "_newprice",
          "type": "uint256"
        }
      ],
      "name": "setPrice",
      "outputs": [],
      "stateMutability": "nonpayable",
      "type": "function"
    },
    {
      "inputs": [],
      "name": "etherBalance",
      "outputs": [
        {
          "internalType": "uint256",
          "name": "",
          "type": "uint256"
        }
      ],
      "stateMutability": "view",
      "type": "function",
      "constant": true
    },
    {
      "inputs": [],
      "name": "tokenBalance",
      "outputs": [
        {
          "internalType": "uint256",
          "name": "",
          "type": "uint256"
        }
      ],
      "stateMutability": "view",
      "type": "function",
      "constant": true
    },
    {
      "inputs": [
        {
          "internalType": "uint256",
          "name": "tokens",
          "type": "uint256"
        }
      ],
      "name": "buy",
      "outputs": [],
      "stateMutability": "payable",
      "type": "function",
      "payable": true
    }
  ],
  "bytecode": "0x60806040523480156200001157600080fd5b5060405162001096380380620010968339818101604052810190620000379190620000f5565b336000806101000a81548173ffffffffffffffffffffffffffffffffffffffff021916908373ffffffffffffffffffffffffffffffffffffffff1602179055508160018190555080600260006101000a81548173ffffffffffffffffffffffffffffffffffffffff021916908373ffffffffffffffffffffffffffffffffffffffff1602179055505050620001b3565b600081519050620000d8816200017f565b92915050565b600081519050620000ef8162000199565b92915050565b600080604083850312156200010f576200010e6200017a565b5b60006200011f85828601620000de565b92505060206200013285828601620000c7565b9150509250929050565b6000620001498262000150565b9050919050565b600073ffffffffffffffffffffffffffffffffffffffff82169050919050565b6000819050919050565b600080fd5b6200018a816200013c565b81146200019657600080fd5b50565b620001a48162000170565b8114620001b057600080fd5b50565b610ed380620001c36000396000f3fe6080604052600436106100555760003560e01c806305bf2af71461005a578063518ab2a81461008557806391b7f5ed146100b05780639e1a4d19146100d9578063ad66e52a14610104578063d96a094a1461012f575b600080fd5b34801561006657600080fd5b5061006f61014b565b60405161007c91906109d0565b60405180910390f35b34801561009157600080fd5b5061009a610155565b6040516100a791906109d0565b60405180910390f35b3480156100bc57600080fd5b506100d760048036038101906100d291906107db565b61015b565b005b3480156100e557600080fd5b506100ee6101f3565b6040516100fb91906109d0565b60405180910390f35b34801561011057600080fd5b50610119610334565b60405161012691906109d0565b60405180910390f35b610149600480360381019061014491906107db565b6103cb565b005b6000600154905090565b60035481565b60008054906101000a900473ffffffffffffffffffffffffffffffffffffffff1673ffffffffffffffffffffffffffffffffffffffff163373ffffffffffffffffffffffffffffffffffffffff16146101e9576040517f08c379a00000000000000000000000000000000000000000000000000000000081526004016101e090610990565b60405180910390fd5b8060018190555050565b60008060009054906101000a900473ffffffffffffffffffffffffffffffffffffffff1673ffffffffffffffffffffffffffffffffffffffff163373ffffffffffffffffffffffffffffffffffffffff1614610284576040517f08c379a000000000000000000000000000000000000000000000000000000000815260040161027b90610990565b60405180910390fd5b600260009054906101000a900473ffffffffffffffffffffffffffffffffffffffff1673ffffffffffffffffffffffffffffffffffffffff166370a08231306040518263ffffffff1660e01b81526004016102df919061090c565b60206040518083038186803b1580156102f757600080fd5b505afa15801561030b573d6000803e3d6000fd5b505050506040513d601f19601f8201168201806040525081019061032f9190610808565b905090565b60008060009054906101000a900473ffffffffffffffffffffffffffffffffffffffff1673ffffffffffffffffffffffffffffffffffffffff163373ffffffffffffffffffffffffffffffffffffffff16146103c5576040517f08c379a00000000000000000000000000000000000000000000000000000000081526004016103bc90610990565b60405180910390fd5b47905090565b6103d760015482610717565b3414610418576040517f08c379a000000000000000000000000000000000000000000000000000000000815260040161040f90610970565b60405180910390fd5b60006104cf82600260009054906101000a900473ffffffffffffffffffffffffffffffffffffffff1673ffffffffffffffffffffffffffffffffffffffff1663313ce5676040518163ffffffff1660e01b815260040160206040518083038186803b15801561048657600080fd5b505afa15801561049a573d6000803e3d6000fd5b505050506040513d601f19601f820116820180604052508101906104be9190610835565b600a6104ca9190610ad6565b610717565b905080600260009054906101000a900473ffffffffffffffffffffffffffffffffffffffff1673ffffffffffffffffffffffffffffffffffffffff166370a08231306040518263ffffffff1660e01b815260040161052d919061090c565b60206040518083038186803b15801561054557600080fd5b505afa158015610559573d6000803e3d6000fd5b505050506040513d601f19601f8201168201806040525081019061057d9190610808565b10156105be576040517f08c379a00000000000000000000000000000000000000000000000000000000081526004016105b5906109b0565b60405180910390fd5b600260009054906101000a900473ffffffffffffffffffffffffffffffffffffffff1673ffffffffffffffffffffffffffffffffffffffff1663a9059cbb33836040518363ffffffff1660e01b815260040161061b929190610927565b602060405180830381600087803b15801561063557600080fd5b505af1158015610649573d6000803e3d6000fd5b505050506040513d601f19601f8201168201806040525081019061066d91906107ae565b6106ac576040517f08c379a00000000000000000000000000000000000000000000000000000000081526004016106a390610950565b60405180910390fd5b81600360008282546106be91906109fc565b925050819055503373ffffffffffffffffffffffffffffffffffffffff167fae92ab4b6f8f401ead768d3273e6bb937a13e39827d19c6376e8fd4512a05d9a8360405161070b91906109d0565b60405180910390a25050565b60008083141561072a5760009050610754565b81836107369190610bf4565b90508183826107459190610a52565b1461075357610752610ca3565b5b5b92915050565b60008151905061076981610e58565b92915050565b60008135905061077e81610e6f565b92915050565b60008151905061079381610e6f565b92915050565b6000815190506107a881610e86565b92915050565b6000602082840312156107c4576107c3610d30565b5b60006107d28482850161075a565b91505092915050565b6000602082840312156107f1576107f0610d30565b5b60006107ff8482850161076f565b91505092915050565b60006020828403121561081e5761081d610d30565b5b600061082c84828501610784565b91505092915050565b60006020828403121561084b5761084a610d30565b5b600061085984828501610799565b91505092915050565b61086b81610c4e565b82525050565b600061087e6017836109eb565b915061088982610d42565b602082019050919050565b60006108a16042836109eb565b91506108ac82610d6b565b606082019050919050565b60006108c46020836109eb565b91506108cf82610de0565b602082019050919050565b60006108e76024836109eb565b91506108f282610e09565b604082019050919050565b61090681610c8c565b82525050565b60006020820190506109216000830184610862565b92915050565b600060408201905061093c6000830185610862565b61094960208301846108fd565b9392505050565b6000602082019050818103600083015261096981610871565b9050919050565b6000602082019050818103600083015261098981610894565b9050919050565b600060208201905081810360008301526109a9816108b7565b9050919050565b600060208201905081810360008301526109c9816108da565b9050919050565b60006020820190506109e560008301846108fd565b92915050565b600082825260208201905092915050565b6000610a0782610c8c565b9150610a1283610c8c565b9250827fffffffffffffffffffffffffffffffffffffffffffffffffffffffffffffffff03821115610a4757610a46610cd2565b5b828201905092915050565b6000610a5d82610c8c565b9150610a6883610c8c565b925082610a7857610a77610d01565b5b828204905092915050565b6000808291508390505b6001851115610acd57808604811115610aa957610aa8610cd2565b5b6001851615610ab85780820291505b8081029050610ac685610d35565b9450610a8d565b94509492505050565b6000610ae182610c8c565b9150610aec83610c96565b9250610b197fffffffffffffffffffffffffffffffffffffffffffffffffffffffffffffffff8484610b21565b905092915050565b600082610b315760019050610bed565b81610b3f5760009050610bed565b8160018114610b555760028114610b5f57610b8e565b6001915050610bed565b60ff841115610b7157610b70610cd2565b5b8360020a915084821115610b8857610b87610cd2565b5b50610bed565b5060208310610133831016604e8410600b8410161715610bc35782820a905083811115610bbe57610bbd610cd2565b5b610bed565b610bd08484846001610a83565b92509050818404811115610be757610be6610cd2565b5b81810290505b9392505050565b6000610bff82610c8c565b9150610c0a83610c8c565b9250817fffffffffffffffffffffffffffffffffffffffffffffffffffffffffffffffff0483118215151615610c4357610c42610cd2565b5b828202905092915050565b6000610c5982610c6c565b9050919050565b60008115159050919050565b600073ffffffffffffffffffffffffffffffffffffffff82169050919050565b6000819050919050565b600060ff82169050919050565b7f4e487b7100000000000000000000000000000000000000000000000000000000600052600160045260246000fd5b7f4e487b7100000000000000000000000000000000000000000000000000000000600052601160045260246000fd5b7f4e487b7100000000000000000000000000000000000000000000000000000000600052601260045260246000fd5b600080fd5b60008160011c9050919050565b7f66616c6c6f206c61207472616e73666572656e63696120000000000000000000600082015250565b7f6c612063616e746964616420712070616761206e6f20657320696775616c206160008201527f6c2070726563696f20706f72206c612063616e746964616420646520746f6b6560208201527f6e73000000000000000000000000000000000000000000000000000000000000604082015250565b7f536f6c6f207075656465206c6c616d617220656c2070726f706965746172696f600082015250565b7f656c20636f6e747261746f2064652076656e7461206e6f207469656e6520746f60008201527f6b656e7300000000000000000000000000000000000000000000000000000000602082015250565b610e6181610c60565b8114610e6c57600080fd5b50565b610e7881610c8c565b8114610e8357600080fd5b50565b610e8f81610c96565b8114610e9a57600080fd5b5056fea264697066735822122041ec17e305d7fc5ccfc998fd253657783129cda886e19fe45f53ae6d92ddbe7864736f6c63430008060033",
  "immutableReferences": {},
  "source": "// SPDX-License-Identifier: MIT\r\npragma solidity ^0.8.6;\r\nimport \"./hectorToken.sol\";\r\n\r\n\r\ncontract hectorTokenSale  {\r\n    address owner;\r\n    uint256 price;\r\n    hectorToken TokenContract; // Variable de la interface.\r\n    uint256 public tokensSold; // Acumulativo de tokens vendidos.\r\n    \r\n    event Sold(address indexed buyer, uint256 amount);\r\n    \r\n    modifier onlyOwner() {\r\n         require(msg.sender == owner, \"Solo puede llamar el propietario\");\r\n        _;\r\n    }\r\n    \r\n    constructor(uint256 _price, address _addressContract)  {\r\n        \r\n        owner = msg.sender;\r\n        price = _price;\r\n        \r\n        // psamos el contrato del token a nuestra variable interface\r\n        TokenContract = hectorToken(_addressContract);\r\n    }\r\n    \r\n    \r\n  //No importamos toda la libreria SafeMath porque solamente necesitamos la funcin multiplicacin.\r\n  function mul(uint256 a, uint256 b) internal pure returns (uint256 c) {\r\n    if (a == 0) {\r\n      return 0;\r\n    }\r\n    c = a * b;\r\n    assert(c / a == b);\r\n    return c;\r\n  }\r\n  \r\n    function priceinWeis() public view  returns (uint256) {\r\n    return price;\r\n  }\r\n  \r\n \r\n    function setPrice(uint256 _newprice) public onlyOwner() {\r\n    price = _newprice;\r\n  }\r\n  \r\n  \r\n   function etherBalance() public view onlyOwner() returns (uint256)  {\r\n    return address(this).balance;\r\n  }\r\n  \r\n   function tokenBalance() public view onlyOwner() returns (uint256)  {\r\n    return TokenContract.balanceOf(address(this));\r\n  }\r\n  \r\n\r\n   \r\n  \r\n    \r\n  function buy(uint256 tokens) public payable {\r\n        \r\n        // que la cantidad que nos paga sea igual al precio x la cantidad de tokens que desea\r\n        require(msg.value == mul(price, tokens), \"la cantidad q paga no es igual al precio por la cantidad de tokens\" ); \r\n        \r\n        // al llamar la funcion original de transferencia tenemos que indicar la cantidad con los ceros de los decimales.\r\n        uint256 amountwithzeros = mul(tokens, uint256(10) ** TokenContract.decimals());\r\n        \r\n        // comprobamos que el contrato de venta tenga los tokens que se desean comprar.\r\n        require(TokenContract.balanceOf(address(this)) >= amountwithzeros, \"el contrato de venta no tiene tokens\"); //address(this) direccion de nuestro contrato\r\n        \r\n        // realizamos la transferencia con un require por mayor seguridad.\r\n        require(TokenContract.transfer(msg.sender, amountwithzeros), \"fallo la transferencia \"); // introducimos la cantidad escalada.\r\n        \r\n         // sumamos la venta.\r\n        tokensSold += tokens; // fjese, que usamos la cantidad sin la suma de los ceros de los decimales.\r\n        \r\n        emit Sold(msg.sender, tokens);\r\n        \r\n    }\r\n\r\n}",
  "sourcePath": "D:\\nodeproyectos\\myico\\contracts\\hectorTokenSale.sol",
  "compiler": {
    "name": "solc",
    "version": "0.8.6+commit.11564f7e.Emscripten.clang"
  },
  "schemaVersion": "3.4.4",
  "updatedAt": "2022-02-02T20:05:05.532Z",
  "networkType": "ethereum",
  "devdoc": {
    "kind": "dev",
    "methods": {},
    "version": 1
  },
  "userdoc": {
    "kind": "user",
    "methods": {},
    "version": 1
  }
}