{
  "contractName": "hectorTokenSale",
  "abi": [
    {
      "inputs": [
        {
          "internalType": "uint256",
          "name": "_price",
          "type": "uint256"
        },
        {
          "internalType": "address",
          "name": "_addressContract",
          "type": "address"
        }
      ],
      "stateMutability": "nonpayable",
      "type": "constructor"
    },
    {
      "anonymous": false,
      "inputs": [
        {
          "indexed": true,
          "internalType": "address",
          "name": "buyer",
          "type": "address"
        },
        {
          "indexed": false,
          "internalType": "uint256",
          "name": "amount",
          "type": "uint256"
        }
      ],
      "name": "Sold",
      "type": "event"
    },
    {
      "inputs": [],
      "name": "tokensSold",
      "outputs": [
        {
          "internalType": "uint256",
          "name": "",
          "type": "uint256"
        }
      ],
      "stateMutability": "view",
      "type": "function"
    },
    {
      "inputs": [
        {
          "internalType": "uint256",
          "name": "",
          "type": "uint256"
        }
      ],
      "name": "transaction",
      "outputs": [
        {
          "internalType": "address",
          "name": "buyer",
          "type": "address"
        },
        {
          "internalType": "uint256",
          "name": "amount",
          "type": "uint256"
        }
      ],
      "stateMutability": "view",
      "type": "function"
    },
    {
      "inputs": [],
      "name": "transactionCount",
      "outputs": [
        {
          "internalType": "uint256",
          "name": "",
          "type": "uint256"
        }
      ],
      "stateMutability": "view",
      "type": "function"
    },
    {
      "inputs": [],
      "name": "priceinWeis",
      "outputs": [
        {
          "internalType": "uint256",
          "name": "",
          "type": "uint256"
        }
      ],
      "stateMutability": "view",
      "type": "function"
    },
    {
      "inputs": [
        {
          "internalType": "uint256",
          "name": "_newprice",
          "type": "uint256"
        }
      ],
      "name": "setPrice",
      "outputs": [],
      "stateMutability": "nonpayable",
      "type": "function"
    },
    {
      "inputs": [],
      "name": "etherBalance",
      "outputs": [
        {
          "internalType": "uint256",
          "name": "",
          "type": "uint256"
        }
      ],
      "stateMutability": "view",
      "type": "function"
    },
    {
      "inputs": [],
      "name": "tokenBalance",
      "outputs": [
        {
          "internalType": "uint256",
          "name": "",
          "type": "uint256"
        }
      ],
      "stateMutability": "view",
      "type": "function"
    },
    {
      "inputs": [
        {
          "internalType": "uint256",
          "name": "tokens",
          "type": "uint256"
        }
      ],
      "name": "buy",
      "outputs": [],
      "stateMutability": "payable",
      "type": "function"
    },
    {
      "inputs": [],
      "name": "endSale",
      "outputs": [],
      "stateMutability": "nonpayable",
      "type": "function"
    }
  ],
  "bytecode": "0x6080604052735c2143affd2963291cda790c591def00d4d5843b600460006101000a81548173ffffffffffffffffffffffffffffffffffffffff021916908373ffffffffffffffffffffffffffffffffffffffff1602179055503480156200006657600080fd5b50604051620015023803806200150283398181016040528101906200008c9190620001c1565b336000806101000a81548173ffffffffffffffffffffffffffffffffffffffff021916908373ffffffffffffffffffffffffffffffffffffffff1602179055508160018190555080600260006101000a81548173ffffffffffffffffffffffffffffffffffffffff021916908373ffffffffffffffffffffffffffffffffffffffff160217905550505062000208565b600080fd5b6000819050919050565b620001368162000121565b81146200014257600080fd5b50565b60008151905062000156816200012b565b92915050565b600073ffffffffffffffffffffffffffffffffffffffff82169050919050565b600062000189826200015c565b9050919050565b6200019b816200017c565b8114620001a757600080fd5b50565b600081519050620001bb8162000190565b92915050565b60008060408385031215620001db57620001da6200011c565b5b6000620001eb8582860162000145565b9250506020620001fe85828601620001aa565b9150509250929050565b6112ea80620002186000396000f3fe6080604052600436106100865760003560e01c806391b7f5ed1161005957806391b7f5ed146101365780639e1a4d191461015f578063ad66e52a1461018a578063b77bf600146101b5578063d96a094a146101e057610086565b806305bf2af71461008b578063380d831b146100b657806346bd0841146100cd578063518ab2a81461010b575b600080fd5b34801561009757600080fd5b506100a06101fc565b6040516100ad9190610b41565b60405180910390f35b3480156100c257600080fd5b506100cb610206565b005b3480156100d957600080fd5b506100f460048036038101906100ef9190610b8d565b610400565b604051610102929190610bfb565b60405180910390f35b34801561011757600080fd5b50610120610444565b60405161012d9190610b41565b60405180910390f35b34801561014257600080fd5b5061015d60048036038101906101589190610b8d565b61044a565b005b34801561016b57600080fd5b506101746104e2565b6040516101819190610b41565b60405180910390f35b34801561019657600080fd5b5061019f610614565b6040516101ac9190610b41565b60405180910390f35b3480156101c157600080fd5b506101ca6106ab565b6040516101d79190610b41565b60405180910390f35b6101fa60048036038101906101f59190610b8d565b6106b1565b005b6000600154905090565b60008054906101000a900473ffffffffffffffffffffffffffffffffffffffff1673ffffffffffffffffffffffffffffffffffffffff163373ffffffffffffffffffffffffffffffffffffffff161461025e57600080fd5b6000600260009054906101000a900473ffffffffffffffffffffffffffffffffffffffff1673ffffffffffffffffffffffffffffffffffffffff166370a08231306040518263ffffffff1660e01b81526004016102bb9190610c24565b602060405180830381865afa1580156102d8573d6000803e3d6000fd5b505050506040513d601f19601f820116820180604052508101906102fc9190610c54565b9050600260009054906101000a900473ffffffffffffffffffffffffffffffffffffffff1673ffffffffffffffffffffffffffffffffffffffff1663a9059cbb60008054906101000a900473ffffffffffffffffffffffffffffffffffffffff16836040518363ffffffff1660e01b815260040161037b929190610bfb565b6020604051808303816000875af115801561039a573d6000803e3d6000fd5b505050506040513d601f19601f820116820180604052508101906103be9190610cb9565b6103c757600080fd5b60008054906101000a900473ffffffffffffffffffffffffffffffffffffffff1673ffffffffffffffffffffffffffffffffffffffff16ff5b60066020528060005260406000206000915090508060000160009054906101000a900473ffffffffffffffffffffffffffffffffffffffff16908060010154905082565b60035481565b60008054906101000a900473ffffffffffffffffffffffffffffffffffffffff1673ffffffffffffffffffffffffffffffffffffffff163373ffffffffffffffffffffffffffffffffffffffff16146104d8576040517f08c379a00000000000000000000000000000000000000000000000000000000081526004016104cf90610d43565b60405180910390fd5b8060018190555050565b60008060009054906101000a900473ffffffffffffffffffffffffffffffffffffffff1673ffffffffffffffffffffffffffffffffffffffff163373ffffffffffffffffffffffffffffffffffffffff1614610573576040517f08c379a000000000000000000000000000000000000000000000000000000000815260040161056a90610d43565b60405180910390fd5b600260009054906101000a900473ffffffffffffffffffffffffffffffffffffffff1673ffffffffffffffffffffffffffffffffffffffff166370a08231306040518263ffffffff1660e01b81526004016105ce9190610c24565b602060405180830381865afa1580156105eb573d6000803e3d6000fd5b505050506040513d601f19601f8201168201806040525081019061060f9190610c54565b905090565b60008060009054906101000a900473ffffffffffffffffffffffffffffffffffffffff1673ffffffffffffffffffffffffffffffffffffffff163373ffffffffffffffffffffffffffffffffffffffff16146106a5576040517f08c379a000000000000000000000000000000000000000000000000000000000815260040161069c90610d43565b60405180910390fd5b47905090565b60055481565b6106bd60015482610ae5565b34146106fe576040517f08c379a00000000000000000000000000000000000000000000000000000000081526004016106f590610dfb565b60405180910390fd5b60006107a682600260009054906101000a900473ffffffffffffffffffffffffffffffffffffffff1673ffffffffffffffffffffffffffffffffffffffff1663313ce5676040518163ffffffff1660e01b8152600401602060405180830381865afa158015610771573d6000803e3d6000fd5b505050506040513d601f19601f820116820180604052508101906107959190610e54565b600a6107a19190610fe3565b610ae5565b905080600260009054906101000a900473ffffffffffffffffffffffffffffffffffffffff1673ffffffffffffffffffffffffffffffffffffffff166370a08231306040518263ffffffff1660e01b81526004016108049190610c24565b602060405180830381865afa158015610821573d6000803e3d6000fd5b505050506040513d601f19601f820116820180604052508101906108459190610c54565b1015610886576040517f08c379a000000000000000000000000000000000000000000000000000000000815260040161087d906110a0565b60405180910390fd5b600260009054906101000a900473ffffffffffffffffffffffffffffffffffffffff1673ffffffffffffffffffffffffffffffffffffffff1663a9059cbb33836040518363ffffffff1660e01b81526004016108e3929190610bfb565b6020604051808303816000875af1158015610902573d6000803e3d6000fd5b505050506040513d601f19601f820116820180604052508101906109269190610cb9565b610965576040517f08c379a000000000000000000000000000000000000000000000000000000000815260040161095c9061110c565b60405180910390fd5b600460009054906101000a900473ffffffffffffffffffffffffffffffffffffffff1673ffffffffffffffffffffffffffffffffffffffff166108fc349081150290604051600060405180830381858888f193505050501580156109cd573d6000803e3d6000fd5b5081600360008282546109e0919061112c565b9250508190555060405180604001604052803373ffffffffffffffffffffffffffffffffffffffff1681526020018381525060066000600554815260200190815260200160002060008201518160000160006101000a81548173ffffffffffffffffffffffffffffffffffffffff021916908373ffffffffffffffffffffffffffffffffffffffff1602179055506020820151816001015590505060056000815480929190610a8e90611182565b91905055503373ffffffffffffffffffffffffffffffffffffffff167fae92ab4b6f8f401ead768d3273e6bb937a13e39827d19c6376e8fd4512a05d9a83604051610ad99190610b41565b60405180910390a25050565b600080831415610af85760009050610b22565b8183610b0491906111cb565b9050818382610b139190611254565b14610b2157610b20611285565b5b5b92915050565b6000819050919050565b610b3b81610b28565b82525050565b6000602082019050610b566000830184610b32565b92915050565b600080fd5b610b6a81610b28565b8114610b7557600080fd5b50565b600081359050610b8781610b61565b92915050565b600060208284031215610ba357610ba2610b5c565b5b6000610bb184828501610b78565b91505092915050565b600073ffffffffffffffffffffffffffffffffffffffff82169050919050565b6000610be582610bba565b9050919050565b610bf581610bda565b82525050565b6000604082019050610c106000830185610bec565b610c1d6020830184610b32565b9392505050565b6000602082019050610c396000830184610bec565b92915050565b600081519050610c4e81610b61565b92915050565b600060208284031215610c6a57610c69610b5c565b5b6000610c7884828501610c3f565b91505092915050565b60008115159050919050565b610c9681610c81565b8114610ca157600080fd5b50565b600081519050610cb381610c8d565b92915050565b600060208284031215610ccf57610cce610b5c565b5b6000610cdd84828501610ca4565b91505092915050565b600082825260208201905092915050565b7f536f6c6f207075656465206c6c616d617220656c2070726f706965746172696f600082015250565b6000610d2d602083610ce6565b9150610d3882610cf7565b602082019050919050565b60006020820190508181036000830152610d5c81610d20565b9050919050565b7f6c612063616e746964616420712070616761206e6f20657320696775616c206160008201527f6c2070726563696f20706f72206c612063616e746964616420646520746f6b6560208201527f6e73000000000000000000000000000000000000000000000000000000000000604082015250565b6000610de5604283610ce6565b9150610df082610d63565b606082019050919050565b60006020820190508181036000830152610e1481610dd8565b9050919050565b600060ff82169050919050565b610e3181610e1b565b8114610e3c57600080fd5b50565b600081519050610e4e81610e28565b92915050565b600060208284031215610e6a57610e69610b5c565b5b6000610e7884828501610e3f565b91505092915050565b7f4e487b7100000000000000000000000000000000000000000000000000000000600052601160045260246000fd5b60008160011c9050919050565b6000808291508390505b6001851115610f0757808604811115610ee357610ee2610e81565b5b6001851615610ef25780820291505b8081029050610f0085610eb0565b9450610ec7565b94509492505050565b600082610f205760019050610fdc565b81610f2e5760009050610fdc565b8160018114610f445760028114610f4e57610f7d565b6001915050610fdc565b60ff841115610f6057610f5f610e81565b5b8360020a915084821115610f7757610f76610e81565b5b50610fdc565b5060208310610133831016604e8410600b8410161715610fb25782820a905083811115610fad57610fac610e81565b5b610fdc565b610fbf8484846001610ebd565b92509050818404811115610fd657610fd5610e81565b5b81810290505b9392505050565b6000610fee82610b28565b9150610ff983610e1b565b92506110267fffffffffffffffffffffffffffffffffffffffffffffffffffffffffffffffff8484610f10565b905092915050565b7f656c20636f6e747261746f2064652076656e7461206e6f207469656e6520746f60008201527f6b656e7300000000000000000000000000000000000000000000000000000000602082015250565b600061108a602483610ce6565b91506110958261102e565b604082019050919050565b600060208201905081810360008301526110b98161107d565b9050919050565b7f66616c6c6f206c61207472616e73666572656e63696120000000000000000000600082015250565b60006110f6601783610ce6565b9150611101826110c0565b602082019050919050565b60006020820190508181036000830152611125816110e9565b9050919050565b600061113782610b28565b915061114283610b28565b9250827fffffffffffffffffffffffffffffffffffffffffffffffffffffffffffffffff0382111561117757611176610e81565b5b828201905092915050565b600061118d82610b28565b91507fffffffffffffffffffffffffffffffffffffffffffffffffffffffffffffffff8214156111c0576111bf610e81565b5b600182019050919050565b60006111d682610b28565b91506111e183610b28565b9250817fffffffffffffffffffffffffffffffffffffffffffffffffffffffffffffffff048311821515161561121a57611219610e81565b5b828202905092915050565b7f4e487b7100000000000000000000000000000000000000000000000000000000600052601260045260246000fd5b600061125f82610b28565b915061126a83610b28565b92508261127a57611279611225565b5b828204905092915050565b7f4e487b7100000000000000000000000000000000000000000000000000000000600052600160045260246000fdfea264697066735822122064dec04d6725e05abb766325cdc6414ac47d6b15abde74849ad435ae669b7b6964736f6c634300080b0033",
  "immutableReferences": {},
  "source": "// SPDX-License-Identifier: MIT\r\npragma solidity ^0.8.6;\r\nimport \"./hectorToken.sol\";\r\ncontract hectorTokenSale  {\r\n    address owner;\r\n    uint256 price;\r\n    hectorToken TokenContract; // Variable de la interface.\r\n    uint256 public tokensSold; // Acumulativo de tokens vendidos.\r\n    address payable private ethFunds = payable(0x5C2143affd2963291Cda790c591dEf00d4D5843B);\r\n    uint256 public transactionCount;\r\n    struct Transaction {\r\n        address buyer;\r\n        uint256 amount;\r\n    }\r\n    mapping(uint256 => Transaction) public transaction;\r\n    event Sold(address indexed buyer, uint256 amount);\r\n    modifier onlyOwner() {\r\n         require(msg.sender == owner, \"Solo puede llamar el propietario\");\r\n        _;\r\n    }\r\n    \r\n    constructor(uint256 _price, address _addressContract)  {\r\n        \r\n        owner = msg.sender;\r\n        price = _price;\r\n        \r\n        // psamos el contrato del token a nuestra variable interface\r\n        TokenContract = hectorToken(_addressContract);\r\n    }\r\n    \r\n    \r\n  //No importamos toda la libreria SafeMath porque solamente necesitamos la funcin multiplicacin.\r\n  function mul(uint256 a, uint256 b) internal pure returns (uint256 c) {\r\n    if (a == 0) {\r\n      return 0;\r\n    }\r\n    c = a * b;\r\n    assert(c / a == b);\r\n    return c;\r\n  }\r\n  \r\n    function priceinWeis() public view  returns (uint256) {\r\n    return price;\r\n  }\r\n  \r\n \r\n    function setPrice(uint256 _newprice) public onlyOwner() {\r\n    price = _newprice;\r\n  }\r\n  \r\n  \r\n   function etherBalance() public view onlyOwner() returns (uint256)  {\r\n    return address(this).balance;\r\n  }\r\n  \r\n   function tokenBalance() public view onlyOwner() returns (uint256)  {\r\n    return TokenContract.balanceOf(address(this));\r\n  }\r\n  \r\n\r\n   \r\n  \r\n    \r\n  function buy(uint256 tokens) public payable {\r\n        \r\n        // que la cantidad que nos paga sea igual al precio x la cantidad de tokens que desea\r\n        require(msg.value == mul(price, tokens), \"la cantidad q paga no es igual al precio por la cantidad de tokens\" ); \r\n        \r\n        // al llamar la funcion original de transferencia tenemos que indicar la cantidad con los ceros de los decimales.\r\n        uint256 amountwithzeros = mul(tokens, uint256(10) ** TokenContract.decimals());\r\n        \r\n        // comprobamos que el contrato de venta tenga los tokens que se desean comprar.\r\n        require(TokenContract.balanceOf(address(this)) >= amountwithzeros, \"el contrato de venta no tiene tokens\"); //address(this) direccion de nuestro contrato\r\n        \r\n        // realizamos la transferencia con un require por mayor seguridad.\r\n        require(TokenContract.transfer(msg.sender, amountwithzeros), \"fallo la transferencia \"); // introducimos la cantidad escalada.\r\n        ethFunds.transfer(msg.value);\r\n         // sumamos la venta.\r\n        tokensSold += tokens; // fjese, que usamos la cantidad sin la suma de los ceros de los decimales.\r\n        transaction[transactionCount] = Transaction(msg.sender, tokens);\r\n        transactionCount++;\r\n        \r\n        emit Sold(msg.sender, tokens);\r\n        \r\n    }\r\n\r\n\r\n    function endSale() public {\r\n        require(msg.sender == owner);\r\n        // Return the tokens that were left inside of the sale contract\r\n        uint256 amount = TokenContract.balanceOf(address(this));\r\n        require(TokenContract.transfer(owner, amount));\r\n        selfdestruct(payable(owner));\r\n    }\r\n\r\n}",
  "sourcePath": "D:\\Trabajo Programador\\Nacho Forobeta Argentina\\Dashboard token inversion\\frontend\\quasar-admin\\contracts\\hectorTokenSale.sol",
  "compiler": {
    "name": "solc",
    "version": "0.8.11+commit.d7f03943.Emscripten.clang"
  },
  "schemaVersion": "3.4.4",
  "updatedAt": "2022-03-09T20:15:31.124Z",
  "devdoc": {
    "kind": "dev",
    "methods": {},
    "version": 1
  },
  "userdoc": {
    "kind": "user",
    "methods": {},
    "version": 1
  }
}