{
  "contractName": "hectorTokenSale",
  "abi": [
    {
      "inputs": [
        {
          "internalType": "uint256",
          "name": "_price",
          "type": "uint256"
        },
        {
          "internalType": "address",
          "name": "_addressContract",
          "type": "address"
        }
      ],
      "stateMutability": "nonpayable",
      "type": "constructor"
    },
    {
      "anonymous": false,
      "inputs": [
        {
          "indexed": true,
          "internalType": "address",
          "name": "buyer",
          "type": "address"
        },
        {
          "indexed": false,
          "internalType": "uint256",
          "name": "amount",
          "type": "uint256"
        }
      ],
      "name": "Sold",
      "type": "event"
    },
    {
      "inputs": [],
      "name": "tokensSold",
      "outputs": [
        {
          "internalType": "uint256",
          "name": "",
          "type": "uint256"
        }
      ],
      "stateMutability": "view",
      "type": "function"
    },
    {
      "inputs": [
        {
          "internalType": "uint256",
          "name": "",
          "type": "uint256"
        }
      ],
      "name": "transaction",
      "outputs": [
        {
          "internalType": "address",
          "name": "buyer",
          "type": "address"
        },
        {
          "internalType": "uint256",
          "name": "amount",
          "type": "uint256"
        }
      ],
      "stateMutability": "view",
      "type": "function"
    },
    {
      "inputs": [],
      "name": "transactionCount",
      "outputs": [
        {
          "internalType": "uint256",
          "name": "",
          "type": "uint256"
        }
      ],
      "stateMutability": "view",
      "type": "function"
    },
    {
      "inputs": [],
      "name": "priceinWeis",
      "outputs": [
        {
          "internalType": "uint256",
          "name": "",
          "type": "uint256"
        }
      ],
      "stateMutability": "view",
      "type": "function"
    },
    {
      "inputs": [
        {
          "internalType": "uint256",
          "name": "_newprice",
          "type": "uint256"
        }
      ],
      "name": "setPrice",
      "outputs": [],
      "stateMutability": "nonpayable",
      "type": "function"
    },
    {
      "inputs": [],
      "name": "etherBalance",
      "outputs": [
        {
          "internalType": "uint256",
          "name": "",
          "type": "uint256"
        }
      ],
      "stateMutability": "view",
      "type": "function"
    },
    {
      "inputs": [],
      "name": "tokenBalance",
      "outputs": [
        {
          "internalType": "uint256",
          "name": "",
          "type": "uint256"
        }
      ],
      "stateMutability": "view",
      "type": "function"
    },
    {
      "inputs": [
        {
          "internalType": "uint256",
          "name": "tokens",
          "type": "uint256"
        }
      ],
      "name": "buy",
      "outputs": [],
      "stateMutability": "payable",
      "type": "function"
    }
  ],
  "bytecode": "0x6080604052735c2143affd2963291cda790c591def00d4d5843b600460006101000a81548173ffffffffffffffffffffffffffffffffffffffff021916908373ffffffffffffffffffffffffffffffffffffffff1602179055503480156200006657600080fd5b50604051620012e6380380620012e683398181016040528101906200008c9190620001c1565b336000806101000a81548173ffffffffffffffffffffffffffffffffffffffff021916908373ffffffffffffffffffffffffffffffffffffffff1602179055508160018190555080600260006101000a81548173ffffffffffffffffffffffffffffffffffffffff021916908373ffffffffffffffffffffffffffffffffffffffff160217905550505062000208565b600080fd5b6000819050919050565b620001368162000121565b81146200014257600080fd5b50565b60008151905062000156816200012b565b92915050565b600073ffffffffffffffffffffffffffffffffffffffff82169050919050565b600062000189826200015c565b9050919050565b6200019b816200017c565b8114620001a757600080fd5b50565b600081519050620001bb8162000190565b92915050565b60008060408385031215620001db57620001da6200011c565b5b6000620001eb8582860162000145565b9250506020620001fe85828601620001aa565b9150509250929050565b6110ce80620002186000396000f3fe60806040526004361061007b5760003560e01c80639e1a4d191161004e5780639e1a4d191461013d578063ad66e52a14610168578063b77bf60014610193578063d96a094a146101be5761007b565b806305bf2af71461008057806346bd0841146100ab578063518ab2a8146100e957806391b7f5ed14610114575b600080fd5b34801561008c57600080fd5b506100956101da565b6040516100a29190610925565b60405180910390f35b3480156100b757600080fd5b506100d260048036038101906100cd9190610971565b6101e4565b6040516100e09291906109df565b60405180910390f35b3480156100f557600080fd5b506100fe610228565b60405161010b9190610925565b60405180910390f35b34801561012057600080fd5b5061013b60048036038101906101369190610971565b61022e565b005b34801561014957600080fd5b506101526102c6565b60405161015f9190610925565b60405180910390f35b34801561017457600080fd5b5061017d6103f8565b60405161018a9190610925565b60405180910390f35b34801561019f57600080fd5b506101a861048f565b6040516101b59190610925565b60405180910390f35b6101d860048036038101906101d39190610971565b610495565b005b6000600154905090565b60066020528060005260406000206000915090508060000160009054906101000a900473ffffffffffffffffffffffffffffffffffffffff16908060010154905082565b60035481565b60008054906101000a900473ffffffffffffffffffffffffffffffffffffffff1673ffffffffffffffffffffffffffffffffffffffff163373ffffffffffffffffffffffffffffffffffffffff16146102bc576040517f08c379a00000000000000000000000000000000000000000000000000000000081526004016102b390610a65565b60405180910390fd5b8060018190555050565b60008060009054906101000a900473ffffffffffffffffffffffffffffffffffffffff1673ffffffffffffffffffffffffffffffffffffffff163373ffffffffffffffffffffffffffffffffffffffff1614610357576040517f08c379a000000000000000000000000000000000000000000000000000000000815260040161034e90610a65565b60405180910390fd5b600260009054906101000a900473ffffffffffffffffffffffffffffffffffffffff1673ffffffffffffffffffffffffffffffffffffffff166370a08231306040518263ffffffff1660e01b81526004016103b29190610a85565b602060405180830381865afa1580156103cf573d6000803e3d6000fd5b505050506040513d601f19601f820116820180604052508101906103f39190610ab5565b905090565b60008060009054906101000a900473ffffffffffffffffffffffffffffffffffffffff1673ffffffffffffffffffffffffffffffffffffffff163373ffffffffffffffffffffffffffffffffffffffff1614610489576040517f08c379a000000000000000000000000000000000000000000000000000000000815260040161048090610a65565b60405180910390fd5b47905090565b60055481565b6104a1600154826108c9565b34146104e2576040517f08c379a00000000000000000000000000000000000000000000000000000000081526004016104d990610b7a565b60405180910390fd5b600061058a82600260009054906101000a900473ffffffffffffffffffffffffffffffffffffffff1673ffffffffffffffffffffffffffffffffffffffff1663313ce5676040518163ffffffff1660e01b8152600401602060405180830381865afa158015610555573d6000803e3d6000fd5b505050506040513d601f19601f820116820180604052508101906105799190610bd3565b600a6105859190610d62565b6108c9565b905080600260009054906101000a900473ffffffffffffffffffffffffffffffffffffffff1673ffffffffffffffffffffffffffffffffffffffff166370a08231306040518263ffffffff1660e01b81526004016105e89190610a85565b602060405180830381865afa158015610605573d6000803e3d6000fd5b505050506040513d601f19601f820116820180604052508101906106299190610ab5565b101561066a576040517f08c379a000000000000000000000000000000000000000000000000000000000815260040161066190610e1f565b60405180910390fd5b600260009054906101000a900473ffffffffffffffffffffffffffffffffffffffff1673ffffffffffffffffffffffffffffffffffffffff1663a9059cbb33836040518363ffffffff1660e01b81526004016106c79291906109df565b6020604051808303816000875af11580156106e6573d6000803e3d6000fd5b505050506040513d601f19601f8201168201806040525081019061070a9190610e77565b610749576040517f08c379a000000000000000000000000000000000000000000000000000000000815260040161074090610ef0565b60405180910390fd5b600460009054906101000a900473ffffffffffffffffffffffffffffffffffffffff1673ffffffffffffffffffffffffffffffffffffffff166108fc349081150290604051600060405180830381858888f193505050501580156107b1573d6000803e3d6000fd5b5081600360008282546107c49190610f10565b9250508190555060405180604001604052803373ffffffffffffffffffffffffffffffffffffffff1681526020018381525060066000600554815260200190815260200160002060008201518160000160006101000a81548173ffffffffffffffffffffffffffffffffffffffff021916908373ffffffffffffffffffffffffffffffffffffffff160217905550602082015181600101559050506005600081548092919061087290610f66565b91905055503373ffffffffffffffffffffffffffffffffffffffff167fae92ab4b6f8f401ead768d3273e6bb937a13e39827d19c6376e8fd4512a05d9a836040516108bd9190610925565b60405180910390a25050565b6000808314156108dc5760009050610906565b81836108e89190610faf565b90508183826108f79190611038565b1461090557610904611069565b5b5b92915050565b6000819050919050565b61091f8161090c565b82525050565b600060208201905061093a6000830184610916565b92915050565b600080fd5b61094e8161090c565b811461095957600080fd5b50565b60008135905061096b81610945565b92915050565b60006020828403121561098757610986610940565b5b60006109958482850161095c565b91505092915050565b600073ffffffffffffffffffffffffffffffffffffffff82169050919050565b60006109c98261099e565b9050919050565b6109d9816109be565b82525050565b60006040820190506109f460008301856109d0565b610a016020830184610916565b9392505050565b600082825260208201905092915050565b7f536f6c6f207075656465206c6c616d617220656c2070726f706965746172696f600082015250565b6000610a4f602083610a08565b9150610a5a82610a19565b602082019050919050565b60006020820190508181036000830152610a7e81610a42565b9050919050565b6000602082019050610a9a60008301846109d0565b92915050565b600081519050610aaf81610945565b92915050565b600060208284031215610acb57610aca610940565b5b6000610ad984828501610aa0565b91505092915050565b7f6c612063616e746964616420712070616761206e6f20657320696775616c206160008201527f6c2070726563696f20706f72206c612063616e746964616420646520746f6b6560208201527f6e73000000000000000000000000000000000000000000000000000000000000604082015250565b6000610b64604283610a08565b9150610b6f82610ae2565b606082019050919050565b60006020820190508181036000830152610b9381610b57565b9050919050565b600060ff82169050919050565b610bb081610b9a565b8114610bbb57600080fd5b50565b600081519050610bcd81610ba7565b92915050565b600060208284031215610be957610be8610940565b5b6000610bf784828501610bbe565b91505092915050565b7f4e487b7100000000000000000000000000000000000000000000000000000000600052601160045260246000fd5b60008160011c9050919050565b6000808291508390505b6001851115610c8657808604811115610c6257610c61610c00565b5b6001851615610c715780820291505b8081029050610c7f85610c2f565b9450610c46565b94509492505050565b600082610c9f5760019050610d5b565b81610cad5760009050610d5b565b8160018114610cc35760028114610ccd57610cfc565b6001915050610d5b565b60ff841115610cdf57610cde610c00565b5b8360020a915084821115610cf657610cf5610c00565b5b50610d5b565b5060208310610133831016604e8410600b8410161715610d315782820a905083811115610d2c57610d2b610c00565b5b610d5b565b610d3e8484846001610c3c565b92509050818404811115610d5557610d54610c00565b5b81810290505b9392505050565b6000610d6d8261090c565b9150610d7883610b9a565b9250610da57fffffffffffffffffffffffffffffffffffffffffffffffffffffffffffffffff8484610c8f565b905092915050565b7f656c20636f6e747261746f2064652076656e7461206e6f207469656e6520746f60008201527f6b656e7300000000000000000000000000000000000000000000000000000000602082015250565b6000610e09602483610a08565b9150610e1482610dad565b604082019050919050565b60006020820190508181036000830152610e3881610dfc565b9050919050565b60008115159050919050565b610e5481610e3f565b8114610e5f57600080fd5b50565b600081519050610e7181610e4b565b92915050565b600060208284031215610e8d57610e8c610940565b5b6000610e9b84828501610e62565b91505092915050565b7f66616c6c6f206c61207472616e73666572656e63696120000000000000000000600082015250565b6000610eda601783610a08565b9150610ee582610ea4565b602082019050919050565b60006020820190508181036000830152610f0981610ecd565b9050919050565b6000610f1b8261090c565b9150610f268361090c565b9250827fffffffffffffffffffffffffffffffffffffffffffffffffffffffffffffffff03821115610f5b57610f5a610c00565b5b828201905092915050565b6000610f718261090c565b91507fffffffffffffffffffffffffffffffffffffffffffffffffffffffffffffffff821415610fa457610fa3610c00565b5b600182019050919050565b6000610fba8261090c565b9150610fc58361090c565b9250817fffffffffffffffffffffffffffffffffffffffffffffffffffffffffffffffff0483118215151615610ffe57610ffd610c00565b5b828202905092915050565b7f4e487b7100000000000000000000000000000000000000000000000000000000600052601260045260246000fd5b60006110438261090c565b915061104e8361090c565b92508261105e5761105d611009565b5b828204905092915050565b7f4e487b7100000000000000000000000000000000000000000000000000000000600052600160045260246000fdfea264697066735822122016307acdb76c0eb82d7d26dc118e27e3f3c354b3d184a53310bdd7c51205285764736f6c634300080b0033",
  "immutableReferences": {},
  "source": "// SPDX-License-Identifier: MIT\r\npragma solidity ^0.8.6;\r\nimport \"./hectorToken.sol\";\r\ncontract hectorTokenSale  {\r\n    address owner;\r\n    uint256 price;\r\n    hectorToken TokenContract; // Variable de la interface.\r\n    uint256 public tokensSold; // Acumulativo de tokens vendidos.\r\n    address payable private ethFunds = payable(0x5C2143affd2963291Cda790c591dEf00d4D5843B);\r\n    uint256 public transactionCount;\r\n    struct Transaction {\r\n        address buyer;\r\n        uint256 amount;\r\n    }\r\n    mapping(uint256 => Transaction) public transaction;\r\n    event Sold(address indexed buyer, uint256 amount);\r\n    modifier onlyOwner() {\r\n         require(msg.sender == owner, \"Solo puede llamar el propietario\");\r\n        _;\r\n    }\r\n    \r\n    constructor(uint256 _price, address _addressContract)  {\r\n        \r\n        owner = msg.sender;\r\n        price = _price;\r\n        \r\n        // psamos el contrato del token a nuestra variable interface\r\n        TokenContract = hectorToken(_addressContract);\r\n    }\r\n    \r\n    \r\n  //No importamos toda la libreria SafeMath porque solamente necesitamos la funcin multiplicacin.\r\n  function mul(uint256 a, uint256 b) internal pure returns (uint256 c) {\r\n    if (a == 0) {\r\n      return 0;\r\n    }\r\n    c = a * b;\r\n    assert(c / a == b);\r\n    return c;\r\n  }\r\n  \r\n    function priceinWeis() public view  returns (uint256) {\r\n    return price;\r\n  }\r\n  \r\n \r\n    function setPrice(uint256 _newprice) public onlyOwner() {\r\n    price = _newprice;\r\n  }\r\n  \r\n  \r\n   function etherBalance() public view onlyOwner() returns (uint256)  {\r\n    return address(this).balance;\r\n  }\r\n  \r\n   function tokenBalance() public view onlyOwner() returns (uint256)  {\r\n    return TokenContract.balanceOf(address(this));\r\n  }\r\n  \r\n\r\n   \r\n  \r\n    \r\n  function buy(uint256 tokens) public payable {\r\n        \r\n        // que la cantidad que nos paga sea igual al precio x la cantidad de tokens que desea\r\n        require(msg.value == mul(price, tokens), \"la cantidad q paga no es igual al precio por la cantidad de tokens\" ); \r\n        \r\n        // al llamar la funcion original de transferencia tenemos que indicar la cantidad con los ceros de los decimales.\r\n        uint256 amountwithzeros = mul(tokens, uint256(10) ** TokenContract.decimals());\r\n        \r\n        // comprobamos que el contrato de venta tenga los tokens que se desean comprar.\r\n        require(TokenContract.balanceOf(address(this)) >= amountwithzeros, \"el contrato de venta no tiene tokens\"); //address(this) direccion de nuestro contrato\r\n        \r\n        // realizamos la transferencia con un require por mayor seguridad.\r\n        require(TokenContract.transfer(msg.sender, amountwithzeros), \"fallo la transferencia \"); // introducimos la cantidad escalada.\r\n        ethFunds.transfer(msg.value);\r\n         // sumamos la venta.\r\n        tokensSold += tokens; // fjese, que usamos la cantidad sin la suma de los ceros de los decimales.\r\n        transaction[transactionCount] = Transaction(msg.sender, tokens);\r\n        transactionCount++;\r\n        \r\n        emit Sold(msg.sender, tokens);\r\n        \r\n    }\r\n\r\n}",
  "sourcePath": "D:\\Trabajo Programador\\Nacho Forobeta Argentina\\Dashboard token inversion\\frontend\\quasar-admin\\contracts\\hectorTokenSale.sol",
  "compiler": {
    "name": "solc",
    "version": "0.8.11+commit.d7f03943.Emscripten.clang"
  },
  "schemaVersion": "3.4.4",
  "updatedAt": "2022-02-07T14:49:48.927Z",
  "devdoc": {
    "kind": "dev",
    "methods": {},
    "version": 1
  },
  "userdoc": {
    "kind": "user",
    "methods": {},
    "version": 1
  }
}