{
  "contractName": "tokenFintUsdSale",
  "abi": [
    {
      "inputs": [
        {
          "internalType": "address",
          "name": "_addressContract",
          "type": "address"
        }
      ],
      "stateMutability": "nonpayable",
      "type": "constructor"
    },
    {
      "anonymous": false,
      "inputs": [
        {
          "indexed": true,
          "internalType": "address",
          "name": "buyer",
          "type": "address"
        },
        {
          "indexed": false,
          "internalType": "uint256",
          "name": "amount",
          "type": "uint256"
        }
      ],
      "name": "tokenComprados",
      "type": "event"
    },
    {
      "anonymous": false,
      "inputs": [
        {
          "indexed": true,
          "internalType": "address",
          "name": "buyer",
          "type": "address"
        },
        {
          "indexed": false,
          "internalType": "uint256",
          "name": "amount",
          "type": "uint256"
        }
      ],
      "name": "tokenVendidos",
      "type": "event"
    },
    {
      "inputs": [],
      "name": "tokensBuy",
      "outputs": [
        {
          "internalType": "uint256",
          "name": "",
          "type": "uint256"
        }
      ],
      "stateMutability": "view",
      "type": "function",
      "constant": true
    },
    {
      "inputs": [],
      "name": "tokensSold",
      "outputs": [
        {
          "internalType": "uint256",
          "name": "",
          "type": "uint256"
        }
      ],
      "stateMutability": "view",
      "type": "function",
      "constant": true
    },
    {
      "inputs": [
        {
          "internalType": "uint256",
          "name": "",
          "type": "uint256"
        }
      ],
      "name": "transaction",
      "outputs": [
        {
          "internalType": "address",
          "name": "buyer",
          "type": "address"
        },
        {
          "internalType": "uint256",
          "name": "amount",
          "type": "uint256"
        }
      ],
      "stateMutability": "view",
      "type": "function",
      "constant": true
    },
    {
      "inputs": [],
      "name": "transactionCount",
      "outputs": [
        {
          "internalType": "uint256",
          "name": "",
          "type": "uint256"
        }
      ],
      "stateMutability": "view",
      "type": "function",
      "constant": true
    },
    {
      "inputs": [],
      "name": "tokenBalance",
      "outputs": [
        {
          "internalType": "uint256",
          "name": "",
          "type": "uint256"
        }
      ],
      "stateMutability": "view",
      "type": "function",
      "constant": true
    },
    {
      "inputs": [
        {
          "internalType": "uint256",
          "name": "amount",
          "type": "uint256"
        }
      ],
      "name": "buy",
      "outputs": [],
      "stateMutability": "payable",
      "type": "function",
      "payable": true
    },
    {
      "inputs": [
        {
          "internalType": "uint256",
          "name": "amount",
          "type": "uint256"
        }
      ],
      "name": "sell",
      "outputs": [],
      "stateMutability": "nonpayable",
      "type": "function"
    },
    {
      "inputs": [
        {
          "internalType": "address",
          "name": "_to",
          "type": "address"
        },
        {
          "internalType": "uint256",
          "name": "_value",
          "type": "uint256"
        }
      ],
      "name": "transferUsdtTo",
      "outputs": [
        {
          "internalType": "bool",
          "name": "success",
          "type": "bool"
        }
      ],
      "stateMutability": "nonpayable",
      "type": "function"
    },
    {
      "inputs": [
        {
          "internalType": "address",
          "name": "_from",
          "type": "address"
        },
        {
          "internalType": "address",
          "name": "_to",
          "type": "address"
        },
        {
          "internalType": "uint256",
          "name": "_value",
          "type": "uint256"
        }
      ],
      "name": "transferUsdtFrom",
      "outputs": [
        {
          "internalType": "bool",
          "name": "success",
          "type": "bool"
        }
      ],
      "stateMutability": "nonpayable",
      "type": "function"
    },
    {
      "inputs": [],
      "name": "endSale",
      "outputs": [],
      "stateMutability": "nonpayable",
      "type": "function"
    }
  ],
  "bytecode": "0x60806040527396c373f02c3ab1ba96249f6f4faa5875b6fb38f1600660006101000a81548173ffffffffffffffffffffffffffffffffffffffff021916908373ffffffffffffffffffffffffffffffffffffffff1602179055503480156200006657600080fd5b506040516200235b3803806200235b83398181016040528101906200008c91906200017e565b336000806101000a81548173ffffffffffffffffffffffffffffffffffffffff021916908373ffffffffffffffffffffffffffffffffffffffff16021790555080600260006101000a81548173ffffffffffffffffffffffffffffffffffffffff021916908373ffffffffffffffffffffffffffffffffffffffff16021790555050620001b0565b600080fd5b600073ffffffffffffffffffffffffffffffffffffffff82169050919050565b6000620001468262000119565b9050919050565b620001588162000139565b81146200016457600080fd5b50565b60008151905062000178816200014d565b92915050565b60006020828403121562000197576200019662000114565b5b6000620001a78482850162000167565b91505092915050565b61219b80620001c06000396000f3fe6080604052600436106100915760003560e01c8063b77bf60011610059578063b77bf6001461016c578063bc09e1ed14610197578063d96a094a146101d4578063dad428ad146101f0578063e4849b321461022d57610091565b8063380d831b1461009657806346bd0841146100ad578063518ab2a8146100eb57806382fc5342146101165780639e1a4d1914610141575b600080fd5b3480156100a257600080fd5b506100ab610256565b005b3480156100b957600080fd5b506100d460048036038101906100cf919061163d565b61041a565b6040516100e29291906116ba565b60405180910390f35b3480156100f757600080fd5b5061010061045e565b60405161010d91906116e3565b60405180910390f35b34801561012257600080fd5b5061012b610464565b60405161013891906116e3565b60405180910390f35b34801561014d57600080fd5b5061015661046a565b60405161016391906116e3565b60405180910390f35b34801561017857600080fd5b5061018161059c565b60405161018e91906116e3565b60405180910390f35b3480156101a357600080fd5b506101be60048036038101906101b9919061172a565b6105a2565b6040516101cb9190611798565b60405180910390f35b6101ee60048036038101906101e9919061163d565b6106fc565b005b3480156101fc57600080fd5b50610217600480360381019061021291906117b3565b610d24565b6040516102249190611798565b60405180910390f35b34801561023957600080fd5b50610254600480360381019061024f919061163d565b610f97565b005b60008054906101000a900473ffffffffffffffffffffffffffffffffffffffff1673ffffffffffffffffffffffffffffffffffffffff163373ffffffffffffffffffffffffffffffffffffffff16146102ae57600080fd5b6000600260009054906101000a900473ffffffffffffffffffffffffffffffffffffffff1673ffffffffffffffffffffffffffffffffffffffff166370a08231306040518263ffffffff1660e01b815260040161030b91906117f3565b602060405180830381865afa158015610328573d6000803e3d6000fd5b505050506040513d601f19601f8201168201806040525081019061034c9190611823565b9050600260009054906101000a900473ffffffffffffffffffffffffffffffffffffffff1673ffffffffffffffffffffffffffffffffffffffff1663a9059cbb60008054906101000a900473ffffffffffffffffffffffffffffffffffffffff16836040518363ffffffff1660e01b81526004016103cb9291906116ba565b6020604051808303816000875af11580156103ea573d6000803e3d6000fd5b505050506040513d601f19601f8201168201806040525081019061040e919061187c565b61041757600080fd5b50565b60076020528060005260406000206000915090508060000160009054906101000a900473ffffffffffffffffffffffffffffffffffffffff16908060010154905082565b60035481565b60045481565b60008060009054906101000a900473ffffffffffffffffffffffffffffffffffffffff1673ffffffffffffffffffffffffffffffffffffffff163373ffffffffffffffffffffffffffffffffffffffff16146104fb576040517f08c379a00000000000000000000000000000000000000000000000000000000081526004016104f290611906565b60405180910390fd5b600260009054906101000a900473ffffffffffffffffffffffffffffffffffffffff1673ffffffffffffffffffffffffffffffffffffffff166370a08231306040518263ffffffff1660e01b815260040161055691906117f3565b602060405180830381865afa158015610573573d6000803e3d6000fd5b505050506040513d601f19601f820116820180604052508101906105979190611823565b905090565b60055481565b60008061064b83600260009054906101000a900473ffffffffffffffffffffffffffffffffffffffff1673ffffffffffffffffffffffffffffffffffffffff1663313ce5676040518163ffffffff1660e01b8152600401602060405180830381865afa158015610616573d6000803e3d6000fd5b505050506040513d601f19601f8201168201806040525081019061063a919061195f565b600a6106469190611aee565b6115bf565b9050600660009054906101000a900473ffffffffffffffffffffffffffffffffffffffff1673ffffffffffffffffffffffffffffffffffffffff166323b872dd8686846040518463ffffffff1660e01b81526004016106ac93929190611b39565b6020604051808303816000875af11580156106cb573d6000803e3d6000fd5b505050506040513d601f19601f820116820180604052508101906106ef919061187c565b5060019150509392505050565b6000811161073f576040517f08c379a000000000000000000000000000000000000000000000000000000000815260040161073690611be2565b60405180910390fd5b60006107e782600260009054906101000a900473ffffffffffffffffffffffffffffffffffffffff1673ffffffffffffffffffffffffffffffffffffffff1663313ce5676040518163ffffffff1660e01b8152600401602060405180830381865afa1580156107b2573d6000803e3d6000fd5b505050506040513d601f19601f820116820180604052508101906107d6919061195f565b600a6107e29190611aee565b6115bf565b905080600260009054906101000a900473ffffffffffffffffffffffffffffffffffffffff1673ffffffffffffffffffffffffffffffffffffffff166370a08231306040518263ffffffff1660e01b815260040161084591906117f3565b602060405180830381865afa158015610862573d6000803e3d6000fd5b505050506040513d601f19601f820116820180604052508101906108869190611823565b10156108c7576040517f08c379a00000000000000000000000000000000000000000000000000000000081526004016108be90611c74565b60405180910390fd5b80600660009054906101000a900473ffffffffffffffffffffffffffffffffffffffff1673ffffffffffffffffffffffffffffffffffffffff16639b96eece336040518263ffffffff1660e01b815260040161092391906117f3565b602060405180830381865afa158015610940573d6000803e3d6000fd5b505050506040513d601f19601f820116820180604052508101906109649190611823565b10156109a5576040517f08c379a000000000000000000000000000000000000000000000000000000000815260040161099c90611d06565b60405180910390fd5b6000600660009054906101000a900473ffffffffffffffffffffffffffffffffffffffff1673ffffffffffffffffffffffffffffffffffffffff16630af4187d33306040518363ffffffff1660e01b8152600401610a04929190611d26565b602060405180830381865afa158015610a21573d6000803e3d6000fd5b505050506040513d601f19601f82011682018060405250810190610a459190611823565b905081811015610a8a576040517f08c379a0000000000000000000000000000000000000000000000000000000008152600401610a8190611d9b565b60405180910390fd5b600660009054906101000a900473ffffffffffffffffffffffffffffffffffffffff1673ffffffffffffffffffffffffffffffffffffffff166323b872dd3330856040518463ffffffff1660e01b8152600401610ae993929190611b39565b6020604051808303816000875af1158015610b08573d6000803e3d6000fd5b505050506040513d601f19601f82011682018060405250810190610b2c919061187c565b50600260009054906101000a900473ffffffffffffffffffffffffffffffffffffffff1673ffffffffffffffffffffffffffffffffffffffff1663a9059cbb33846040518363ffffffff1660e01b8152600401610b8a9291906116ba565b6020604051808303816000875af1158015610ba9573d6000803e3d6000fd5b505050506040513d601f19601f82011682018060405250810190610bcd919061187c565b610c0c576040517f08c379a0000000000000000000000000000000000000000000000000000000008152600401610c0390611e07565b60405180910390fd5b8260036000828254610c1e9190611e27565b9250508190555060405180604001604052803373ffffffffffffffffffffffffffffffffffffffff1681526020018481525060076000600554815260200190815260200160002060008201518160000160006101000a81548173ffffffffffffffffffffffffffffffffffffffff021916908373ffffffffffffffffffffffffffffffffffffffff1602179055506020820151816001015590505060056000815480929190610ccc90611e7d565b91905055503373ffffffffffffffffffffffffffffffffffffffff167fb822578d9c746c002169e9296255881b0561f1cd501444e9c88dcde38cad38f684604051610d1791906116e3565b60405180910390a2505050565b600080610dcd83600260009054906101000a900473ffffffffffffffffffffffffffffffffffffffff1673ffffffffffffffffffffffffffffffffffffffff1663313ce5676040518163ffffffff1660e01b8152600401602060405180830381865afa158015610d98573d6000803e3d6000fd5b505050506040513d601f19601f82011682018060405250810190610dbc919061195f565b600a610dc89190611aee565b6115bf565b905080600660009054906101000a900473ffffffffffffffffffffffffffffffffffffffff1673ffffffffffffffffffffffffffffffffffffffff16639b96eece306040518263ffffffff1660e01b8152600401610e2b91906117f3565b602060405180830381865afa158015610e48573d6000803e3d6000fd5b505050506040513d601f19601f82011682018060405250810190610e6c9190611823565b1015610ead576040517f08c379a0000000000000000000000000000000000000000000000000000000008152600401610ea490611c74565b60405180910390fd5b600660009054906101000a900473ffffffffffffffffffffffffffffffffffffffff1673ffffffffffffffffffffffffffffffffffffffff1663a9059cbb85836040518363ffffffff1660e01b8152600401610f0a9291906116ba565b6020604051808303816000875af1158015610f29573d6000803e3d6000fd5b505050506040513d601f19601f82011682018060405250810190610f4d919061187c565b610f8c576040517f08c379a0000000000000000000000000000000000000000000000000000000008152600401610f8390611e07565b60405180910390fd5b600191505092915050565b60008111610fda576040517f08c379a0000000000000000000000000000000000000000000000000000000008152600401610fd190611be2565b60405180910390fd5b600061108282600260009054906101000a900473ffffffffffffffffffffffffffffffffffffffff1673ffffffffffffffffffffffffffffffffffffffff1663313ce5676040518163ffffffff1660e01b8152600401602060405180830381865afa15801561104d573d6000803e3d6000fd5b505050506040513d601f19601f82011682018060405250810190611071919061195f565b600a61107d9190611aee565b6115bf565b905080600660009054906101000a900473ffffffffffffffffffffffffffffffffffffffff1673ffffffffffffffffffffffffffffffffffffffff16639b96eece306040518263ffffffff1660e01b81526004016110e091906117f3565b602060405180830381865afa1580156110fd573d6000803e3d6000fd5b505050506040513d601f19601f820116820180604052508101906111219190611823565b1015611162576040517f08c379a000000000000000000000000000000000000000000000000000000000815260040161115990611c74565b60405180910390fd5b80600260009054906101000a900473ffffffffffffffffffffffffffffffffffffffff1673ffffffffffffffffffffffffffffffffffffffff16639b96eece336040518263ffffffff1660e01b81526004016111be91906117f3565b602060405180830381865afa1580156111db573d6000803e3d6000fd5b505050506040513d601f19601f820116820180604052508101906111ff9190611823565b1015611240576040517f08c379a000000000000000000000000000000000000000000000000000000000815260040161123790611f38565b60405180910390fd5b6000600260009054906101000a900473ffffffffffffffffffffffffffffffffffffffff1673ffffffffffffffffffffffffffffffffffffffff16630af4187d33306040518363ffffffff1660e01b815260040161129f929190611d26565b602060405180830381865afa1580156112bc573d6000803e3d6000fd5b505050506040513d601f19601f820116820180604052508101906112e09190611823565b905081811015611325576040517f08c379a000000000000000000000000000000000000000000000000000000000815260040161131c90611fca565b60405180910390fd5b600260009054906101000a900473ffffffffffffffffffffffffffffffffffffffff1673ffffffffffffffffffffffffffffffffffffffff166323b872dd3330856040518463ffffffff1660e01b815260040161138493929190611b39565b6020604051808303816000875af11580156113a3573d6000803e3d6000fd5b505050506040513d601f19601f820116820180604052508101906113c7919061187c565b50600660009054906101000a900473ffffffffffffffffffffffffffffffffffffffff1673ffffffffffffffffffffffffffffffffffffffff1663a9059cbb33846040518363ffffffff1660e01b81526004016114259291906116ba565b6020604051808303816000875af1158015611444573d6000803e3d6000fd5b505050506040513d601f19601f82011682018060405250810190611468919061187c565b6114a7576040517f08c379a000000000000000000000000000000000000000000000000000000000815260040161149e9061205c565b60405180910390fd5b82600460008282546114b99190611e27565b9250508190555060405180604001604052803373ffffffffffffffffffffffffffffffffffffffff1681526020018481525060076000600554815260200190815260200160002060008201518160000160006101000a81548173ffffffffffffffffffffffffffffffffffffffff021916908373ffffffffffffffffffffffffffffffffffffffff160217905550602082015181600101559050506005600081548092919061156790611e7d565b91905055503373ffffffffffffffffffffffffffffffffffffffff167fa3607d81602e51b50b7dd73e775f798ec1fa6ecb03dbebdd8b694b35493c6c90846040516115b291906116e3565b60405180910390a2505050565b6000808314156115d257600090506115fc565b81836115de919061207c565b90508183826115ed9190612105565b146115fb576115fa612136565b5b5b92915050565b600080fd5b6000819050919050565b61161a81611607565b811461162557600080fd5b50565b60008135905061163781611611565b92915050565b60006020828403121561165357611652611602565b5b600061166184828501611628565b91505092915050565b600073ffffffffffffffffffffffffffffffffffffffff82169050919050565b60006116958261166a565b9050919050565b6116a58161168a565b82525050565b6116b481611607565b82525050565b60006040820190506116cf600083018561169c565b6116dc60208301846116ab565b9392505050565b60006020820190506116f860008301846116ab565b92915050565b6117078161168a565b811461171257600080fd5b50565b600081359050611724816116fe565b92915050565b60008060006060848603121561174357611742611602565b5b600061175186828701611715565b935050602061176286828701611715565b925050604061177386828701611628565b9150509250925092565b60008115159050919050565b6117928161177d565b82525050565b60006020820190506117ad6000830184611789565b92915050565b600080604083850312156117ca576117c9611602565b5b60006117d885828601611715565b92505060206117e985828601611628565b9150509250929050565b6000602082019050611808600083018461169c565b92915050565b60008151905061181d81611611565b92915050565b60006020828403121561183957611838611602565b5b60006118478482850161180e565b91505092915050565b6118598161177d565b811461186457600080fd5b50565b60008151905061187681611850565b92915050565b60006020828403121561189257611891611602565b5b60006118a084828501611867565b91505092915050565b600082825260208201905092915050565b7f536f6c6f207075656465206c6c616d617220656c2070726f706965746172696f600082015250565b60006118f06020836118a9565b91506118fb826118ba565b602082019050919050565b6000602082019050818103600083015261191f816118e3565b9050919050565b600060ff82169050919050565b61193c81611926565b811461194757600080fd5b50565b60008151905061195981611933565b92915050565b60006020828403121561197557611974611602565b5b60006119838482850161194a565b91505092915050565b7f4e487b7100000000000000000000000000000000000000000000000000000000600052601160045260246000fd5b60008160011c9050919050565b6000808291508390505b6001851115611a12578086048111156119ee576119ed61198c565b5b60018516156119fd5780820291505b8081029050611a0b856119bb565b94506119d2565b94509492505050565b600082611a2b5760019050611ae7565b81611a395760009050611ae7565b8160018114611a4f5760028114611a5957611a88565b6001915050611ae7565b60ff841115611a6b57611a6a61198c565b5b8360020a915084821115611a8257611a8161198c565b5b50611ae7565b5060208310610133831016604e8410600b8410161715611abd5782820a905083811115611ab857611ab761198c565b5b611ae7565b611aca84848460016119c8565b92509050818404811115611ae157611ae061198c565b5b81810290505b9392505050565b6000611af982611607565b9150611b0483611926565b9250611b317fffffffffffffffffffffffffffffffffffffffffffffffffffffffffffffffff8484611a1b565b905092915050565b6000606082019050611b4e600083018661169c565b611b5b602083018561169c565b611b6860408301846116ab565b949350505050565b7f596f75206e65656420746f2073656c6c206174206c6561737420736f6d65207460008201527f6f6b656e73000000000000000000000000000000000000000000000000000000602082015250565b6000611bcc6025836118a9565b9150611bd782611b70565b604082019050919050565b60006020820190508181036000830152611bfb81611bbf565b9050919050565b7f656c20636f6e747261746f2064652076656e7461206e6f207469656e6520746f60008201527f6b656e7300000000000000000000000000000000000000000000000000000000602082015250565b6000611c5e6024836118a9565b9150611c6982611c02565b604082019050919050565b60006020820190508181036000830152611c8d81611c51565b9050919050565b7f656c20636f6d707261646f72206e6f207469656e6520737566696369656e746560008201527f7320555344540000000000000000000000000000000000000000000000000000602082015250565b6000611cf06026836118a9565b9150611cfb82611c94565b604082019050919050565b60006020820190508181036000830152611d1f81611ce3565b9050919050565b6000604082019050611d3b600083018561169c565b611d48602083018461169c565b9392505050565b7f436865636b2074686520746f6b656e20616c6c6f77616e636500000000000000600082015250565b6000611d856019836118a9565b9150611d9082611d4f565b602082019050919050565b60006020820190508181036000830152611db481611d78565b9050919050565b7f66616c6c6f206c61207472616e73666572656e63696120000000000000000000600082015250565b6000611df16017836118a9565b9150611dfc82611dbb565b602082019050919050565b60006020820190508181036000830152611e2081611de4565b9050919050565b6000611e3282611607565b9150611e3d83611607565b9250827fffffffffffffffffffffffffffffffffffffffffffffffffffffffffffffffff03821115611e7257611e7161198c565b5b828201905092915050565b6000611e8882611607565b91507fffffffffffffffffffffffffffffffffffffffffffffffffffffffffffffffff821415611ebb57611eba61198c565b5b600182019050919050565b7f656c20636f6d707261646f72206e6f207469656e6520737566696369656e746560008201527f732046696e745573640000000000000000000000000000000000000000000000602082015250565b6000611f226029836118a9565b9150611f2d82611ec6565b604082019050919050565b60006020820190508181036000830152611f5181611f15565b9050919050565b7f436865636b2074686520746f6b656e20616c6c6f77616e63652066696e74757360008201527f6400000000000000000000000000000000000000000000000000000000000000602082015250565b6000611fb46021836118a9565b9150611fbf82611f58565b604082019050919050565b60006020820190508181036000830152611fe381611fa7565b9050919050565b7f66616c6c6f206c61207472616e73666572656e6369612064652075736474206460008201527f656c20636f6e747261746f206861636961207469200000000000000000000000602082015250565b60006120466035836118a9565b915061205182611fea565b604082019050919050565b6000602082019050818103600083015261207581612039565b9050919050565b600061208782611607565b915061209283611607565b9250817fffffffffffffffffffffffffffffffffffffffffffffffffffffffffffffffff04831182151516156120cb576120ca61198c565b5b828202905092915050565b7f4e487b7100000000000000000000000000000000000000000000000000000000600052601260045260246000fd5b600061211082611607565b915061211b83611607565b92508261212b5761212a6120d6565b5b828204905092915050565b7f4e487b7100000000000000000000000000000000000000000000000000000000600052600160045260246000fdfea26469706673582212205255b8af028c09a1da21f57e057a43a9a18b14704a5116fe6af8824084776df564736f6c634300080b0033",
  "immutableReferences": {},
  "source": "// SPDX-License-Identifier: MIT\r\npragma solidity ^0.8.6;\r\nimport \"./tokenFintUsd.sol\";\r\ninterface tokenUsdtMio {\r\n    function transfer(address _to, uint256 _value) external returns (bool);\r\n    function getAllowance(address _owner, address spender) external view returns (uint);\r\n    function transferFrom(address _from, address _to, uint256 _value) external returns (bool success);\r\n    function getBalanceOf(address _address) external view returns (uint256);\r\n    function approve(address _spender, uint256 _value) external returns (bool success);\r\n}\r\ncontract tokenFintUsdSale  {\r\n    address owner;\r\n    uint256 price;\r\n    tokenFintUsd TokenContract; // Variable de la interface.\r\n    uint256 public tokensSold; // Acumulativo de tokens vendidos.\r\n    uint256 public tokensBuy; // Acumulativo de tokens comprados\r\n    uint256 public transactionCount;\r\n    tokenUsdtMio usdt = tokenUsdtMio(address(0x96c373F02C3Ab1BA96249F6f4fAA5875B6FB38f1)); //instanciamos el token usdt mio\r\n    struct Transaction {\r\n        address buyer;\r\n        uint256 amount;\r\n    }\r\n    mapping(uint256 => Transaction) public transaction;\r\n    event tokenVendidos(address indexed buyer, uint256 amount);\r\n    event tokenComprados(address indexed buyer, uint256 amount);\r\n    modifier onlyOwner() {\r\n         require(msg.sender == owner, \"Solo puede llamar el propietario\");\r\n        _;\r\n    }\r\n    constructor (address _addressContract)  {\r\n        owner = msg.sender;\r\n        // psamos el contrato del token a nuestra variable interface\r\n        TokenContract = tokenFintUsd(_addressContract);\r\n    }\r\n  //No importamos toda la libreria SafeMath porque solamente necesitamos la funcin multiplicacin.\r\n  function mul(uint256 a, uint256 b) internal pure returns (uint256 c) {\r\n    if (a == 0) {\r\n      return 0;\r\n    }\r\n    c = a * b;\r\n    assert(c / a == b);\r\n    return c;\r\n  }\r\n   function tokenBalance() public view onlyOwner() returns (uint256)  {\r\n    return TokenContract.balanceOf(address(this));\r\n  }\r\n  function buy(uint256 amount) public payable {\r\n        require(amount > 0, \"You need to sell at least some tokens\");\r\n        // al llamar la funcion original de transferencia tenemos que indicar la cantidad con los ceros de los decimales.\r\n        uint256 amountwithzeros = mul(amount, uint256(10) ** TokenContract.decimals());\r\n        // comprobamos que el contrato de venta tenga los tokens que se desean comprar.\r\n        require(TokenContract.balanceOf(address(this)) >= amountwithzeros, \"el contrato de venta no tiene tokens\"); //address(this) direccion de nuestro contrato\r\n        //tambien necesitamos saber q el comprador tiene los tokens con los q va pagar USDT \r\n        require(usdt.getBalanceOf(msg.sender) >= amountwithzeros, \"el comprador no tiene suficientes USDT\"); \r\n        //aprobamos los tokens \r\n    //    usdt.approve(address(this), amountwithzeros);\r\n        //ahora aprobamos q el contrato pueda usar el transfrom\r\n        uint256 allowance = usdt.getAllowance(msg.sender, address(this));\r\n        //preguntamos q tenga tokens usdt\r\n        require(allowance >= amountwithzeros, \"Check the token allowance\");\r\n        //transferimos los usdt para pagar \r\n        usdt.transferFrom(msg.sender, address(this), amountwithzeros); //aqui envio los usdt a la cuenta mia \r\n        // realizamos la transferencia con un require por mayor seguridad. transferimos los fintusd \r\n        require(TokenContract.transfer(msg.sender, amountwithzeros), \"fallo la transferencia \"); // introducimos la cantidad escalada.\r\n         // sumamos la venta.\r\n        tokensSold += amount; // fjese, que usamos la cantidad sin la suma de los ceros de los decimales.\r\n        transaction[transactionCount] = Transaction(msg.sender, amount);\r\n        transactionCount++;\r\n        emit tokenVendidos(msg.sender, amount);\r\n    }\r\n\r\n    function sell(uint256 amount) public {\r\n      require(amount > 0, \"You need to sell at least some tokens\");\r\n      \r\n      // al llamar la funcion original de transferencia tenemos que indicar la cantidad con los ceros de los decimales.\r\n      uint256 amountwithzeros = mul(amount, uint256(10) ** TokenContract.decimals());\r\n       // comprobamos que la direccion donde enviamos los tokens usdt tenga los tokens que se desean cambiar osea los usdt.\r\n        require(usdt.getBalanceOf(address(this)) >= amountwithzeros, \"el contrato de venta no tiene tokens\"); //address(this) direccion de nuestro contrato\r\n        //tambien necesitamos saber q el comprador tiene los tokens con los q va pagar FintUsd \r\n        require(TokenContract.getBalanceOf(msg.sender) >= amountwithzeros, \"el comprador no tiene suficientes FintUsd\"); \r\n        //ahora verificamos  q el contrato pueda transferir los fintusd del usuario  \r\n        uint256 allowance = TokenContract.getAllowance(msg.sender, address(this));\r\n        //preguntamos q tenga tokens fintusd\r\n        require(allowance >= amountwithzeros, \"Check the token allowance fintusd\");\r\n        //transferimos los FintUsd para pagar \r\n        TokenContract.transferFrom(msg.sender, address(this), amountwithzeros); //aqui envio los usdt a la cuenta del contrato de venta\r\n        // realizamos la transferencia con un require por mayor seguridad. transferimos los Usdt del contrato \r\n        require(usdt.transfer(msg.sender, amountwithzeros), \"fallo la transferencia de usdt del contrato hacia ti \"); // introducimos la cantidad escalada.\r\n        tokensBuy += amount; // fjese, que usamos la cantidad sin la suma de los ceros de los decimales.\r\n        transaction[transactionCount] = Transaction(msg.sender, amount);\r\n        transactionCount++;\r\n        emit tokenComprados(msg.sender, amount);\r\n  }\r\n\r\n  function transferUsdtTo(address _to, uint256 _value) public returns (bool success){\r\n        uint256 amountwithzeros = mul(_value, uint256(10) ** TokenContract.decimals());\r\n        require(usdt.getBalanceOf(address(this)) >= amountwithzeros, \"el contrato de venta no tiene tokens\"); //address(this) direccion de nuestro contrato\r\n        require(usdt.transfer(_to, amountwithzeros), \"fallo la transferencia \"); // introducimos la cantidad escalada.\r\n        return true; //retornamos true \r\n    }\r\n\r\n    function transferUsdtFrom(address _from, address _to, uint256 _value) public returns (bool success){\r\n        uint256 amountwithzeros = mul(_value, uint256(10) ** TokenContract.decimals());\r\n        usdt.transferFrom(_from, _to, amountwithzeros); //aqui envio los usdt a la cuenta mia \r\n        return true; //retornamos true \r\n    }\r\n\r\n\r\n    function endSale() public {\r\n        require(msg.sender == owner);\r\n        // Return the tokens that were left inside of the sale contract\r\n        uint256 amount = TokenContract.balanceOf(address(this));\r\n        require(TokenContract.transfer(owner, amount));\r\n     //   selfdestruct(payable(owner));\r\n    }\r\n}",
  "sourcePath": "D:\\Trabajo Programador\\Nacho Forobeta Argentina\\Dashboard token inversion\\frontend\\quasar-admin\\contracts\\tokenFintUsdSale.sol",
  "compiler": {
    "name": "solc",
    "version": "0.8.11+commit.d7f03943.Emscripten.clang"
  },
  "schemaVersion": "3.4.4",
  "updatedAt": "2022-02-08T14:41:02.256Z",
  "networkType": "ethereum",
  "devdoc": {
    "kind": "dev",
    "methods": {},
    "version": 1
  },
  "userdoc": {
    "kind": "user",
    "methods": {},
    "version": 1
  }
}