{
  "contractName": "tokenFintUsdSale",
  "abi": [
    {
      "inputs": [
        {
          "internalType": "address",
          "name": "_addressContract",
          "type": "address"
        }
      ],
      "stateMutability": "nonpayable",
      "type": "constructor"
    },
    {
      "anonymous": false,
      "inputs": [
        {
          "indexed": true,
          "internalType": "address",
          "name": "buyer",
          "type": "address"
        },
        {
          "indexed": false,
          "internalType": "uint256",
          "name": "amount",
          "type": "uint256"
        }
      ],
      "name": "tokenComprados",
      "type": "event"
    },
    {
      "anonymous": false,
      "inputs": [
        {
          "indexed": true,
          "internalType": "address",
          "name": "buyer",
          "type": "address"
        },
        {
          "indexed": false,
          "internalType": "uint256",
          "name": "amount",
          "type": "uint256"
        }
      ],
      "name": "tokenVendidos",
      "type": "event"
    },
    {
      "inputs": [],
      "name": "tokensBuy",
      "outputs": [
        {
          "internalType": "uint256",
          "name": "",
          "type": "uint256"
        }
      ],
      "stateMutability": "view",
      "type": "function",
      "constant": true
    },
    {
      "inputs": [],
      "name": "tokensSold",
      "outputs": [
        {
          "internalType": "uint256",
          "name": "",
          "type": "uint256"
        }
      ],
      "stateMutability": "view",
      "type": "function",
      "constant": true
    },
    {
      "inputs": [
        {
          "internalType": "uint256",
          "name": "",
          "type": "uint256"
        }
      ],
      "name": "transaction",
      "outputs": [
        {
          "internalType": "address",
          "name": "buyer",
          "type": "address"
        },
        {
          "internalType": "uint256",
          "name": "amount",
          "type": "uint256"
        }
      ],
      "stateMutability": "view",
      "type": "function",
      "constant": true
    },
    {
      "inputs": [],
      "name": "transactionCount",
      "outputs": [
        {
          "internalType": "uint256",
          "name": "",
          "type": "uint256"
        }
      ],
      "stateMutability": "view",
      "type": "function",
      "constant": true
    },
    {
      "inputs": [],
      "name": "tokenBalance",
      "outputs": [
        {
          "internalType": "uint256",
          "name": "",
          "type": "uint256"
        }
      ],
      "stateMutability": "view",
      "type": "function",
      "constant": true
    },
    {
      "inputs": [
        {
          "internalType": "uint256",
          "name": "amount",
          "type": "uint256"
        }
      ],
      "name": "buy",
      "outputs": [],
      "stateMutability": "payable",
      "type": "function",
      "payable": true
    },
    {
      "inputs": [
        {
          "internalType": "uint256",
          "name": "amount",
          "type": "uint256"
        }
      ],
      "name": "sell",
      "outputs": [],
      "stateMutability": "nonpayable",
      "type": "function"
    },
    {
      "inputs": [
        {
          "internalType": "address",
          "name": "_to",
          "type": "address"
        },
        {
          "internalType": "uint256",
          "name": "_value",
          "type": "uint256"
        }
      ],
      "name": "transferUsdtTo",
      "outputs": [
        {
          "internalType": "bool",
          "name": "success",
          "type": "bool"
        }
      ],
      "stateMutability": "nonpayable",
      "type": "function"
    },
    {
      "inputs": [
        {
          "internalType": "address",
          "name": "_from",
          "type": "address"
        },
        {
          "internalType": "address",
          "name": "_to",
          "type": "address"
        },
        {
          "internalType": "uint256",
          "name": "_value",
          "type": "uint256"
        }
      ],
      "name": "transferUsdtFrom",
      "outputs": [
        {
          "internalType": "bool",
          "name": "success",
          "type": "bool"
        }
      ],
      "stateMutability": "nonpayable",
      "type": "function"
    },
    {
      "inputs": [],
      "name": "endSale",
      "outputs": [],
      "stateMutability": "nonpayable",
      "type": "function"
    }
  ],
  "bytecode": "0x60806040527349e4b3a08ef9e996381e676e0aa034e5570deaa5600660006101000a81548173ffffffffffffffffffffffffffffffffffffffff021916908373ffffffffffffffffffffffffffffffffffffffff1602179055503480156200006657600080fd5b50604051620024cf380380620024cf83398181016040528101906200008c91906200017e565b336000806101000a81548173ffffffffffffffffffffffffffffffffffffffff021916908373ffffffffffffffffffffffffffffffffffffffff16021790555080600260006101000a81548173ffffffffffffffffffffffffffffffffffffffff021916908373ffffffffffffffffffffffffffffffffffffffff16021790555050620001b0565b600080fd5b600073ffffffffffffffffffffffffffffffffffffffff82169050919050565b6000620001468262000119565b9050919050565b620001588162000139565b81146200016457600080fd5b50565b60008151905062000178816200014d565b92915050565b60006020828403121562000197576200019662000114565b5b6000620001a78482850162000167565b91505092915050565b61230f80620001c06000396000f3fe6080604052600436106100915760003560e01c8063b77bf60011610059578063b77bf6001461016c578063bc09e1ed14610197578063d96a094a146101d4578063dad428ad146101f0578063e4849b321461022d57610091565b8063380d831b1461009657806346bd0841146100ad578063518ab2a8146100eb57806382fc5342146101165780639e1a4d1914610141575b600080fd5b3480156100a257600080fd5b506100ab610256565b005b3480156100b957600080fd5b506100d460048036038101906100cf919061171f565b61041a565b6040516100e292919061179c565b60405180910390f35b3480156100f757600080fd5b5061010061045e565b60405161010d91906117c5565b60405180910390f35b34801561012257600080fd5b5061012b610464565b60405161013891906117c5565b60405180910390f35b34801561014d57600080fd5b5061015661046a565b60405161016391906117c5565b60405180910390f35b34801561017857600080fd5b5061018161059c565b60405161018e91906117c5565b60405180910390f35b3480156101a357600080fd5b506101be60048036038101906101b9919061180c565b6105a2565b6040516101cb919061187a565b60405180910390f35b6101ee60048036038101906101e9919061171f565b6106fc565b005b3480156101fc57600080fd5b5061021760048036038101906102129190611895565b610d24565b604051610224919061187a565b60405180910390f35b34801561023957600080fd5b50610254600480360381019061024f919061171f565b610f97565b005b60008054906101000a900473ffffffffffffffffffffffffffffffffffffffff1673ffffffffffffffffffffffffffffffffffffffff163373ffffffffffffffffffffffffffffffffffffffff16146102ae57600080fd5b6000600260009054906101000a900473ffffffffffffffffffffffffffffffffffffffff1673ffffffffffffffffffffffffffffffffffffffff166370a08231306040518263ffffffff1660e01b815260040161030b91906118d5565b602060405180830381865afa158015610328573d6000803e3d6000fd5b505050506040513d601f19601f8201168201806040525081019061034c9190611905565b9050600260009054906101000a900473ffffffffffffffffffffffffffffffffffffffff1673ffffffffffffffffffffffffffffffffffffffff1663a9059cbb60008054906101000a900473ffffffffffffffffffffffffffffffffffffffff16836040518363ffffffff1660e01b81526004016103cb92919061179c565b6020604051808303816000875af11580156103ea573d6000803e3d6000fd5b505050506040513d601f19601f8201168201806040525081019061040e919061195e565b61041757600080fd5b50565b60076020528060005260406000206000915090508060000160009054906101000a900473ffffffffffffffffffffffffffffffffffffffff16908060010154905082565b60035481565b60045481565b60008060009054906101000a900473ffffffffffffffffffffffffffffffffffffffff1673ffffffffffffffffffffffffffffffffffffffff163373ffffffffffffffffffffffffffffffffffffffff16146104fb576040517f08c379a00000000000000000000000000000000000000000000000000000000081526004016104f2906119e8565b60405180910390fd5b600260009054906101000a900473ffffffffffffffffffffffffffffffffffffffff1673ffffffffffffffffffffffffffffffffffffffff166370a08231306040518263ffffffff1660e01b815260040161055691906118d5565b602060405180830381865afa158015610573573d6000803e3d6000fd5b505050506040513d601f19601f820116820180604052508101906105979190611905565b905090565b60055481565b60008061064b83600260009054906101000a900473ffffffffffffffffffffffffffffffffffffffff1673ffffffffffffffffffffffffffffffffffffffff1663313ce5676040518163ffffffff1660e01b8152600401602060405180830381865afa158015610616573d6000803e3d6000fd5b505050506040513d601f19601f8201168201806040525081019061063a9190611a41565b600a6106469190611bd0565b6116a1565b9050600660009054906101000a900473ffffffffffffffffffffffffffffffffffffffff1673ffffffffffffffffffffffffffffffffffffffff166323b872dd8686846040518463ffffffff1660e01b81526004016106ac93929190611c1b565b6020604051808303816000875af11580156106cb573d6000803e3d6000fd5b505050506040513d601f19601f820116820180604052508101906106ef919061195e565b5060019150509392505050565b6000811161073f576040517f08c379a000000000000000000000000000000000000000000000000000000000815260040161073690611cc4565b60405180910390fd5b60006107e782600260009054906101000a900473ffffffffffffffffffffffffffffffffffffffff1673ffffffffffffffffffffffffffffffffffffffff1663313ce5676040518163ffffffff1660e01b8152600401602060405180830381865afa1580156107b2573d6000803e3d6000fd5b505050506040513d601f19601f820116820180604052508101906107d69190611a41565b600a6107e29190611bd0565b6116a1565b905080600260009054906101000a900473ffffffffffffffffffffffffffffffffffffffff1673ffffffffffffffffffffffffffffffffffffffff166370a08231306040518263ffffffff1660e01b815260040161084591906118d5565b602060405180830381865afa158015610862573d6000803e3d6000fd5b505050506040513d601f19601f820116820180604052508101906108869190611905565b10156108c7576040517f08c379a00000000000000000000000000000000000000000000000000000000081526004016108be90611d56565b60405180910390fd5b80600660009054906101000a900473ffffffffffffffffffffffffffffffffffffffff1673ffffffffffffffffffffffffffffffffffffffff16639b96eece336040518263ffffffff1660e01b815260040161092391906118d5565b602060405180830381865afa158015610940573d6000803e3d6000fd5b505050506040513d601f19601f820116820180604052508101906109649190611905565b10156109a5576040517f08c379a000000000000000000000000000000000000000000000000000000000815260040161099c90611de8565b60405180910390fd5b6000600660009054906101000a900473ffffffffffffffffffffffffffffffffffffffff1673ffffffffffffffffffffffffffffffffffffffff16630af4187d33306040518363ffffffff1660e01b8152600401610a04929190611e08565b602060405180830381865afa158015610a21573d6000803e3d6000fd5b505050506040513d601f19601f82011682018060405250810190610a459190611905565b905081811015610a8a576040517f08c379a0000000000000000000000000000000000000000000000000000000008152600401610a8190611e7d565b60405180910390fd5b600660009054906101000a900473ffffffffffffffffffffffffffffffffffffffff1673ffffffffffffffffffffffffffffffffffffffff166323b872dd3330856040518463ffffffff1660e01b8152600401610ae993929190611c1b565b6020604051808303816000875af1158015610b08573d6000803e3d6000fd5b505050506040513d601f19601f82011682018060405250810190610b2c919061195e565b50600260009054906101000a900473ffffffffffffffffffffffffffffffffffffffff1673ffffffffffffffffffffffffffffffffffffffff1663a9059cbb33846040518363ffffffff1660e01b8152600401610b8a92919061179c565b6020604051808303816000875af1158015610ba9573d6000803e3d6000fd5b505050506040513d601f19601f82011682018060405250810190610bcd919061195e565b610c0c576040517f08c379a0000000000000000000000000000000000000000000000000000000008152600401610c0390611ee9565b60405180910390fd5b8260036000828254610c1e9190611f09565b9250508190555060405180604001604052803373ffffffffffffffffffffffffffffffffffffffff1681526020018481525060076000600554815260200190815260200160002060008201518160000160006101000a81548173ffffffffffffffffffffffffffffffffffffffff021916908373ffffffffffffffffffffffffffffffffffffffff1602179055506020820151816001015590505060056000815480929190610ccc90611f5f565b91905055503373ffffffffffffffffffffffffffffffffffffffff167fb822578d9c746c002169e9296255881b0561f1cd501444e9c88dcde38cad38f684604051610d1791906117c5565b60405180910390a2505050565b600080610dcd83600260009054906101000a900473ffffffffffffffffffffffffffffffffffffffff1673ffffffffffffffffffffffffffffffffffffffff1663313ce5676040518163ffffffff1660e01b8152600401602060405180830381865afa158015610d98573d6000803e3d6000fd5b505050506040513d601f19601f82011682018060405250810190610dbc9190611a41565b600a610dc89190611bd0565b6116a1565b905080600660009054906101000a900473ffffffffffffffffffffffffffffffffffffffff1673ffffffffffffffffffffffffffffffffffffffff16639b96eece306040518263ffffffff1660e01b8152600401610e2b91906118d5565b602060405180830381865afa158015610e48573d6000803e3d6000fd5b505050506040513d601f19601f82011682018060405250810190610e6c9190611905565b1015610ead576040517f08c379a0000000000000000000000000000000000000000000000000000000008152600401610ea490611d56565b60405180910390fd5b600660009054906101000a900473ffffffffffffffffffffffffffffffffffffffff1673ffffffffffffffffffffffffffffffffffffffff1663a9059cbb85836040518363ffffffff1660e01b8152600401610f0a92919061179c565b6020604051808303816000875af1158015610f29573d6000803e3d6000fd5b505050506040513d601f19601f82011682018060405250810190610f4d919061195e565b610f8c576040517f08c379a0000000000000000000000000000000000000000000000000000000008152600401610f8390611ee9565b60405180910390fd5b600191505092915050565b60008111610fda576040517f08c379a0000000000000000000000000000000000000000000000000000000008152600401610fd190611cc4565b60405180910390fd5b600061108282600260009054906101000a900473ffffffffffffffffffffffffffffffffffffffff1673ffffffffffffffffffffffffffffffffffffffff1663313ce5676040518163ffffffff1660e01b8152600401602060405180830381865afa15801561104d573d6000803e3d6000fd5b505050506040513d601f19601f820116820180604052508101906110719190611a41565b600a61107d9190611bd0565b6116a1565b905060001515600260009054906101000a900473ffffffffffffffffffffffffffffffffffffffff1673ffffffffffffffffffffffffffffffffffffffff1663cc49ede7336040518263ffffffff1660e01b81526004016110e391906118d5565b602060405180830381865afa158015611100573d6000803e3d6000fd5b505050506040513d601f19601f82011682018060405250810190611124919061195e565b151514611166576040517f08c379a000000000000000000000000000000000000000000000000000000000815260040161115d9061201a565b60405180910390fd5b80600660009054906101000a900473ffffffffffffffffffffffffffffffffffffffff1673ffffffffffffffffffffffffffffffffffffffff16639b96eece306040518263ffffffff1660e01b81526004016111c291906118d5565b602060405180830381865afa1580156111df573d6000803e3d6000fd5b505050506040513d601f19601f820116820180604052508101906112039190611905565b1015611244576040517f08c379a000000000000000000000000000000000000000000000000000000000815260040161123b90611d56565b60405180910390fd5b80600260009054906101000a900473ffffffffffffffffffffffffffffffffffffffff1673ffffffffffffffffffffffffffffffffffffffff16639b96eece336040518263ffffffff1660e01b81526004016112a091906118d5565b602060405180830381865afa1580156112bd573d6000803e3d6000fd5b505050506040513d601f19601f820116820180604052508101906112e19190611905565b1015611322576040517f08c379a0000000000000000000000000000000000000000000000000000000008152600401611319906120ac565b60405180910390fd5b6000600260009054906101000a900473ffffffffffffffffffffffffffffffffffffffff1673ffffffffffffffffffffffffffffffffffffffff16630af4187d33306040518363ffffffff1660e01b8152600401611381929190611e08565b602060405180830381865afa15801561139e573d6000803e3d6000fd5b505050506040513d601f19601f820116820180604052508101906113c29190611905565b905081811015611407576040517f08c379a00000000000000000000000000000000000000000000000000000000081526004016113fe9061213e565b60405180910390fd5b600260009054906101000a900473ffffffffffffffffffffffffffffffffffffffff1673ffffffffffffffffffffffffffffffffffffffff166323b872dd3330856040518463ffffffff1660e01b815260040161146693929190611c1b565b6020604051808303816000875af1158015611485573d6000803e3d6000fd5b505050506040513d601f19601f820116820180604052508101906114a9919061195e565b50600660009054906101000a900473ffffffffffffffffffffffffffffffffffffffff1673ffffffffffffffffffffffffffffffffffffffff1663a9059cbb33846040518363ffffffff1660e01b815260040161150792919061179c565b6020604051808303816000875af1158015611526573d6000803e3d6000fd5b505050506040513d601f19601f8201168201806040525081019061154a919061195e565b611589576040517f08c379a0000000000000000000000000000000000000000000000000000000008152600401611580906121d0565b60405180910390fd5b826004600082825461159b9190611f09565b9250508190555060405180604001604052803373ffffffffffffffffffffffffffffffffffffffff1681526020018481525060076000600554815260200190815260200160002060008201518160000160006101000a81548173ffffffffffffffffffffffffffffffffffffffff021916908373ffffffffffffffffffffffffffffffffffffffff160217905550602082015181600101559050506005600081548092919061164990611f5f565b91905055503373ffffffffffffffffffffffffffffffffffffffff167fa3607d81602e51b50b7dd73e775f798ec1fa6ecb03dbebdd8b694b35493c6c908460405161169491906117c5565b60405180910390a2505050565b6000808314156116b457600090506116de565b81836116c091906121f0565b90508183826116cf9190612279565b146116dd576116dc6122aa565b5b5b92915050565b600080fd5b6000819050919050565b6116fc816116e9565b811461170757600080fd5b50565b600081359050611719816116f3565b92915050565b600060208284031215611735576117346116e4565b5b60006117438482850161170a565b91505092915050565b600073ffffffffffffffffffffffffffffffffffffffff82169050919050565b60006117778261174c565b9050919050565b6117878161176c565b82525050565b611796816116e9565b82525050565b60006040820190506117b1600083018561177e565b6117be602083018461178d565b9392505050565b60006020820190506117da600083018461178d565b92915050565b6117e98161176c565b81146117f457600080fd5b50565b600081359050611806816117e0565b92915050565b600080600060608486031215611825576118246116e4565b5b6000611833868287016117f7565b9350506020611844868287016117f7565b92505060406118558682870161170a565b9150509250925092565b60008115159050919050565b6118748161185f565b82525050565b600060208201905061188f600083018461186b565b92915050565b600080604083850312156118ac576118ab6116e4565b5b60006118ba858286016117f7565b92505060206118cb8582860161170a565b9150509250929050565b60006020820190506118ea600083018461177e565b92915050565b6000815190506118ff816116f3565b92915050565b60006020828403121561191b5761191a6116e4565b5b6000611929848285016118f0565b91505092915050565b61193b8161185f565b811461194657600080fd5b50565b60008151905061195881611932565b92915050565b600060208284031215611974576119736116e4565b5b600061198284828501611949565b91505092915050565b600082825260208201905092915050565b7f536f6c6f207075656465206c6c616d617220656c2070726f706965746172696f600082015250565b60006119d260208361198b565b91506119dd8261199c565b602082019050919050565b60006020820190508181036000830152611a01816119c5565b9050919050565b600060ff82169050919050565b611a1e81611a08565b8114611a2957600080fd5b50565b600081519050611a3b81611a15565b92915050565b600060208284031215611a5757611a566116e4565b5b6000611a6584828501611a2c565b91505092915050565b7f4e487b7100000000000000000000000000000000000000000000000000000000600052601160045260246000fd5b60008160011c9050919050565b6000808291508390505b6001851115611af457808604811115611ad057611acf611a6e565b5b6001851615611adf5780820291505b8081029050611aed85611a9d565b9450611ab4565b94509492505050565b600082611b0d5760019050611bc9565b81611b1b5760009050611bc9565b8160018114611b315760028114611b3b57611b6a565b6001915050611bc9565b60ff841115611b4d57611b4c611a6e565b5b8360020a915084821115611b6457611b63611a6e565b5b50611bc9565b5060208310610133831016604e8410600b8410161715611b9f5782820a905083811115611b9a57611b99611a6e565b5b611bc9565b611bac8484846001611aaa565b92509050818404811115611bc357611bc2611a6e565b5b81810290505b9392505050565b6000611bdb826116e9565b9150611be683611a08565b9250611c137fffffffffffffffffffffffffffffffffffffffffffffffffffffffffffffffff8484611afd565b905092915050565b6000606082019050611c30600083018661177e565b611c3d602083018561177e565b611c4a604083018461178d565b949350505050565b7f596f75206e65656420746f2073656c6c206174206c6561737420736f6d65207460008201527f6f6b656e73000000000000000000000000000000000000000000000000000000602082015250565b6000611cae60258361198b565b9150611cb982611c52565b604082019050919050565b60006020820190508181036000830152611cdd81611ca1565b9050919050565b7f656c20636f6e747261746f2064652076656e7461206e6f207469656e6520746f60008201527f6b656e7300000000000000000000000000000000000000000000000000000000602082015250565b6000611d4060248361198b565b9150611d4b82611ce4565b604082019050919050565b60006020820190508181036000830152611d6f81611d33565b9050919050565b7f656c20636f6d707261646f72206e6f207469656e6520737566696369656e746560008201527f7320555344540000000000000000000000000000000000000000000000000000602082015250565b6000611dd260268361198b565b9150611ddd82611d76565b604082019050919050565b60006020820190508181036000830152611e0181611dc5565b9050919050565b6000604082019050611e1d600083018561177e565b611e2a602083018461177e565b9392505050565b7f436865636b2074686520746f6b656e20616c6c6f77616e636500000000000000600082015250565b6000611e6760198361198b565b9150611e7282611e31565b602082019050919050565b60006020820190508181036000830152611e9681611e5a565b9050919050565b7f66616c6c6f206c61207472616e73666572656e63696120000000000000000000600082015250565b6000611ed360178361198b565b9150611ede82611e9d565b602082019050919050565b60006020820190508181036000830152611f0281611ec6565b9050919050565b6000611f14826116e9565b9150611f1f836116e9565b9250827fffffffffffffffffffffffffffffffffffffffffffffffffffffffffffffffff03821115611f5457611f53611a6e565b5b828201905092915050565b6000611f6a826116e9565b91507fffffffffffffffffffffffffffffffffffffffffffffffffffffffffffffffff821415611f9d57611f9c611a6e565b5b600182019050919050565b7f6e6f207075656465207472616e73666572697220706f72717565207469656e6560008201527f2076657374696e67200000000000000000000000000000000000000000000000602082015250565b600061200460298361198b565b915061200f82611fa8565b604082019050919050565b6000602082019050818103600083015261203381611ff7565b9050919050565b7f656c20636f6d707261646f72206e6f207469656e6520737566696369656e746560008201527f732046696e745573640000000000000000000000000000000000000000000000602082015250565b600061209660298361198b565b91506120a18261203a565b604082019050919050565b600060208201905081810360008301526120c581612089565b9050919050565b7f436865636b2074686520746f6b656e20616c6c6f77616e63652066696e74757360008201527f6400000000000000000000000000000000000000000000000000000000000000602082015250565b600061212860218361198b565b9150612133826120cc565b604082019050919050565b600060208201905081810360008301526121578161211b565b9050919050565b7f66616c6c6f206c61207472616e73666572656e6369612064652075736474206460008201527f656c20636f6e747261746f206861636961207469200000000000000000000000602082015250565b60006121ba60358361198b565b91506121c58261215e565b604082019050919050565b600060208201905081810360008301526121e9816121ad565b9050919050565b60006121fb826116e9565b9150612206836116e9565b9250817fffffffffffffffffffffffffffffffffffffffffffffffffffffffffffffffff048311821515161561223f5761223e611a6e565b5b828202905092915050565b7f4e487b7100000000000000000000000000000000000000000000000000000000600052601260045260246000fd5b6000612284826116e9565b915061228f836116e9565b92508261229f5761229e61224a565b5b828204905092915050565b7f4e487b7100000000000000000000000000000000000000000000000000000000600052600160045260246000fdfea26469706673582212207404e1709fd96972f056aeaa03e3280abefee787477791e6bb8b92bd89918e0964736f6c634300080b0033",
  "immutableReferences": {},
  "source": "// SPDX-License-Identifier: MIT\r\npragma solidity ^0.8.6;\r\nimport \"./tokenFintUsd.sol\";\r\ninterface tokenUsdtMio {\r\n    function transfer(address _to, uint256 _value) external returns (bool);\r\n    function getAllowance(address _owner, address spender) external view returns (uint);\r\n    function transferFrom(address _from, address _to, uint256 _value) external returns (bool success);\r\n    function getBalanceOf(address _address) external view returns (uint256);\r\n    function approve(address _spender, uint256 _value) external returns (bool success);\r\n    function getVesting(address _address) external view returns (uint256);\r\n    \r\n}\r\ncontract tokenFintUsdSale  {\r\n    address owner;\r\n    uint256 price;\r\n    tokenFintUsd TokenContract; // Variable de la interface.\r\n    uint256 public tokensSold; // Acumulativo de tokens vendidos.\r\n    uint256 public tokensBuy; // Acumulativo de tokens comprados\r\n    uint256 public transactionCount;\r\n    tokenUsdtMio usdt = tokenUsdtMio(address(0x49e4B3a08Ef9E996381E676e0AA034e5570dEAA5)); //instanciamos el token usdt mio\r\n    struct Transaction {\r\n        address buyer;\r\n        uint256 amount;\r\n    }\r\n    mapping(uint256 => Transaction) public transaction;\r\n    event tokenVendidos(address indexed buyer, uint256 amount);\r\n    event tokenComprados(address indexed buyer, uint256 amount);\r\n    modifier onlyOwner() {\r\n         require(msg.sender == owner, \"Solo puede llamar el propietario\");\r\n        _;\r\n    }\r\n    constructor (address _addressContract)  {\r\n        owner = msg.sender;\r\n        // psamos el contrato del token a nuestra variable interface\r\n        TokenContract = tokenFintUsd(_addressContract);\r\n    }\r\n  //No importamos toda la libreria SafeMath porque solamente necesitamos la funcin multiplicacin.\r\n  function mul(uint256 a, uint256 b) internal pure returns (uint256 c) {\r\n    if (a == 0) {\r\n      return 0;\r\n    }\r\n    c = a * b;\r\n    assert(c / a == b);\r\n    return c;\r\n  }\r\n   function tokenBalance() public view onlyOwner() returns (uint256)  {\r\n    return TokenContract.balanceOf(address(this));\r\n  }\r\n  function buy(uint256 amount) public payable {\r\n        require(amount > 0, \"You need to sell at least some tokens\");\r\n        // al llamar la funcion original de transferencia tenemos que indicar la cantidad con los ceros de los decimales.\r\n        uint256 amountwithzeros = mul(amount, uint256(10) ** TokenContract.decimals());\r\n        // comprobamos que el contrato de venta tenga los tokens que se desean comprar.\r\n        require(TokenContract.balanceOf(address(this)) >= amountwithzeros, \"el contrato de venta no tiene tokens\"); //address(this) direccion de nuestro contrato\r\n        //tambien necesitamos saber q el comprador tiene los tokens con los q va pagar USDT \r\n        require(usdt.getBalanceOf(msg.sender) >= amountwithzeros, \"el comprador no tiene suficientes USDT\"); \r\n        //aprobamos los tokens \r\n    //    usdt.approve(address(this), amountwithzeros);\r\n        //ahora aprobamos q el contrato pueda usar el transfrom\r\n        uint256 allowance = usdt.getAllowance(msg.sender, address(this));\r\n        //preguntamos q tenga tokens usdt\r\n        require(allowance >= amountwithzeros, \"Check the token allowance\");\r\n        //transferimos los usdt para pagar \r\n        usdt.transferFrom(msg.sender, address(this), amountwithzeros); //aqui envio los usdt a la cuenta mia \r\n        // realizamos la transferencia con un require por mayor seguridad. transferimos los fintusd \r\n        require(TokenContract.transfer(msg.sender, amountwithzeros), \"fallo la transferencia \"); // introducimos la cantidad escalada.\r\n         // sumamos la venta.\r\n        tokensSold += amount; // fjese, que usamos la cantidad sin la suma de los ceros de los decimales.\r\n        transaction[transactionCount] = Transaction(msg.sender, amount);\r\n        transactionCount++;\r\n        emit tokenVendidos(msg.sender, amount);\r\n    }\r\n\r\n    function sell(uint256 amount) public {\r\n      require(amount > 0, \"You need to sell at least some tokens\");\r\n      \r\n      // al llamar la funcion original de transferencia tenemos que indicar la cantidad con los ceros de los decimales.\r\n      uint256 amountwithzeros = mul(amount, uint256(10) ** TokenContract.decimals());\r\n        require(TokenContract.getVesting(msg.sender) == false, \"no puede transferir porque tiene vesting \");\r\n       // comprobamos que la direccion donde enviamos los tokens usdt tenga los tokens que se desean cambiar osea los usdt.\r\n        require(usdt.getBalanceOf(address(this)) >= amountwithzeros, \"el contrato de venta no tiene tokens\"); //address(this) direccion de nuestro contrato\r\n        //tambien necesitamos saber q el comprador tiene los tokens con los q va pagar FintUsd \r\n        require(TokenContract.getBalanceOf(msg.sender) >= amountwithzeros, \"el comprador no tiene suficientes FintUsd\"); \r\n        //ahora verificamos  q el contrato pueda transferir los fintusd del usuario  \r\n        uint256 allowance = TokenContract.getAllowance(msg.sender, address(this));\r\n        //preguntamos q tenga tokens fintusd\r\n        require(allowance >= amountwithzeros, \"Check the token allowance fintusd\");\r\n        //transferimos los FintUsd para pagar \r\n        TokenContract.transferFrom(msg.sender, address(this), amountwithzeros); //aqui envio los usdt a la cuenta del contrato de venta\r\n        // realizamos la transferencia con un require por mayor seguridad. transferimos los Usdt del contrato \r\n        require(usdt.transfer(msg.sender, amountwithzeros), \"fallo la transferencia de usdt del contrato hacia ti \"); // introducimos la cantidad escalada.\r\n        tokensBuy += amount; // fjese, que usamos la cantidad sin la suma de los ceros de los decimales.\r\n        transaction[transactionCount] = Transaction(msg.sender, amount);\r\n        transactionCount++;\r\n        emit tokenComprados(msg.sender, amount);\r\n  }\r\n\r\n  function transferUsdtTo(address _to, uint256 _value) public returns (bool success){\r\n        uint256 amountwithzeros = mul(_value, uint256(10) ** TokenContract.decimals());\r\n        require(usdt.getBalanceOf(address(this)) >= amountwithzeros, \"el contrato de venta no tiene tokens\"); //address(this) direccion de nuestro contrato\r\n        require(usdt.transfer(_to, amountwithzeros), \"fallo la transferencia \"); // introducimos la cantidad escalada.\r\n        return true; //retornamos true \r\n    }\r\n\r\n    function transferUsdtFrom(address _from, address _to, uint256 _value) public returns (bool success){\r\n        uint256 amountwithzeros = mul(_value, uint256(10) ** TokenContract.decimals());\r\n        usdt.transferFrom(_from, _to, amountwithzeros); //aqui envio los usdt a la cuenta mia \r\n        return true; //retornamos true \r\n    }\r\n\r\n\r\n    function endSale() public {\r\n        require(msg.sender == owner);\r\n        // Return the tokens that were left inside of the sale contract\r\n        uint256 amount = TokenContract.balanceOf(address(this));\r\n        require(TokenContract.transfer(owner, amount));\r\n     //   selfdestruct(payable(owner));\r\n    }\r\n}",
  "sourcePath": "D:\\Trabajo Programador\\Nacho Forobeta Argentina\\Dashboard token inversion\\frontend\\quasar-admin\\contracts\\tokenFintUsdSale.sol",
  "compiler": {
    "name": "solc",
    "version": "0.8.11+commit.d7f03943.Emscripten.clang"
  },
  "schemaVersion": "3.4.6",
  "updatedAt": "2022-03-16T14:06:58.370Z",
  "networkType": "ethereum",
  "devdoc": {
    "kind": "dev",
    "methods": {},
    "version": 1
  },
  "userdoc": {
    "kind": "user",
    "methods": {},
    "version": 1
  }
}