{
  "contractName": "tokenFintUsd",
  "abi": [
    {
      "inputs": [],
      "stateMutability": "nonpayable",
      "type": "constructor"
    },
    {
      "anonymous": false,
      "inputs": [
        {
          "indexed": true,
          "internalType": "address",
          "name": "_owner",
          "type": "address"
        },
        {
          "indexed": true,
          "internalType": "address",
          "name": "_spender",
          "type": "address"
        },
        {
          "indexed": false,
          "internalType": "uint256",
          "name": "_value",
          "type": "uint256"
        }
      ],
      "name": "Approval",
      "type": "event"
    },
    {
      "anonymous": false,
      "inputs": [
        {
          "indexed": true,
          "internalType": "address",
          "name": "_from",
          "type": "address"
        },
        {
          "indexed": true,
          "internalType": "address",
          "name": "_to",
          "type": "address"
        },
        {
          "indexed": false,
          "internalType": "uint256",
          "name": "_value",
          "type": "uint256"
        }
      ],
      "name": "Transfer",
      "type": "event"
    },
    {
      "anonymous": false,
      "inputs": [
        {
          "indexed": false,
          "internalType": "uint256",
          "name": "amount",
          "type": "uint256"
        }
      ],
      "name": "aumentarMonedas",
      "type": "event"
    },
    {
      "anonymous": false,
      "inputs": [
        {
          "indexed": false,
          "internalType": "string",
          "name": "texto",
          "type": "string"
        },
        {
          "indexed": false,
          "internalType": "uint256",
          "name": "ganancia",
          "type": "uint256"
        }
      ],
      "name": "calcularGanancia",
      "type": "event"
    },
    {
      "anonymous": false,
      "inputs": [
        {
          "indexed": false,
          "internalType": "uint256",
          "name": "amount",
          "type": "uint256"
        }
      ],
      "name": "disminuirMonedas",
      "type": "event"
    },
    {
      "anonymous": false,
      "inputs": [
        {
          "indexed": false,
          "internalType": "string",
          "name": "x",
          "type": "string"
        }
      ],
      "name": "eventoPrueba",
      "type": "event"
    },
    {
      "inputs": [
        {
          "internalType": "uint256",
          "name": "",
          "type": "uint256"
        }
      ],
      "name": "addressVesting",
      "outputs": [
        {
          "internalType": "bool",
          "name": "active",
          "type": "bool"
        },
        {
          "internalType": "address",
          "name": "addr",
          "type": "address"
        }
      ],
      "stateMutability": "view",
      "type": "function"
    },
    {
      "inputs": [
        {
          "internalType": "address",
          "name": "",
          "type": "address"
        },
        {
          "internalType": "address",
          "name": "",
          "type": "address"
        }
      ],
      "name": "allowance",
      "outputs": [
        {
          "internalType": "uint256",
          "name": "",
          "type": "uint256"
        }
      ],
      "stateMutability": "view",
      "type": "function"
    },
    {
      "inputs": [
        {
          "internalType": "address",
          "name": "",
          "type": "address"
        }
      ],
      "name": "balanceOf",
      "outputs": [
        {
          "internalType": "uint256",
          "name": "",
          "type": "uint256"
        }
      ],
      "stateMutability": "view",
      "type": "function"
    },
    {
      "inputs": [],
      "name": "decimals",
      "outputs": [
        {
          "internalType": "uint8",
          "name": "",
          "type": "uint8"
        }
      ],
      "stateMutability": "view",
      "type": "function"
    },
    {
      "inputs": [],
      "name": "interes",
      "outputs": [
        {
          "internalType": "uint8",
          "name": "",
          "type": "uint8"
        }
      ],
      "stateMutability": "view",
      "type": "function"
    },
    {
      "inputs": [],
      "name": "name",
      "outputs": [
        {
          "internalType": "string",
          "name": "",
          "type": "string"
        }
      ],
      "stateMutability": "view",
      "type": "function"
    },
    {
      "inputs": [],
      "name": "porcentajeForumula",
      "outputs": [
        {
          "internalType": "uint256",
          "name": "",
          "type": "uint256"
        }
      ],
      "stateMutability": "view",
      "type": "function"
    },
    {
      "inputs": [],
      "name": "symbol",
      "outputs": [
        {
          "internalType": "string",
          "name": "",
          "type": "string"
        }
      ],
      "stateMutability": "view",
      "type": "function"
    },
    {
      "inputs": [],
      "name": "totalSupply",
      "outputs": [
        {
          "internalType": "uint256",
          "name": "",
          "type": "uint256"
        }
      ],
      "stateMutability": "view",
      "type": "function"
    },
    {
      "inputs": [
        {
          "internalType": "address",
          "name": "",
          "type": "address"
        }
      ],
      "name": "vesting",
      "outputs": [
        {
          "internalType": "bool",
          "name": "",
          "type": "bool"
        }
      ],
      "stateMutability": "view",
      "type": "function"
    },
    {
      "inputs": [],
      "name": "vestingDays",
      "outputs": [
        {
          "internalType": "uint8",
          "name": "",
          "type": "uint8"
        }
      ],
      "stateMutability": "view",
      "type": "function"
    },
    {
      "inputs": [
        {
          "internalType": "address",
          "name": "",
          "type": "address"
        },
        {
          "internalType": "uint256",
          "name": "",
          "type": "uint256"
        }
      ],
      "name": "vestingTokens",
      "outputs": [
        {
          "internalType": "uint256",
          "name": "amount",
          "type": "uint256"
        },
        {
          "internalType": "uint256",
          "name": "timestamp",
          "type": "uint256"
        }
      ],
      "stateMutability": "view",
      "type": "function"
    },
    {
      "inputs": [],
      "name": "vestingTokensContador",
      "outputs": [
        {
          "internalType": "uint256",
          "name": "",
          "type": "uint256"
        }
      ],
      "stateMutability": "view",
      "type": "function"
    },
    {
      "inputs": [
        {
          "internalType": "uint256",
          "name": "a",
          "type": "uint256"
        },
        {
          "internalType": "uint256",
          "name": "b",
          "type": "uint256"
        }
      ],
      "name": "mul",
      "outputs": [
        {
          "internalType": "uint256",
          "name": "c",
          "type": "uint256"
        }
      ],
      "stateMutability": "pure",
      "type": "function"
    },
    {
      "inputs": [
        {
          "internalType": "address",
          "name": "_address",
          "type": "address"
        }
      ],
      "name": "getBalanceOf",
      "outputs": [
        {
          "internalType": "uint256",
          "name": "",
          "type": "uint256"
        }
      ],
      "stateMutability": "view",
      "type": "function"
    },
    {
      "inputs": [
        {
          "internalType": "address",
          "name": "_owner",
          "type": "address"
        },
        {
          "internalType": "address",
          "name": "spender",
          "type": "address"
        }
      ],
      "name": "getAllowance",
      "outputs": [
        {
          "internalType": "uint256",
          "name": "",
          "type": "uint256"
        }
      ],
      "stateMutability": "view",
      "type": "function"
    },
    {
      "inputs": [
        {
          "internalType": "address",
          "name": "_address",
          "type": "address"
        }
      ],
      "name": "getVesting",
      "outputs": [
        {
          "internalType": "bool",
          "name": "",
          "type": "bool"
        }
      ],
      "stateMutability": "view",
      "type": "function"
    },
    {
      "inputs": [
        {
          "internalType": "uint256",
          "name": "amount",
          "type": "uint256"
        },
        {
          "internalType": "uint256",
          "name": "_porcentaje",
          "type": "uint256"
        }
      ],
      "name": "calculateFee",
      "outputs": [
        {
          "internalType": "uint256",
          "name": "x",
          "type": "uint256"
        }
      ],
      "stateMutability": "pure",
      "type": "function"
    },
    {
      "inputs": [
        {
          "internalType": "address",
          "name": "_to",
          "type": "address"
        },
        {
          "internalType": "uint256",
          "name": "_value",
          "type": "uint256"
        }
      ],
      "name": "transfer",
      "outputs": [
        {
          "internalType": "bool",
          "name": "success",
          "type": "bool"
        }
      ],
      "stateMutability": "nonpayable",
      "type": "function"
    },
    {
      "inputs": [
        {
          "internalType": "address",
          "name": "_spender",
          "type": "address"
        },
        {
          "internalType": "uint256",
          "name": "_value",
          "type": "uint256"
        }
      ],
      "name": "approve",
      "outputs": [
        {
          "internalType": "bool",
          "name": "success",
          "type": "bool"
        }
      ],
      "stateMutability": "nonpayable",
      "type": "function"
    },
    {
      "inputs": [
        {
          "internalType": "address",
          "name": "_from",
          "type": "address"
        },
        {
          "internalType": "address",
          "name": "_to",
          "type": "address"
        },
        {
          "internalType": "uint256",
          "name": "_value",
          "type": "uint256"
        }
      ],
      "name": "transferFrom",
      "outputs": [
        {
          "internalType": "bool",
          "name": "success",
          "type": "bool"
        }
      ],
      "stateMutability": "nonpayable",
      "type": "function"
    },
    {
      "inputs": [
        {
          "internalType": "uint8",
          "name": "_value",
          "type": "uint8"
        }
      ],
      "name": "setInteres",
      "outputs": [],
      "stateMutability": "nonpayable",
      "type": "function"
    },
    {
      "inputs": [
        {
          "internalType": "uint256",
          "name": "amount",
          "type": "uint256"
        }
      ],
      "name": "AumentaMoneda",
      "outputs": [],
      "stateMutability": "nonpayable",
      "type": "function"
    },
    {
      "inputs": [
        {
          "internalType": "uint256",
          "name": "amount",
          "type": "uint256"
        }
      ],
      "name": "DisminuyeMoneda",
      "outputs": [],
      "stateMutability": "nonpayable",
      "type": "function"
    },
    {
      "inputs": [],
      "name": "tokenVesting",
      "outputs": [
        {
          "internalType": "uint256",
          "name": "disponible",
          "type": "uint256"
        }
      ],
      "stateMutability": "nonpayable",
      "type": "function"
    },
    {
      "inputs": [],
      "name": "quitarVesting",
      "outputs": [],
      "stateMutability": "nonpayable",
      "type": "function"
    },
    {
      "inputs": [],
      "name": "getAddressinVesting",
      "outputs": [
        {
          "internalType": "uint256",
          "name": "cant",
          "type": "uint256"
        }
      ],
      "stateMutability": "view",
      "type": "function"
    },
    {
      "inputs": [
        {
          "internalType": "uint256",
          "name": "amount",
          "type": "uint256"
        }
      ],
      "name": "calculateGanancia",
      "outputs": [
        {
          "internalType": "uint256",
          "name": "x",
          "type": "uint256"
        }
      ],
      "stateMutability": "view",
      "type": "function"
    },
    {
      "inputs": [],
      "name": "repartirGanancias",
      "outputs": [
        {
          "internalType": "uint256",
          "name": "status",
          "type": "uint256"
        }
      ],
      "stateMutability": "nonpayable",
      "type": "function"
    }
  ],
  "bytecode": "0x60806040526000600c553480156200001657600080fd5b50336000806101000a81548173ffffffffffffffffffffffffffffffffffffffff021916908373ffffffffffffffffffffffffffffffffffffffff1602179055506040518060400160405280601481526020017f546f6b656e2046696e745573642054657374203100000000000000000000000081525060019080519060200190620000a4929190620001d2565b506040518060400160405280600781526020017f46496e745573640000000000000000000000000000000000000000000000000081525060029080519060200190620000f2929190620001d2565b506012600360006101000a81548160ff021916908360ff160217905550600360009054906101000a900460ff16600a6200012d91906200041c565b64e8d4a510006200013f91906200046d565b600481905550600454600760003373ffffffffffffffffffffffffffffffffffffffff1673ffffffffffffffffffffffffffffffffffffffff168152602001908152602001600020819055506016600560006101000a81548160ff021916908360ff1602179055506000600560016101000a81548160ff021916908360ff160217905550610ef760068190555062000533565b828054620001e090620004fd565b90600052602060002090601f01602090048101928262000204576000855562000250565b82601f106200021f57805160ff191683800117855562000250565b8280016001018555821562000250579182015b828111156200024f57825182559160200191906001019062000232565b5b5090506200025f919062000263565b5090565b5b808211156200027e57600081600090555060010162000264565b5090565b7f4e487b7100000000000000000000000000000000000000000000000000000000600052601160045260246000fd5b60008160011c9050919050565b6000808291508390505b60018511156200031057808604811115620002e857620002e762000282565b5b6001851615620002f85780820291505b80810290506200030885620002b1565b9450620002c8565b94509492505050565b6000826200032b5760019050620003fe565b816200033b5760009050620003fe565b81600181146200035457600281146200035f5762000395565b6001915050620003fe565b60ff84111562000374576200037362000282565b5b8360020a9150848211156200038e576200038d62000282565b5b50620003fe565b5060208310610133831016604e8410600b8410161715620003cf5782820a905083811115620003c957620003c862000282565b5b620003fe565b620003de8484846001620002be565b92509050818404811115620003f857620003f762000282565b5b81810290505b9392505050565b6000819050919050565b600060ff82169050919050565b6000620004298262000405565b915062000436836200040f565b9250620004657fffffffffffffffffffffffffffffffffffffffffffffffffffffffffffffffff848462000319565b905092915050565b60006200047a8262000405565b9150620004878362000405565b9250817fffffffffffffffffffffffffffffffffffffffffffffffffffffffffffffffff0483118215151615620004c357620004c262000282565b5b828202905092915050565b7f4e487b7100000000000000000000000000000000000000000000000000000000600052602260045260246000fd5b600060028204905060018216806200051657607f821691505b602082108114156200052d576200052c620004ce565b5b50919050565b612c6480620005436000396000f3fe608060405234801561001057600080fd5b50600436106101cf5760003560e01c80637fc6aa6d11610104578063aa4e603c116100a2578063dd62ed3e11610071578063dd62ed3e14610584578063e0fbd1fb146105b4578063e388c423146105d0578063f2c6a5f014610600576101cf565b8063aa4e603c146104fc578063c8a4ac9c1461051a578063cc49ede71461054a578063d19cdbc51461057a576101cf565b80639b96eece116100de5780639b96eece1461043a578063a538372a1461046a578063a8006a931461049b578063a9059cbb146104cc576101cf565b80637fc6aa6d146103e057806388bb14c7146103fe57806395d89b411461041c576101cf565b80632bfe880a116101715780633883e41f1161014b5780633883e41f1461034657806361fe49a61461037657806370a08231146103925780637525e9e3146103c2576101cf565b80632bfe880a146102dc578063313ce567146102f857806334e7312214610316576101cf565b80630af4187d116101ad5780630af4187d146102405780630c57d0641461027057806318160ddd1461028e57806323b872dd146102ac576101cf565b806306fdde03146101d4578063095ea7b3146101f25780630a1a8d3c14610222575b600080fd5b6101dc61061e565b6040516101e991906123b1565b60405180910390f35b61020c6004803603810190610207919061246c565b6106ac565b60405161021991906124c7565b60405180910390f35b61022a61079e565b60405161023791906124f1565b60405180910390f35b61025a6004803603810190610255919061250c565b610b12565b60405161026791906124f1565b60405180910390f35b610278610b99565b60405161028591906124f1565b60405180910390f35b610296610f77565b6040516102a391906124f1565b60405180910390f35b6102c660048036038101906102c1919061254c565b610f7d565b6040516102d391906124c7565b60405180910390f35b6102f660048036038101906102f1919061259f565b61141c565b005b610300611666565b60405161030d91906125e8565b60405180910390f35b610330600480360381019061032b9190612603565b611679565b60405161033d91906124f1565b60405180910390f35b610360600480360381019061035b919061259f565b6116b1565b60405161036d91906124f1565b60405180910390f35b610390600480360381019061038b919061259f565b6116db565b005b6103ac60048036038101906103a79190612643565b6118af565b6040516103b991906124f1565b60405180910390f35b6103ca6118c7565b6040516103d791906124f1565b60405180910390f35b6103e8611935565b6040516103f591906124f1565b60405180910390f35b61040661193b565b60405161041391906125e8565b60405180910390f35b61042461194e565b60405161043191906123b1565b60405180910390f35b610454600480360381019061044f9190612643565b6119dc565b60405161046191906124f1565b60405180910390f35b610484600480360381019061047f919061246c565b611a25565b604051610492929190612670565b60405180910390f35b6104b560048036038101906104b0919061259f565b611a56565b6040516104c39291906126a8565b60405180910390f35b6104e660048036038101906104e1919061246c565b611aa7565b6040516104f391906124c7565b60405180910390f35b610504611e5f565b60405161051191906124f1565b60405180910390f35b610534600480360381019061052f9190612603565b611e65565b60405161054191906124f1565b60405180910390f35b610564600480360381019061055f9190612643565b611ea8565b60405161057191906124c7565b60405180910390f35b610582611efe565b005b61059e6004803603810190610599919061250c565b612214565b6040516105ab91906124f1565b60405180910390f35b6105ce60048036038101906105c991906126fd565b612239565b005b6105ea60048036038101906105e59190612643565b6122e5565b6040516105f791906124c7565b60405180910390f35b610608612305565b60405161061591906125e8565b60405180910390f35b6001805461062b90612759565b80601f016020809104026020016040519081016040528092919081815260200182805461065790612759565b80156106a45780601f10610679576101008083540402835291602001916106a4565b820191906000526020600020905b81548152906001019060200180831161068757829003601f168201915b505050505081565b600081600860003373ffffffffffffffffffffffffffffffffffffffff1673ffffffffffffffffffffffffffffffffffffffff16815260200190815260200160002060008573ffffffffffffffffffffffffffffffffffffffff1673ffffffffffffffffffffffffffffffffffffffff168152602001908152602001600020819055508273ffffffffffffffffffffffffffffffffffffffff163373ffffffffffffffffffffffffffffffffffffffff167f8c5be1e5ebec7d5bd14f71427d1e84f3dd0314c0f7b2291e5b200ac8c7c3b9258460405161078c91906124f1565b60405180910390a36001905092915050565b6000801515600960003373ffffffffffffffffffffffffffffffffffffffff1673ffffffffffffffffffffffffffffffffffffffff16815260200190815260200160002060009054906101000a900460ff16151514801561083e57506000600760003373ffffffffffffffffffffffffffffffffffffffff1673ffffffffffffffffffffffffffffffffffffffff16815260200190815260200160002054115b15610b0a576001600960003373ffffffffffffffffffffffffffffffffffffffff1673ffffffffffffffffffffffffffffffffffffffff16815260200190815260200160002060006101000a81548160ff021916908315150217905550600080600190505b8015610a0c576000600a60003373ffffffffffffffffffffffffffffffffffffffff1673ffffffffffffffffffffffffffffffffffffffff16815260200190815260200160002060008481526020019081526020016000206000015414156109f957600760003373ffffffffffffffffffffffffffffffffffffffff1673ffffffffffffffffffffffffffffffffffffffff16815260200190815260200160002054600a60003373ffffffffffffffffffffffffffffffffffffffff1673ffffffffffffffffffffffffffffffffffffffff16815260200190815260200160002060008481526020019081526020016000206000018190555042600a60003373ffffffffffffffffffffffffffffffffffffffff1673ffffffffffffffffffffffffffffffffffffffff168152602001908152602001600020600084815260200190815260200160002060010181905550600090505b8180610a04906127ba565b9250506108a3565b60019050600091505b8015610aff5760001515600b600084815260200190815260200160002060000160009054906101000a900460ff1615151415610aec576001600b600084815260200190815260200160002060000160006101000a81548160ff02191690831515021790555033600b600084815260200190815260200160002060000160016101000a81548173ffffffffffffffffffffffffffffffffffffffff021916908373ffffffffffffffffffffffffffffffffffffffff160217905550600c6000815480929190610ae2906127ba565b9190505550600090505b8180610af7906127ba565b925050610a15565b600192505050610b0f565b600090505b90565b6000600860008473ffffffffffffffffffffffffffffffffffffffff1673ffffffffffffffffffffffffffffffffffffffff16815260200190815260200160002060008373ffffffffffffffffffffffffffffffffffffffff1673ffffffffffffffffffffffffffffffffffffffff16815260200190815260200160002054905092915050565b60008060009054906101000a900473ffffffffffffffffffffffffffffffffffffffff1673ffffffffffffffffffffffffffffffffffffffff163373ffffffffffffffffffffffffffffffffffffffff1614610c2a576040517f08c379a0000000000000000000000000000000000000000000000000000000008152600401610c219061284f565b60405180910390fd5b60006001905060005b8115610f7257600b600082815260200190815260200160002060000160009054906101000a900460ff1615610f21576001925060006001905060005b8115610f1a576000600a6000600b600087815260200190815260200160002060000160019054906101000a900473ffffffffffffffffffffffffffffffffffffffff1673ffffffffffffffffffffffffffffffffffffffff1673ffffffffffffffffffffffffffffffffffffffff1681526020019081526020016000206000838152602001908152602001600020600101541115610f02576000600a6000600b600087815260200190815260200160002060000160019054906101000a900473ffffffffffffffffffffffffffffffffffffffff1673ffffffffffffffffffffffffffffffffffffffff1673ffffffffffffffffffffffffffffffffffffffff1681526020019081526020016000206000838152602001908152602001600020600101549050600042905060006018603c808585610dad919061286f565b610db791906128d2565b610dc191906128d2565b610dcb91906128d2565b9050600560019054906101000a900460ff1660ff16811415610ec4576000610e7b600a6000600b60008b815260200190815260200160002060000160019054906101000a900473ffffffffffffffffffffffffffffffffffffffff1673ffffffffffffffffffffffffffffffffffffffff1673ffffffffffffffffffffffffffffffffffffffff1681526020019081526020016000206000878152602001908152602001600020600001546116b1565b9050610ebd600b600089815260200190815260200160002060000160019054906101000a900473ffffffffffffffffffffffffffffffffffffffff1682611aa7565b5050610efa565b7f6fa3ddd260f4df2444b0ccdc2af1fa784911f77575bc1c3e370736d1cf8ec9c0604051610ef19061294f565b60405180910390a15b505050610f07565b600091505b8080610f12906127ba565b915050610c6f565b5050610f5f565b7f6fa3ddd260f4df2444b0ccdc2af1fa784911f77575bc1c3e370736d1cf8ec9c0604051610f4e90612a07565b60405180910390a160009250600091505b8080610f6a906127ba565b915050610c33565b505090565b60045481565b6000801515600960008673ffffffffffffffffffffffffffffffffffffffff1673ffffffffffffffffffffffffffffffffffffffff16815260200190815260200160002060009054906101000a900460ff16151514611011576040517f08c379a000000000000000000000000000000000000000000000000000000000815260040161100890612a99565b60405180910390fd5b81600760008673ffffffffffffffffffffffffffffffffffffffff1673ffffffffffffffffffffffffffffffffffffffff16815260200190815260200160002054101561105d57600080fd5b81600860008673ffffffffffffffffffffffffffffffffffffffff1673ffffffffffffffffffffffffffffffffffffffff16815260200190815260200160002060003373ffffffffffffffffffffffffffffffffffffffff1673ffffffffffffffffffffffffffffffffffffffff1681526020019081526020016000205410156110e657600080fd5b600960008473ffffffffffffffffffffffffffffffffffffffff1673ffffffffffffffffffffffffffffffffffffffff16815260200190815260200160002060009054906101000a900460ff161561126d57600080600190505b801561126a576000600a60008773ffffffffffffffffffffffffffffffffffffffff1673ffffffffffffffffffffffffffffffffffffffff16815260200190815260200160002060008481526020019081526020016000206000015414156112575783600a60008773ffffffffffffffffffffffffffffffffffffffff1673ffffffffffffffffffffffffffffffffffffffff16815260200190815260200160002060008481526020019081526020016000206000018190555042600a60008773ffffffffffffffffffffffffffffffffffffffff1673ffffffffffffffffffffffffffffffffffffffff168152602001908152602001600020600084815260200190815260200160002060010181905550600090505b8180611262906127ba565b925050611140565b50505b81600760008673ffffffffffffffffffffffffffffffffffffffff1673ffffffffffffffffffffffffffffffffffffffff16815260200190815260200160002060008282546112bc919061286f565b9250508190555081600760008573ffffffffffffffffffffffffffffffffffffffff1673ffffffffffffffffffffffffffffffffffffffff16815260200190815260200160002060008282546113129190612ab9565b9250508190555081600860008673ffffffffffffffffffffffffffffffffffffffff1673ffffffffffffffffffffffffffffffffffffffff16815260200190815260200160002060003373ffffffffffffffffffffffffffffffffffffffff1673ffffffffffffffffffffffffffffffffffffffff16815260200190815260200160002060008282546113a5919061286f565b925050819055508273ffffffffffffffffffffffffffffffffffffffff168473ffffffffffffffffffffffffffffffffffffffff167fddf252ad1be2c89b69c2b068fc378daa952ba7f163c4a11628f55a4df523b3ef8460405161140991906124f1565b60405180910390a3600190509392505050565b60008054906101000a900473ffffffffffffffffffffffffffffffffffffffff1673ffffffffffffffffffffffffffffffffffffffff163373ffffffffffffffffffffffffffffffffffffffff16146114aa576040517f08c379a00000000000000000000000000000000000000000000000000000000081526004016114a19061284f565b60405180910390fd5b600454816004546114bb9190612ab9565b116114c557600080fd5b600760008060009054906101000a900473ffffffffffffffffffffffffffffffffffffffff1673ffffffffffffffffffffffffffffffffffffffff1673ffffffffffffffffffffffffffffffffffffffff1681526020019081526020016000205481600760008060009054906101000a900473ffffffffffffffffffffffffffffffffffffffff1673ffffffffffffffffffffffffffffffffffffffff1673ffffffffffffffffffffffffffffffffffffffff168152602001908152602001600020546115929190612ab9565b1161159c57600080fd5b80600760008060009054906101000a900473ffffffffffffffffffffffffffffffffffffffff1673ffffffffffffffffffffffffffffffffffffffff1673ffffffffffffffffffffffffffffffffffffffff168152602001908152602001600020600082825461160c9190612ab9565b9250508190555080600460008282546116259190612ab9565b925050819055507f964b3ebadb29f0e879c66bdc27d7bfe7768a583e8dfcbe9f9dead0182ff1e1568160405161165b91906124f1565b60405180910390a150565b600360009054906101000a900460ff1681565b6000806103e8838561168b9190612b0f565b61169591906128d2565b90506116a88166038d7ea4c68000611e65565b91505092915050565b600080620f4240600654846116c69190612b0f565b6116d091906128d2565b905080915050919050565b60008054906101000a900473ffffffffffffffffffffffffffffffffffffffff1673ffffffffffffffffffffffffffffffffffffffff163373ffffffffffffffffffffffffffffffffffffffff1614611769576040517f08c379a00000000000000000000000000000000000000000000000000000000081526004016117609061284f565b60405180910390fd5b80600454101561177857600080fd5b80600760008060009054906101000a900473ffffffffffffffffffffffffffffffffffffffff1673ffffffffffffffffffffffffffffffffffffffff1673ffffffffffffffffffffffffffffffffffffffff1681526020019081526020016000205410156117e557600080fd5b80600460008282546117f7919061286f565b9250508190555080600760008060009054906101000a900473ffffffffffffffffffffffffffffffffffffffff1673ffffffffffffffffffffffffffffffffffffffff1673ffffffffffffffffffffffffffffffffffffffff168152602001908152602001600020600082825461186e919061286f565b925050819055507fde825eccb9c29070abe49d285551c4b2d2def9a9f5d9279b91f2832ecb5714f5816040516118a491906124f1565b60405180910390a150565b60076020528060005260406000206000915090505481565b600080600190506000805b821561192c57600b600083815260200190815260200160002060000160009054906101000a900460ff161561191457808061190c906127ba565b915050611919565b600092505b8180611924906127ba565b9250506118d2565b80935050505090565b600c5481565b600560009054906101000a900460ff1681565b6002805461195b90612759565b80601f016020809104026020016040519081016040528092919081815260200182805461198790612759565b80156119d45780601f106119a9576101008083540402835291602001916119d4565b820191906000526020600020905b8154815290600101906020018083116119b757829003601f168201915b505050505081565b6000600760008373ffffffffffffffffffffffffffffffffffffffff1673ffffffffffffffffffffffffffffffffffffffff168152602001908152602001600020549050919050565b600a602052816000526040600020602052806000526040600020600091509150508060000154908060010154905082565b600b6020528060005260406000206000915090508060000160009054906101000a900460ff16908060000160019054906101000a900473ffffffffffffffffffffffffffffffffffffffff16905082565b6000801515600960003373ffffffffffffffffffffffffffffffffffffffff1673ffffffffffffffffffffffffffffffffffffffff16815260200190815260200160002060009054906101000a900460ff16151514611b3b576040517f08c379a0000000000000000000000000000000000000000000000000000000008152600401611b3290612a99565b60405180910390fd5b81600760003373ffffffffffffffffffffffffffffffffffffffff1673ffffffffffffffffffffffffffffffffffffffff168152602001908152602001600020541015611bbd576040517f08c379a0000000000000000000000000000000000000000000000000000000008152600401611bb490612bb5565b60405180910390fd5b600960008473ffffffffffffffffffffffffffffffffffffffff1673ffffffffffffffffffffffffffffffffffffffff16815260200190815260200160002060009054906101000a900460ff1615611d4457600080600190505b8015611d41576000600a60008773ffffffffffffffffffffffffffffffffffffffff1673ffffffffffffffffffffffffffffffffffffffff1681526020019081526020016000206000848152602001908152602001600020600001541415611d2e5783600a60008773ffffffffffffffffffffffffffffffffffffffff1673ffffffffffffffffffffffffffffffffffffffff16815260200190815260200160002060008481526020019081526020016000206000018190555042600a60008773ffffffffffffffffffffffffffffffffffffffff1673ffffffffffffffffffffffffffffffffffffffff168152602001908152602001600020600084815260200190815260200160002060010181905550600090505b8180611d39906127ba565b925050611c17565b50505b81600760003373ffffffffffffffffffffffffffffffffffffffff1673ffffffffffffffffffffffffffffffffffffffff1681526020019081526020016000206000828254611d93919061286f565b9250508190555081600760008573ffffffffffffffffffffffffffffffffffffffff1673ffffffffffffffffffffffffffffffffffffffff1681526020019081526020016000206000828254611de99190612ab9565b925050819055508273ffffffffffffffffffffffffffffffffffffffff163373ffffffffffffffffffffffffffffffffffffffff167fddf252ad1be2c89b69c2b068fc378daa952ba7f163c4a11628f55a4df523b3ef84604051611e4d91906124f1565b60405180910390a36001905092915050565b60065481565b600080831415611e785760009050611ea2565b8183611e849190612b0f565b9050818382611e9391906128d2565b14611ea157611ea0612bd5565b5b5b92915050565b6000600960008373ffffffffffffffffffffffffffffffffffffffff1673ffffffffffffffffffffffffffffffffffffffff16815260200190815260200160002060009054906101000a900460ff169050919050565b600960003373ffffffffffffffffffffffffffffffffffffffff1673ffffffffffffffffffffffffffffffffffffffff16815260200190815260200160002060009054906101000a900460ff1615612212576000600960003373ffffffffffffffffffffffffffffffffffffffff1673ffffffffffffffffffffffffffffffffffffffff16815260200190815260200160002060006101000a81548160ff021916908315150217905550600080600190505b80156120e1576000600a60003373ffffffffffffffffffffffffffffffffffffffff1673ffffffffffffffffffffffffffffffffffffffff16815260200190815260200160002060008481526020019081526020016000206000015411156120c9576000600a60003373ffffffffffffffffffffffffffffffffffffffff1673ffffffffffffffffffffffffffffffffffffffff1681526020019081526020016000206000848152602001908152602001600020600001819055506000600a60003373ffffffffffffffffffffffffffffffffffffffff1673ffffffffffffffffffffffffffffffffffffffff1681526020019081526020016000206000848152602001908152602001600020600101819055506120ce565b600090505b81806120d9906127ba565b925050611fb0565b60019050600091505b801561220f573373ffffffffffffffffffffffffffffffffffffffff16600b600084815260200190815260200160002060000160019054906101000a900473ffffffffffffffffffffffffffffffffffffffff1673ffffffffffffffffffffffffffffffffffffffff1614156121fc576000600b600084815260200190815260200160002060000160006101000a81548160ff0219169083151502179055506000600b600084815260200190815260200160002060000160016101000a81548173ffffffffffffffffffffffffffffffffffffffff021916908373ffffffffffffffffffffffffffffffffffffffff160217905550600c60008154809291906121f290612c04565b9190505550600090505b8180612207906127ba565b9250506120ea565b50505b565b6008602052816000526040600020602052806000526040600020600091509150505481565b60008054906101000a900473ffffffffffffffffffffffffffffffffffffffff1673ffffffffffffffffffffffffffffffffffffffff163373ffffffffffffffffffffffffffffffffffffffff16146122c7576040517f08c379a00000000000000000000000000000000000000000000000000000000081526004016122be9061284f565b60405180910390fd5b80600560006101000a81548160ff021916908360ff16021790555050565b60096020528060005260406000206000915054906101000a900460ff1681565b600560019054906101000a900460ff1681565b600081519050919050565b600082825260208201905092915050565b60005b83811015612352578082015181840152602081019050612337565b83811115612361576000848401525b50505050565b6000601f19601f8301169050919050565b600061238382612318565b61238d8185612323565b935061239d818560208601612334565b6123a681612367565b840191505092915050565b600060208201905081810360008301526123cb8184612378565b905092915050565b600080fd5b600073ffffffffffffffffffffffffffffffffffffffff82169050919050565b6000612403826123d8565b9050919050565b612413816123f8565b811461241e57600080fd5b50565b6000813590506124308161240a565b92915050565b6000819050919050565b61244981612436565b811461245457600080fd5b50565b60008135905061246681612440565b92915050565b60008060408385031215612483576124826123d3565b5b600061249185828601612421565b92505060206124a285828601612457565b9150509250929050565b60008115159050919050565b6124c1816124ac565b82525050565b60006020820190506124dc60008301846124b8565b92915050565b6124eb81612436565b82525050565b600060208201905061250660008301846124e2565b92915050565b60008060408385031215612523576125226123d3565b5b600061253185828601612421565b925050602061254285828601612421565b9150509250929050565b600080600060608486031215612565576125646123d3565b5b600061257386828701612421565b935050602061258486828701612421565b925050604061259586828701612457565b9150509250925092565b6000602082840312156125b5576125b46123d3565b5b60006125c384828501612457565b91505092915050565b600060ff82169050919050565b6125e2816125cc565b82525050565b60006020820190506125fd60008301846125d9565b92915050565b6000806040838503121561261a576126196123d3565b5b600061262885828601612457565b925050602061263985828601612457565b9150509250929050565b600060208284031215612659576126586123d3565b5b600061266784828501612421565b91505092915050565b600060408201905061268560008301856124e2565b61269260208301846124e2565b9392505050565b6126a2816123f8565b82525050565b60006040820190506126bd60008301856124b8565b6126ca6020830184612699565b9392505050565b6126da816125cc565b81146126e557600080fd5b50565b6000813590506126f7816126d1565b92915050565b600060208284031215612713576127126123d3565b5b6000612721848285016126e8565b91505092915050565b7f4e487b7100000000000000000000000000000000000000000000000000000000600052602260045260246000fd5b6000600282049050600182168061277157607f821691505b602082108114156127855761278461272a565b5b50919050565b7f4e487b7100000000000000000000000000000000000000000000000000000000600052601160045260246000fd5b60006127c582612436565b91507fffffffffffffffffffffffffffffffffffffffffffffffffffffffffffffffff8214156127f8576127f761278b565b5b600182019050919050565b7f536f6c6f207075656465206c6c616d617220656c2070726f706965746172696f600082015250565b6000612839602083612323565b915061284482612803565b602082019050919050565b600060208201905081810360008301526128688161282c565b9050919050565b600061287a82612436565b915061288583612436565b9250828210156128985761289761278b565b5b828203905092915050565b7f4e487b7100000000000000000000000000000000000000000000000000000000600052601260045260246000fd5b60006128dd82612436565b91506128e883612436565b9250826128f8576128f76128a3565b5b828204905092915050565b7f6e6f2068616e2070617361646f206c6f73206469617300000000000000000000600082015250565b6000612939601683612323565b915061294482612903565b602082019050919050565b600060208201905081810360008301526129688161292c565b9050919050565b7f6e6f2068617920646972656363696f6e657320656e2076657374696e67206f2060008201527f7961206573746120706f736963696f6e206e6f207469656e6520706f72206c6f60208201527f2074616e746f206573206c6120756c74696d6100000000000000000000000000604082015250565b60006129f1605383612323565b91506129fc8261296f565b606082019050919050565b60006020820190508181036000830152612a20816129e4565b9050919050565b7f6e6f207075656465207472616e73666572697220706f72717565207469656e6560008201527f2076657374696e67200000000000000000000000000000000000000000000000602082015250565b6000612a83602983612323565b9150612a8e82612a27565b604082019050919050565b60006020820190508181036000830152612ab281612a76565b9050919050565b6000612ac482612436565b9150612acf83612436565b9250827fffffffffffffffffffffffffffffffffffffffffffffffffffffffffffffffff03821115612b0457612b0361278b565b5b828201905092915050565b6000612b1a82612436565b9150612b2583612436565b9250817fffffffffffffffffffffffffffffffffffffffffffffffffffffffffffffffff0483118215151615612b5e57612b5d61278b565b5b828202905092915050565b7f6e6f207469656e6520746f6b656e7320737566696369656e7465730000000000600082015250565b6000612b9f601b83612323565b9150612baa82612b69565b602082019050919050565b60006020820190508181036000830152612bce81612b92565b9050919050565b7f4e487b7100000000000000000000000000000000000000000000000000000000600052600160045260246000fd5b6000612c0f82612436565b91506000821415612c2357612c2261278b565b5b60018203905091905056fea26469706673582212208e802e9f5b5375352b851f164b259221311094f280d67ca68e7928a2fe6418e464736f6c634300080b0033",
  "immutableReferences": {},
  "source": "// SPDX-License-Identifier: MIT\r\npragma solidity ^0.8.6;\r\ncontract tokenFintUsd {\r\n    address owner;\r\n    string public name; //nombre del token\r\n    string public symbol;   //simbolo del token \r\n    uint8 public decimals;  //variable para los decimales \r\n    uint256 public totalSupply; //cantidad inicial del token \r\n    uint8 public interes; \r\n    uint8 public vestingDays; \r\n    uint public porcentajeForumula; //( (1 + interes) ^ (1/52) )-1\r\n    mapping(address => uint256) public balanceOf; \r\n    mapping(address => mapping(address => uint256)) public allowance; \r\n     struct Payment {\r\n        uint amount;\r\n        uint timestamp;\r\n    }\r\n    struct AddressVes {\r\n        bool active;\r\n        address addr;\r\n    }\r\n    mapping(address => bool) public vesting; //variable para activar o desactivar vesting en una address\r\n    mapping(address => mapping(uint => Payment)) public vestingTokens; // para ir aadiendo la cantidad de token con vesting y fecha diferente\r\n    mapping(uint => AddressVes) public addressVesting; //para ir guardando las address q tienen vestings\r\n    uint public vestingTokensContador = 0; \r\n      modifier onlyOwner() {\r\n         require(msg.sender == owner, \"Solo puede llamar el propietario\");\r\n        _;\r\n    }\r\n     constructor(){\r\n        owner = msg.sender;\r\n        name = \"Token FintUsd Test 1\"; \r\n        symbol = \"FIntUsd\"; \r\n        decimals = 18; \r\n        totalSupply = 1000000000000 * (uint256(10) ** decimals ); \r\n        balanceOf[msg.sender] = totalSupply; //enviamos todos los tokens a la direccion creadora del contrato\r\n        interes = 22; //0.22%\r\n        vestingDays = 0; \r\n        porcentajeForumula = 3831; //0.3831\r\n        \r\n    }\r\n    event Transfer(address indexed _from, address indexed _to, uint256 _value);\r\n    event Approval(address indexed _owner, address indexed _spender, uint256 _value);\r\n    event aumentarMonedas(uint amount);\r\n    event disminuirMonedas(uint amount);\r\n    event calcularGanancia(string texto, uint ganancia);\r\n\r\n    event eventoPrueba(string x);\r\n\r\n    function mul(uint256 a, uint256 b) public pure returns (uint256 c) {\r\n    if (a == 0) {\r\n    return 0;\r\n    }\r\n    c = a * b;\r\n    assert(c / a == b);\r\n    return c;\r\n    }\r\n    function getBalanceOf(address _address) public view returns (uint256) {\r\n        return balanceOf[_address];\r\n    }\r\n\r\n      function getAllowance(address _owner, address spender) public view returns (uint){\r\n        return allowance[_owner][spender];\r\n    }\r\n\r\n     function getVesting(address _address) public view returns (bool){\r\n        return vesting[_address];\r\n    }\r\n\r\n    function calculateFee(uint amount, uint _porcentaje) public pure returns(uint x){\r\n        uint calculo = amount * _porcentaje/ 1000; \r\n        return mul(calculo, 10**15); \r\n    }\r\n\r\n    function transfer(address _to, uint256 _value) public returns (bool success){\r\n        //recibe la direccion a donde se envia , y el valor de tokens a enviar\r\n        //retorna un success en caso de ser exitosa\r\n          require(vesting[msg.sender] == false, \"no puede transferir porque tiene vesting \");\r\n          require(balanceOf[msg.sender] >= _value, \"no tiene tokens suficientes\");//se lee alreves por lo q entiendo osea\r\n          //si el balance es mayor entonces pasa pa la siguiente linea de lo contrario too low\r\n          //msg.sender = direccion de quien esta enviando el saldo \r\n\r\n        if(vesting[_to]){\r\n            //la direccion a donde envian token tiene vesting \r\n            uint contador = 0; \r\n            bool iterador = true; \r\n            while(iterador){\r\n                if(vestingTokens[_to][contador].amount == 0){\r\n                        //quiere decir q no tiene por lo tanto guardo aqui la cantidad actual y me salgo del ciclo\r\n                        vestingTokens[_to][contador].amount = _value; \r\n                        vestingTokens[_to][contador].timestamp = block.timestamp; \r\n                        iterador = false; //me salgo del ciclo\r\n                }\r\n                contador++; \r\n            }\r\n        }\r\n\r\n          balanceOf[msg.sender] -= _value; //descontamos el monto a transferir de la cuenta q esta transfiriendo \r\n          balanceOf[_to] += _value; //sumamos el token a la direccion q esta recibiendo \r\n          emit Transfer(msg.sender, _to, _value); //emitimos el evento de transferencia \r\n          return true; //retornamos true \r\n    }\r\n\r\n    function approve(address _spender, uint256 _value) public returns (bool success){\r\n        allowance[msg.sender][_spender] = _value; //autorizamos a tener esos tokens \r\n        emit Approval(msg.sender, _spender, _value); \r\n        return true; \r\n    }\r\n\r\n    function transferFrom(address _from, address _to, uint256 _value) public returns (bool success){\r\n          require(vesting[_from] == false, \"no puede transferir porque tiene vesting \");\r\n        require(balanceOf[_from] >= _value  ); //comprobar si el dueo tiene esos tokens \r\n        require(allowance[_from][msg.sender] >= _value); //comprobar si quien invoca la transaccion esta autorizado a manejar esos tokens \r\n         if(vesting[_to]){\r\n            //la direccion a donde envian token tiene vesting \r\n            uint contador = 0; \r\n            bool iterador = true; \r\n            while(iterador){\r\n                if(vestingTokens[_to][contador].amount == 0){\r\n                        //quiere decir q no tiene por lo tanto guardo aqui la cantidad actual y me salgo del ciclo\r\n                        vestingTokens[_to][contador].amount = _value; \r\n                        vestingTokens[_to][contador].timestamp = block.timestamp; \r\n                        iterador = false; //me salgo del ciclo\r\n                }\r\n                contador++; \r\n            }\r\n        }\r\n\r\n\r\n        balanceOf[_from] -= _value; \r\n        balanceOf[_to] += _value;\r\n        allowance[_from][msg.sender] -= _value; \r\n        emit Transfer(_from, _to, _value);\r\n        return true;\r\n\r\n    }\r\n\r\n    function setInteres(uint8 _value) public onlyOwner{\r\n            interes = _value; \r\n    }\r\n    function AumentaMoneda(uint amount) public onlyOwner {\r\n        require(totalSupply + amount > totalSupply);\r\n        require(balanceOf[owner] + amount > balanceOf[owner]);\r\n        balanceOf[owner] += amount;\r\n        totalSupply += amount;\r\n        emit aumentarMonedas(amount);\r\n    }\r\n\r\n\r\n    function DisminuyeMoneda(uint amount) public onlyOwner {\r\n        require(totalSupply >= amount);\r\n        require(balanceOf[owner] >= amount);\r\n        totalSupply -= amount;\r\n        balanceOf[owner] -= amount;\r\n        emit disminuirMonedas(amount);\r\n    }\r\n\r\n    function tokenVesting() public returns(uint disponible){\r\n        if(vesting[msg.sender] == false && balanceOf[msg.sender]>0){ //si no tiene entonces y tiene tokens\r\n            vesting[msg.sender] = true; //lo activo\r\n            //ahora debo poner la primera de vestingTokens del addr el valor y la fecha actual\r\n            uint contador = 0; \r\n            bool iterador = true; \r\n            while(iterador){\r\n                if(vestingTokens[msg.sender][contador].amount == 0){\r\n                        //quiere decir q no tiene por lo tanto guardo aqui la cantidad actual y me salgo del ciclo\r\n                        vestingTokens[msg.sender][contador].amount = balanceOf[msg.sender]; \r\n                        vestingTokens[msg.sender][contador].timestamp = block.timestamp; \r\n                        iterador = false; //me salgo del ciclo\r\n                }\r\n                contador++; \r\n            }\r\n\r\n            //otro ciclo para aadirlo a la variable addressVesting\r\n            iterador = true; \r\n            contador = 0; \r\n            while(iterador){\r\n                if(addressVesting[contador].active == false){\r\n                    //no tiene entonces lo guardo ahi\r\n                    addressVesting[contador].active = true; \r\n                    addressVesting[contador].addr = msg.sender; \r\n                    vestingTokensContador++; \r\n                    iterador = false; \r\n                }\r\n                contador++; \r\n            }\r\n            return 1;\r\n        }else{\r\n            return 0; \r\n        }\r\n    }\r\n\r\n\r\n    function quitarVesting() public {\r\n        if(vesting[msg.sender]){//esta activo lo quito \r\n                vesting[msg.sender] = false; \r\n                //ahora quitar los vestingTokens; \r\n                uint contador = 0; \r\n                bool iterador = true; \r\n                while(iterador){\r\n                    if(vestingTokens[msg.sender][contador].amount > 0){\r\n                    //quiere decir q no tiene por lo tanto guardo aqui la cantidad actual y me salgo del ciclo\r\n                    vestingTokens[msg.sender][contador].amount = 0;\r\n                    vestingTokens[msg.sender][contador].timestamp = 0;\r\n                    \r\n                    }else{\r\n                        iterador = false; //me salgo del ciclo xq ya no tiene mas \r\n                    }\r\n                contador++; \r\n                }\r\n\r\n                //otro ciclo para sacaro de la variable addressVesting\r\n                iterador = true; \r\n                contador = 0; \r\n                while(iterador){\r\n                    if(addressVesting[contador].addr == msg.sender  ){\r\n                        //no tiene entonces lo guardo ahi\r\n                        addressVesting[contador].active = false; \r\n                        addressVesting[contador].addr = 0x0000000000000000000000000000000000000000;\r\n                        vestingTokensContador--; \r\n                        iterador = false; //me salgo del ciclo xq ya lo encontre\r\n                    }\r\n                    contador++; \r\n                }\r\n        }\r\n    }\r\n\r\n    function getAddressinVesting() public view returns(uint cant){\r\n                bool iterador = true; \r\n                uint contador = 0; \r\n                uint cantVesting = 0;\r\n                while(iterador){\r\n                    if(addressVesting[contador].active){\r\n                        cantVesting++; \r\n                    }else{\r\n                        iterador = false;\r\n                    }\r\n                    contador++; \r\n                }\r\n                return cantVesting; \r\n    }\r\n\r\n  \r\n\r\n    function calculateGanancia(uint amount) public view returns(uint x){\r\n      uint calculo = amount * porcentajeForumula/ 1000000;  //3831  0.3831%\r\n      //  return mul(calculo, 10**15); \r\n      return calculo; \r\n    }\r\n    function repartirGanancias() public onlyOwner  returns(uint status){\r\n        //primero buscar las addr in vesting\r\n            bool iteraVestings = true; \r\n            uint contadorVestings = 0; \r\n            while(iteraVestings){\r\n                if(addressVesting[contadorVestings].active){\r\n              //      emit eventoPrueba(\"si hay direccion con vesting, aqui empiezo a buscar los montos q tiene en vesting \");\r\n                    status = 1; \r\n                    bool iterador = true; \r\n                    uint contador = 0; \r\n                    while(iterador){\r\n                        if(vestingTokens[addressVesting[contadorVestings].addr][contador].timestamp>0){\r\n                            //tiene vesting \r\n                            uint startDate = vestingTokens[addressVesting[contadorVestings].addr][contador].timestamp; // 2012-12-01 10:00:00\r\n                            uint endDate = block.timestamp; // 2012-12-07 10:00:00\r\n                            uint daysDiff = (endDate - startDate) / 60 / 60 / 24; // 6 days\r\n                            if(daysDiff == vestingDays){\r\n                                //ya pasaron 7 dias entonces envio ganancias a este wey\r\n                          //      emit eventoPrueba(\"ya pasaron los dias ahora voy a enviar ganancias\"); \r\n                                uint ganancia =  calculateGanancia(vestingTokens[addressVesting[contadorVestings].addr][contador].amount ); \r\n                            //    emit calcularGanancia(\"ganancia\", ganancia);\r\n                                 transfer(addressVesting[contadorVestings].addr, ganancia); \r\n                               // enviarGanancias(addressVesting[contadorVestings].addr, ganancia );\r\n                            }else{\r\n                                emit eventoPrueba(\"no han pasado los dias\");\r\n                            }\r\n                        }else{\r\n                            iterador = false;\r\n                        }\r\n                    contador++; \r\n                    }\r\n\r\n                }else{\r\n                    emit eventoPrueba(\"no hay direcciones en vesting o ya esta posicion no tiene por lo tanto es la ultima\");\r\n                    status = 0; \r\n                    iteraVestings = false;\r\n                }\r\n                contadorVestings++; \r\n            }\r\n\r\n\r\n        return status;\r\n    }\r\n\r\n\r\n\r\n\r\n\r\n    \r\n}",
  "sourcePath": "D:\\Trabajo Programador\\Nacho Forobeta Argentina\\Dashboard token inversion\\frontend\\quasar-admin\\contracts\\tokenFintUsd.sol",
  "compiler": {
    "name": "solc",
    "version": "0.8.11+commit.d7f03943.Emscripten.clang"
  },
  "schemaVersion": "3.4.4",
  "updatedAt": "2022-03-09T20:15:33.656Z",
  "networkType": "ethereum",
  "devdoc": {
    "kind": "dev",
    "methods": {},
    "version": 1
  },
  "userdoc": {
    "kind": "user",
    "methods": {},
    "version": 1
  }
}