{
  "contractName": "tokenUsdt_hector_test1",
  "abi": [
    {
      "inputs": [],
      "stateMutability": "nonpayable",
      "type": "constructor"
    },
    {
      "anonymous": false,
      "inputs": [
        {
          "indexed": true,
          "internalType": "address",
          "name": "_owner",
          "type": "address"
        },
        {
          "indexed": true,
          "internalType": "address",
          "name": "_spender",
          "type": "address"
        },
        {
          "indexed": false,
          "internalType": "uint256",
          "name": "_value",
          "type": "uint256"
        }
      ],
      "name": "Approval",
      "type": "event"
    },
    {
      "anonymous": false,
      "inputs": [
        {
          "indexed": true,
          "internalType": "address",
          "name": "_from",
          "type": "address"
        },
        {
          "indexed": true,
          "internalType": "address",
          "name": "_to",
          "type": "address"
        },
        {
          "indexed": false,
          "internalType": "uint256",
          "name": "_value",
          "type": "uint256"
        }
      ],
      "name": "Transfer",
      "type": "event"
    },
    {
      "anonymous": false,
      "inputs": [
        {
          "indexed": false,
          "internalType": "uint256",
          "name": "amount",
          "type": "uint256"
        }
      ],
      "name": "aumentarMonedas",
      "type": "event"
    },
    {
      "anonymous": false,
      "inputs": [
        {
          "indexed": false,
          "internalType": "uint256",
          "name": "amount",
          "type": "uint256"
        }
      ],
      "name": "disminuirMonedas",
      "type": "event"
    },
    {
      "inputs": [
        {
          "internalType": "address",
          "name": "",
          "type": "address"
        },
        {
          "internalType": "address",
          "name": "",
          "type": "address"
        }
      ],
      "name": "allowance",
      "outputs": [
        {
          "internalType": "uint256",
          "name": "",
          "type": "uint256"
        }
      ],
      "stateMutability": "view",
      "type": "function"
    },
    {
      "inputs": [
        {
          "internalType": "address",
          "name": "",
          "type": "address"
        }
      ],
      "name": "balanceOf",
      "outputs": [
        {
          "internalType": "uint256",
          "name": "",
          "type": "uint256"
        }
      ],
      "stateMutability": "view",
      "type": "function"
    },
    {
      "inputs": [],
      "name": "decimals",
      "outputs": [
        {
          "internalType": "uint8",
          "name": "",
          "type": "uint8"
        }
      ],
      "stateMutability": "view",
      "type": "function"
    },
    {
      "inputs": [],
      "name": "name",
      "outputs": [
        {
          "internalType": "string",
          "name": "",
          "type": "string"
        }
      ],
      "stateMutability": "view",
      "type": "function"
    },
    {
      "inputs": [],
      "name": "symbol",
      "outputs": [
        {
          "internalType": "string",
          "name": "",
          "type": "string"
        }
      ],
      "stateMutability": "view",
      "type": "function"
    },
    {
      "inputs": [],
      "name": "totalSupply",
      "outputs": [
        {
          "internalType": "uint256",
          "name": "",
          "type": "uint256"
        }
      ],
      "stateMutability": "view",
      "type": "function"
    },
    {
      "inputs": [
        {
          "internalType": "address",
          "name": "_address",
          "type": "address"
        }
      ],
      "name": "getBalanceOf",
      "outputs": [
        {
          "internalType": "uint256",
          "name": "",
          "type": "uint256"
        }
      ],
      "stateMutability": "view",
      "type": "function"
    },
    {
      "inputs": [
        {
          "internalType": "address",
          "name": "_owner",
          "type": "address"
        },
        {
          "internalType": "address",
          "name": "spender",
          "type": "address"
        }
      ],
      "name": "getAllowance",
      "outputs": [
        {
          "internalType": "uint256",
          "name": "",
          "type": "uint256"
        }
      ],
      "stateMutability": "view",
      "type": "function"
    },
    {
      "inputs": [
        {
          "internalType": "address",
          "name": "_to",
          "type": "address"
        },
        {
          "internalType": "uint256",
          "name": "_value",
          "type": "uint256"
        }
      ],
      "name": "transfer",
      "outputs": [
        {
          "internalType": "bool",
          "name": "success",
          "type": "bool"
        }
      ],
      "stateMutability": "nonpayable",
      "type": "function"
    },
    {
      "inputs": [
        {
          "internalType": "address",
          "name": "_spender",
          "type": "address"
        },
        {
          "internalType": "uint256",
          "name": "_value",
          "type": "uint256"
        }
      ],
      "name": "approve",
      "outputs": [
        {
          "internalType": "bool",
          "name": "success",
          "type": "bool"
        }
      ],
      "stateMutability": "nonpayable",
      "type": "function"
    },
    {
      "inputs": [
        {
          "internalType": "address",
          "name": "_from",
          "type": "address"
        },
        {
          "internalType": "address",
          "name": "_to",
          "type": "address"
        },
        {
          "internalType": "uint256",
          "name": "_value",
          "type": "uint256"
        }
      ],
      "name": "transferFrom",
      "outputs": [
        {
          "internalType": "bool",
          "name": "success",
          "type": "bool"
        }
      ],
      "stateMutability": "nonpayable",
      "type": "function"
    },
    {
      "inputs": [
        {
          "internalType": "uint256",
          "name": "amount",
          "type": "uint256"
        }
      ],
      "name": "AumentaMoneda",
      "outputs": [],
      "stateMutability": "nonpayable",
      "type": "function"
    },
    {
      "inputs": [
        {
          "internalType": "uint256",
          "name": "amount",
          "type": "uint256"
        }
      ],
      "name": "DisminuyeMoneda",
      "outputs": [],
      "stateMutability": "nonpayable",
      "type": "function"
    }
  ],
  "bytecode": "0x60806040523480156200001157600080fd5b50336000806101000a81548173ffffffffffffffffffffffffffffffffffffffff021916908373ffffffffffffffffffffffffffffffffffffffff1602179055506040518060400160405280601581526020017f546f6b656e205553445420546573742031303030300000000000000000000000815250600190805190602001906200009f9291906200018c565b506040518060400160405280600481526020017f555344540000000000000000000000000000000000000000000000000000000081525060029080519060200190620000ed9291906200018c565b506012600360006101000a81548160ff021916908360ff160217905550600360009054906101000a900460ff16600a620001289190620003d6565b64e8d4a510006200013a919062000427565b600481905550600454600560003373ffffffffffffffffffffffffffffffffffffffff1673ffffffffffffffffffffffffffffffffffffffff16815260200190815260200160002081905550620004ed565b8280546200019a90620004b7565b90600052602060002090601f016020900481019282620001be57600085556200020a565b82601f10620001d957805160ff19168380011785556200020a565b828001600101855582156200020a579182015b8281111562000209578251825591602001919060010190620001ec565b5b5090506200021991906200021d565b5090565b5b80821115620002385760008160009055506001016200021e565b5090565b7f4e487b7100000000000000000000000000000000000000000000000000000000600052601160045260246000fd5b60008160011c9050919050565b6000808291508390505b6001851115620002ca57808604811115620002a257620002a16200023c565b5b6001851615620002b25780820291505b8081029050620002c2856200026b565b945062000282565b94509492505050565b600082620002e55760019050620003b8565b81620002f55760009050620003b8565b81600181146200030e576002811462000319576200034f565b6001915050620003b8565b60ff8411156200032e576200032d6200023c565b5b8360020a9150848211156200034857620003476200023c565b5b50620003b8565b5060208310610133831016604e8410600b8410161715620003895782820a9050838111156200038357620003826200023c565b5b620003b8565b62000398848484600162000278565b92509050818404811115620003b257620003b16200023c565b5b81810290505b9392505050565b6000819050919050565b600060ff82169050919050565b6000620003e382620003bf565b9150620003f083620003c9565b92506200041f7fffffffffffffffffffffffffffffffffffffffffffffffffffffffffffffffff8484620002d3565b905092915050565b60006200043482620003bf565b91506200044183620003bf565b9250817fffffffffffffffffffffffffffffffffffffffffffffffffffffffffffffffff04831182151516156200047d576200047c6200023c565b5b828202905092915050565b7f4e487b7100000000000000000000000000000000000000000000000000000000600052602260045260246000fd5b60006002820490506001821680620004d057607f821691505b60208210811415620004e757620004e662000488565b5b50919050565b6112e980620004fd6000396000f3fe608060405234801561001057600080fd5b50600436106100cf5760003560e01c8063313ce5671161008c57806395d89b411161006657806395d89b41146102265780639b96eece14610244578063a9059cbb14610274578063dd62ed3e146102a4576100cf565b8063313ce567146101bc57806361fe49a6146101da57806370a08231146101f6576100cf565b806306fdde03146100d4578063095ea7b3146100f25780630af4187d1461012257806318160ddd1461015257806323b872dd146101705780632bfe880a146101a0575b600080fd5b6100dc6102d4565b6040516100e99190610eae565b60405180910390f35b61010c60048036038101906101079190610f69565b610362565b6040516101199190610fc4565b60405180910390f35b61013c60048036038101906101379190610fdf565b610454565b604051610149919061102e565b60405180910390f35b61015a6104db565b604051610167919061102e565b60405180910390f35b61018a60048036038101906101859190611049565b6104e1565b6040516101979190610fc4565b60405180910390f35b6101ba60048036038101906101b5919061109c565b610767565b005b6101c46109b1565b6040516101d191906110e5565b60405180910390f35b6101f460048036038101906101ef919061109c565b6109c4565b005b610210600480360381019061020b9190611100565b610b98565b60405161021d919061102e565b60405180910390f35b61022e610bb0565b60405161023b9190610eae565b60405180910390f35b61025e60048036038101906102599190611100565b610c3e565b60405161026b919061102e565b60405180910390f35b61028e60048036038101906102899190610f69565b610c87565b60405161029b9190610fc4565b60405180910390f35b6102be60048036038101906102b99190610fdf565b610df0565b6040516102cb919061102e565b60405180910390f35b600180546102e19061115c565b80601f016020809104026020016040519081016040528092919081815260200182805461030d9061115c565b801561035a5780601f1061032f5761010080835404028352916020019161035a565b820191906000526020600020905b81548152906001019060200180831161033d57829003601f168201915b505050505081565b600081600660003373ffffffffffffffffffffffffffffffffffffffff1673ffffffffffffffffffffffffffffffffffffffff16815260200190815260200160002060008573ffffffffffffffffffffffffffffffffffffffff1673ffffffffffffffffffffffffffffffffffffffff168152602001908152602001600020819055508273ffffffffffffffffffffffffffffffffffffffff163373ffffffffffffffffffffffffffffffffffffffff167f8c5be1e5ebec7d5bd14f71427d1e84f3dd0314c0f7b2291e5b200ac8c7c3b92584604051610442919061102e565b60405180910390a36001905092915050565b6000600660008473ffffffffffffffffffffffffffffffffffffffff1673ffffffffffffffffffffffffffffffffffffffff16815260200190815260200160002060008373ffffffffffffffffffffffffffffffffffffffff1673ffffffffffffffffffffffffffffffffffffffff16815260200190815260200160002054905092915050565b60045481565b600081600560008673ffffffffffffffffffffffffffffffffffffffff1673ffffffffffffffffffffffffffffffffffffffff16815260200190815260200160002054101561052f57600080fd5b81600660008673ffffffffffffffffffffffffffffffffffffffff1673ffffffffffffffffffffffffffffffffffffffff16815260200190815260200160002060003373ffffffffffffffffffffffffffffffffffffffff1673ffffffffffffffffffffffffffffffffffffffff1681526020019081526020016000205410156105b857600080fd5b81600560008673ffffffffffffffffffffffffffffffffffffffff1673ffffffffffffffffffffffffffffffffffffffff168152602001908152602001600020600082825461060791906111bd565b9250508190555081600560008573ffffffffffffffffffffffffffffffffffffffff1673ffffffffffffffffffffffffffffffffffffffff168152602001908152602001600020600082825461065d91906111f1565b9250508190555081600660008673ffffffffffffffffffffffffffffffffffffffff1673ffffffffffffffffffffffffffffffffffffffff16815260200190815260200160002060003373ffffffffffffffffffffffffffffffffffffffff1673ffffffffffffffffffffffffffffffffffffffff16815260200190815260200160002060008282546106f091906111bd565b925050819055508273ffffffffffffffffffffffffffffffffffffffff168473ffffffffffffffffffffffffffffffffffffffff167fddf252ad1be2c89b69c2b068fc378daa952ba7f163c4a11628f55a4df523b3ef84604051610754919061102e565b60405180910390a3600190509392505050565b60008054906101000a900473ffffffffffffffffffffffffffffffffffffffff1673ffffffffffffffffffffffffffffffffffffffff163373ffffffffffffffffffffffffffffffffffffffff16146107f5576040517f08c379a00000000000000000000000000000000000000000000000000000000081526004016107ec90611293565b60405180910390fd5b6004548160045461080691906111f1565b1161081057600080fd5b600560008060009054906101000a900473ffffffffffffffffffffffffffffffffffffffff1673ffffffffffffffffffffffffffffffffffffffff1673ffffffffffffffffffffffffffffffffffffffff1681526020019081526020016000205481600560008060009054906101000a900473ffffffffffffffffffffffffffffffffffffffff1673ffffffffffffffffffffffffffffffffffffffff1673ffffffffffffffffffffffffffffffffffffffff168152602001908152602001600020546108dd91906111f1565b116108e757600080fd5b80600560008060009054906101000a900473ffffffffffffffffffffffffffffffffffffffff1673ffffffffffffffffffffffffffffffffffffffff1673ffffffffffffffffffffffffffffffffffffffff168152602001908152602001600020600082825461095791906111f1565b92505081905550806004600082825461097091906111f1565b925050819055507f964b3ebadb29f0e879c66bdc27d7bfe7768a583e8dfcbe9f9dead0182ff1e156816040516109a6919061102e565b60405180910390a150565b600360009054906101000a900460ff1681565b60008054906101000a900473ffffffffffffffffffffffffffffffffffffffff1673ffffffffffffffffffffffffffffffffffffffff163373ffffffffffffffffffffffffffffffffffffffff1614610a52576040517f08c379a0000000000000000000000000000000000000000000000000000000008152600401610a4990611293565b60405180910390fd5b806004541015610a6157600080fd5b80600560008060009054906101000a900473ffffffffffffffffffffffffffffffffffffffff1673ffffffffffffffffffffffffffffffffffffffff1673ffffffffffffffffffffffffffffffffffffffff168152602001908152602001600020541015610ace57600080fd5b8060046000828254610ae091906111bd565b9250508190555080600560008060009054906101000a900473ffffffffffffffffffffffffffffffffffffffff1673ffffffffffffffffffffffffffffffffffffffff1673ffffffffffffffffffffffffffffffffffffffff1681526020019081526020016000206000828254610b5791906111bd565b925050819055507fde825eccb9c29070abe49d285551c4b2d2def9a9f5d9279b91f2832ecb5714f581604051610b8d919061102e565b60405180910390a150565b60056020528060005260406000206000915090505481565b60028054610bbd9061115c565b80601f0160208091040260200160405190810160405280929190818152602001828054610be99061115c565b8015610c365780601f10610c0b57610100808354040283529160200191610c36565b820191906000526020600020905b815481529060010190602001808311610c1957829003601f168201915b505050505081565b6000600560008373ffffffffffffffffffffffffffffffffffffffff1673ffffffffffffffffffffffffffffffffffffffff168152602001908152602001600020549050919050565b600081600560003373ffffffffffffffffffffffffffffffffffffffff1673ffffffffffffffffffffffffffffffffffffffff168152602001908152602001600020541015610cd557600080fd5b81600560003373ffffffffffffffffffffffffffffffffffffffff1673ffffffffffffffffffffffffffffffffffffffff1681526020019081526020016000206000828254610d2491906111bd565b9250508190555081600560008573ffffffffffffffffffffffffffffffffffffffff1673ffffffffffffffffffffffffffffffffffffffff1681526020019081526020016000206000828254610d7a91906111f1565b925050819055508273ffffffffffffffffffffffffffffffffffffffff163373ffffffffffffffffffffffffffffffffffffffff167fddf252ad1be2c89b69c2b068fc378daa952ba7f163c4a11628f55a4df523b3ef84604051610dde919061102e565b60405180910390a36001905092915050565b6006602052816000526040600020602052806000526040600020600091509150505481565b600081519050919050565b600082825260208201905092915050565b60005b83811015610e4f578082015181840152602081019050610e34565b83811115610e5e576000848401525b50505050565b6000601f19601f8301169050919050565b6000610e8082610e15565b610e8a8185610e20565b9350610e9a818560208601610e31565b610ea381610e64565b840191505092915050565b60006020820190508181036000830152610ec88184610e75565b905092915050565b600080fd5b600073ffffffffffffffffffffffffffffffffffffffff82169050919050565b6000610f0082610ed5565b9050919050565b610f1081610ef5565b8114610f1b57600080fd5b50565b600081359050610f2d81610f07565b92915050565b6000819050919050565b610f4681610f33565b8114610f5157600080fd5b50565b600081359050610f6381610f3d565b92915050565b60008060408385031215610f8057610f7f610ed0565b5b6000610f8e85828601610f1e565b9250506020610f9f85828601610f54565b9150509250929050565b60008115159050919050565b610fbe81610fa9565b82525050565b6000602082019050610fd96000830184610fb5565b92915050565b60008060408385031215610ff657610ff5610ed0565b5b600061100485828601610f1e565b925050602061101585828601610f1e565b9150509250929050565b61102881610f33565b82525050565b6000602082019050611043600083018461101f565b92915050565b60008060006060848603121561106257611061610ed0565b5b600061107086828701610f1e565b935050602061108186828701610f1e565b925050604061109286828701610f54565b9150509250925092565b6000602082840312156110b2576110b1610ed0565b5b60006110c084828501610f54565b91505092915050565b600060ff82169050919050565b6110df816110c9565b82525050565b60006020820190506110fa60008301846110d6565b92915050565b60006020828403121561111657611115610ed0565b5b600061112484828501610f1e565b91505092915050565b7f4e487b7100000000000000000000000000000000000000000000000000000000600052602260045260246000fd5b6000600282049050600182168061117457607f821691505b602082108114156111885761118761112d565b5b50919050565b7f4e487b7100000000000000000000000000000000000000000000000000000000600052601160045260246000fd5b60006111c882610f33565b91506111d383610f33565b9250828210156111e6576111e561118e565b5b828203905092915050565b60006111fc82610f33565b915061120783610f33565b9250827fffffffffffffffffffffffffffffffffffffffffffffffffffffffffffffffff0382111561123c5761123b61118e565b5b828201905092915050565b7f536f6c6f207075656465206c6c616d617220656c2070726f706965746172696f600082015250565b600061127d602083610e20565b915061128882611247565b602082019050919050565b600060208201905081810360008301526112ac81611270565b905091905056fea2646970667358221220056ef8c4ea7919ff68787b5736dc24ff60a7ab49950699580f490641364867d764736f6c634300080b0033",
  "immutableReferences": {},
  "source": "// SPDX-License-Identifier: MIT\r\npragma solidity ^0.8.6;\r\ncontract tokenUsdt_hector_test1 {\r\n    address owner;\r\n    string public name; //nombre del token\r\n    string public symbol;   //simbolo del token \r\n    uint8 public decimals;  //variable para los decimales \r\n    uint256 public totalSupply; //cantidad inicial del token \r\n    mapping(address => uint256) public balanceOf; \r\n    mapping(address => mapping(address => uint256)) public allowance; \r\n    //aqui se guarda la direccion de quien aprueba y luego la direccion a quien aprueba y la cantidad \r\n    //ejemplo [xxxxx] => [yyyy] => 15\r\n      modifier onlyOwner() {\r\n         require(msg.sender == owner, \"Solo puede llamar el propietario\");\r\n        _;\r\n    }\r\n     constructor(){\r\n        owner = msg.sender;\r\n        name = \"Token USDT Test 10000\"; \r\n        symbol = \"USDT\"; \r\n        decimals = 18; \r\n        totalSupply = 1000000000000 * (uint256(10) ** decimals ); \r\n        balanceOf[msg.sender] = totalSupply; //enviamos todos los tokens a la direccion creadora del contrato\r\n        \r\n    }\r\n    event Transfer(address indexed _from, address indexed _to, uint256 _value);\r\n    event Approval(address indexed _owner, address indexed _spender, uint256 _value);\r\n    event aumentarMonedas(uint amount);\r\n    event disminuirMonedas(uint amount);\r\n    function getBalanceOf(address _address) public view returns (uint256) {\r\n        return balanceOf[_address];\r\n    }\r\n    function getAllowance(address _owner, address spender) public view returns (uint){\r\n        return allowance[_owner][spender];\r\n    }\r\n    function transfer(address _to, uint256 _value) public returns (bool success){\r\n        //recibe la direccion a donde se envia , y el valor de tokens a enviar\r\n        //retorna un success en caso de ser exitosa\r\n          require(balanceOf[msg.sender] >= _value);//se lee alreves por lo q entiendo osea\r\n          //si el balance es mayor entonces pasa pa la siguiente linea de lo contrario too low\r\n          //msg.sender = direccion de quien esta enviando el saldo \r\n          balanceOf[msg.sender] -= _value; //descontamos el monto a transferir de la cuenta q esta transfiriendo \r\n          balanceOf[_to] += _value; //sumamos el token a la direccion q esta recibiendo \r\n          emit Transfer(msg.sender, _to, _value); //emitimos el evento de transferencia \r\n          return true; //retornamos true \r\n    }\r\n    function approve(address _spender, uint256 _value) public returns (bool success){\r\n        allowance[msg.sender][_spender] = _value; //autorizamos a tener esos tokens \r\n        emit Approval(msg.sender, _spender, _value); \r\n        return true; \r\n    }\r\n    function transferFrom(address _from, address _to, uint256 _value) public returns (bool success){\r\n        require(balanceOf[_from] >= _value  ); //comprobar si el dueo tiene esos tokens \r\n        require(allowance[_from][msg.sender] >= _value); //comprobar si quien invoca la transaccion esta autorizado a manejar esos tokens \r\n        balanceOf[_from] -= _value; \r\n        balanceOf[_to] += _value;\r\n        allowance[_from][msg.sender] -= _value; \r\n        emit Transfer(_from, _to, _value);\r\n        return true;\r\n    }\r\n    function AumentaMoneda(uint amount) public onlyOwner {\r\n        require(totalSupply + amount > totalSupply);\r\n        require(balanceOf[owner] + amount > balanceOf[owner]);\r\n        balanceOf[owner] += amount;\r\n        totalSupply += amount;\r\n        emit aumentarMonedas(amount);\r\n    }\r\n    function DisminuyeMoneda(uint amount) public onlyOwner {\r\n        require(totalSupply >= amount);\r\n        require(balanceOf[owner] >= amount);\r\n        totalSupply -= amount;\r\n        balanceOf[owner] -= amount;\r\n        emit disminuirMonedas(amount);\r\n    }\r\n}",
  "sourcePath": "D:\\Trabajo Programador\\Nacho Forobeta Argentina\\Dashboard token inversion\\frontend\\quasar-admin\\contracts\\tokenUsdt.sol",
  "compiler": {
    "name": "solc",
    "version": "0.8.11+commit.d7f03943.Emscripten.clang"
  },
  "schemaVersion": "3.4.4",
  "updatedAt": "2022-02-07T14:49:49.002Z",
  "devdoc": {
    "kind": "dev",
    "methods": {},
    "version": 1
  },
  "userdoc": {
    "kind": "user",
    "methods": {},
    "version": 1
  }
}