{
  "contractName": "tokenFintUsd",
  "abi": [
    {
      "inputs": [],
      "stateMutability": "nonpayable",
      "type": "constructor"
    },
    {
      "anonymous": false,
      "inputs": [
        {
          "indexed": true,
          "internalType": "address",
          "name": "_owner",
          "type": "address"
        },
        {
          "indexed": true,
          "internalType": "address",
          "name": "_spender",
          "type": "address"
        },
        {
          "indexed": false,
          "internalType": "uint256",
          "name": "_value",
          "type": "uint256"
        }
      ],
      "name": "Approval",
      "type": "event"
    },
    {
      "anonymous": false,
      "inputs": [
        {
          "indexed": true,
          "internalType": "address",
          "name": "_from",
          "type": "address"
        },
        {
          "indexed": true,
          "internalType": "address",
          "name": "_to",
          "type": "address"
        },
        {
          "indexed": false,
          "internalType": "uint256",
          "name": "_value",
          "type": "uint256"
        }
      ],
      "name": "Transfer",
      "type": "event"
    },
    {
      "anonymous": false,
      "inputs": [
        {
          "indexed": false,
          "internalType": "uint256",
          "name": "amount",
          "type": "uint256"
        }
      ],
      "name": "aumentarMonedas",
      "type": "event"
    },
    {
      "anonymous": false,
      "inputs": [
        {
          "indexed": false,
          "internalType": "string",
          "name": "texto",
          "type": "string"
        },
        {
          "indexed": false,
          "internalType": "uint256",
          "name": "ganancia",
          "type": "uint256"
        }
      ],
      "name": "calcularGanancia",
      "type": "event"
    },
    {
      "anonymous": false,
      "inputs": [
        {
          "indexed": false,
          "internalType": "string",
          "name": "texto",
          "type": "string"
        },
        {
          "indexed": true,
          "internalType": "address",
          "name": "_from",
          "type": "address"
        }
      ],
      "name": "deleteVesting",
      "type": "event"
    },
    {
      "anonymous": false,
      "inputs": [
        {
          "indexed": false,
          "internalType": "uint256",
          "name": "amount",
          "type": "uint256"
        }
      ],
      "name": "disminuirMonedas",
      "type": "event"
    },
    {
      "anonymous": false,
      "inputs": [
        {
          "indexed": false,
          "internalType": "string",
          "name": "x",
          "type": "string"
        }
      ],
      "name": "eventoPrueba",
      "type": "event"
    },
    {
      "anonymous": false,
      "inputs": [
        {
          "indexed": false,
          "internalType": "string",
          "name": "x",
          "type": "string"
        },
        {
          "indexed": false,
          "internalType": "uint256",
          "name": "c",
          "type": "uint256"
        }
      ],
      "name": "eventoPrueba2",
      "type": "event"
    },
    {
      "anonymous": false,
      "inputs": [
        {
          "indexed": false,
          "internalType": "string",
          "name": "texto",
          "type": "string"
        },
        {
          "indexed": true,
          "internalType": "address",
          "name": "_from",
          "type": "address"
        }
      ],
      "name": "iniciarVesting",
      "type": "event"
    },
    {
      "inputs": [
        {
          "internalType": "address",
          "name": "",
          "type": "address"
        },
        {
          "internalType": "address",
          "name": "",
          "type": "address"
        }
      ],
      "name": "allowance",
      "outputs": [
        {
          "internalType": "uint256",
          "name": "",
          "type": "uint256"
        }
      ],
      "stateMutability": "view",
      "type": "function"
    },
    {
      "inputs": [
        {
          "internalType": "address",
          "name": "",
          "type": "address"
        }
      ],
      "name": "balanceOf",
      "outputs": [
        {
          "internalType": "uint256",
          "name": "",
          "type": "uint256"
        }
      ],
      "stateMutability": "view",
      "type": "function"
    },
    {
      "inputs": [],
      "name": "decimals",
      "outputs": [
        {
          "internalType": "uint8",
          "name": "",
          "type": "uint8"
        }
      ],
      "stateMutability": "view",
      "type": "function"
    },
    {
      "inputs": [],
      "name": "interes",
      "outputs": [
        {
          "internalType": "uint8",
          "name": "",
          "type": "uint8"
        }
      ],
      "stateMutability": "view",
      "type": "function"
    },
    {
      "inputs": [],
      "name": "name",
      "outputs": [
        {
          "internalType": "string",
          "name": "",
          "type": "string"
        }
      ],
      "stateMutability": "view",
      "type": "function"
    },
    {
      "inputs": [],
      "name": "porcentajeForumula",
      "outputs": [
        {
          "internalType": "uint256",
          "name": "",
          "type": "uint256"
        }
      ],
      "stateMutability": "view",
      "type": "function"
    },
    {
      "inputs": [],
      "name": "symbol",
      "outputs": [
        {
          "internalType": "string",
          "name": "",
          "type": "string"
        }
      ],
      "stateMutability": "view",
      "type": "function"
    },
    {
      "inputs": [],
      "name": "totalSupply",
      "outputs": [
        {
          "internalType": "uint256",
          "name": "",
          "type": "uint256"
        }
      ],
      "stateMutability": "view",
      "type": "function"
    },
    {
      "inputs": [
        {
          "internalType": "address",
          "name": "",
          "type": "address"
        }
      ],
      "name": "vesting",
      "outputs": [
        {
          "internalType": "bool",
          "name": "active",
          "type": "bool"
        },
        {
          "internalType": "uint256",
          "name": "counter",
          "type": "uint256"
        }
      ],
      "stateMutability": "view",
      "type": "function"
    },
    {
      "inputs": [],
      "name": "vestingDays",
      "outputs": [
        {
          "internalType": "uint8",
          "name": "",
          "type": "uint8"
        }
      ],
      "stateMutability": "view",
      "type": "function"
    },
    {
      "inputs": [
        {
          "internalType": "uint256",
          "name": "a",
          "type": "uint256"
        },
        {
          "internalType": "uint256",
          "name": "b",
          "type": "uint256"
        }
      ],
      "name": "mul",
      "outputs": [
        {
          "internalType": "uint256",
          "name": "c",
          "type": "uint256"
        }
      ],
      "stateMutability": "pure",
      "type": "function"
    },
    {
      "inputs": [
        {
          "internalType": "address",
          "name": "_address",
          "type": "address"
        }
      ],
      "name": "getBalanceOf",
      "outputs": [
        {
          "internalType": "uint256",
          "name": "",
          "type": "uint256"
        }
      ],
      "stateMutability": "view",
      "type": "function"
    },
    {
      "inputs": [
        {
          "internalType": "address",
          "name": "addr",
          "type": "address"
        },
        {
          "internalType": "uint256",
          "name": "c",
          "type": "uint256"
        }
      ],
      "name": "getVestingAddr",
      "outputs": [
        {
          "components": [
            {
              "internalType": "uint256",
              "name": "amount",
              "type": "uint256"
            },
            {
              "internalType": "uint256",
              "name": "timestamp",
              "type": "uint256"
            }
          ],
          "internalType": "struct tokenFintUsd.Payment",
          "name": "",
          "type": "tuple"
        }
      ],
      "stateMutability": "view",
      "type": "function"
    },
    {
      "inputs": [
        {
          "internalType": "address",
          "name": "_owner",
          "type": "address"
        },
        {
          "internalType": "address",
          "name": "spender",
          "type": "address"
        }
      ],
      "name": "getAllowance",
      "outputs": [
        {
          "internalType": "uint256",
          "name": "",
          "type": "uint256"
        }
      ],
      "stateMutability": "view",
      "type": "function"
    },
    {
      "inputs": [
        {
          "internalType": "address",
          "name": "_address",
          "type": "address"
        }
      ],
      "name": "getVesting",
      "outputs": [
        {
          "internalType": "bool",
          "name": "",
          "type": "bool"
        }
      ],
      "stateMutability": "view",
      "type": "function"
    },
    {
      "inputs": [
        {
          "internalType": "uint256",
          "name": "amount",
          "type": "uint256"
        },
        {
          "internalType": "uint256",
          "name": "_porcentaje",
          "type": "uint256"
        }
      ],
      "name": "calculateFee",
      "outputs": [
        {
          "internalType": "uint256",
          "name": "x",
          "type": "uint256"
        }
      ],
      "stateMutability": "pure",
      "type": "function"
    },
    {
      "inputs": [
        {
          "internalType": "address",
          "name": "_to",
          "type": "address"
        },
        {
          "internalType": "uint256",
          "name": "_value",
          "type": "uint256"
        }
      ],
      "name": "transfer",
      "outputs": [
        {
          "internalType": "bool",
          "name": "success",
          "type": "bool"
        }
      ],
      "stateMutability": "nonpayable",
      "type": "function"
    },
    {
      "inputs": [
        {
          "internalType": "address",
          "name": "_spender",
          "type": "address"
        },
        {
          "internalType": "uint256",
          "name": "_value",
          "type": "uint256"
        }
      ],
      "name": "approve",
      "outputs": [
        {
          "internalType": "bool",
          "name": "success",
          "type": "bool"
        }
      ],
      "stateMutability": "nonpayable",
      "type": "function"
    },
    {
      "inputs": [
        {
          "internalType": "address",
          "name": "_from",
          "type": "address"
        },
        {
          "internalType": "address",
          "name": "_to",
          "type": "address"
        },
        {
          "internalType": "uint256",
          "name": "_value",
          "type": "uint256"
        }
      ],
      "name": "transferFrom",
      "outputs": [
        {
          "internalType": "bool",
          "name": "success",
          "type": "bool"
        }
      ],
      "stateMutability": "nonpayable",
      "type": "function"
    },
    {
      "inputs": [
        {
          "internalType": "uint8",
          "name": "_value",
          "type": "uint8"
        }
      ],
      "name": "setInteres",
      "outputs": [],
      "stateMutability": "nonpayable",
      "type": "function"
    },
    {
      "inputs": [
        {
          "internalType": "uint8",
          "name": "_value",
          "type": "uint8"
        }
      ],
      "name": "setVestingDays",
      "outputs": [],
      "stateMutability": "nonpayable",
      "type": "function"
    },
    {
      "inputs": [
        {
          "internalType": "uint256",
          "name": "amount",
          "type": "uint256"
        }
      ],
      "name": "AumentaMoneda",
      "outputs": [],
      "stateMutability": "nonpayable",
      "type": "function"
    },
    {
      "inputs": [
        {
          "internalType": "uint256",
          "name": "amount",
          "type": "uint256"
        }
      ],
      "name": "DisminuyeMoneda",
      "outputs": [],
      "stateMutability": "nonpayable",
      "type": "function"
    },
    {
      "inputs": [],
      "name": "tokenVesting",
      "outputs": [],
      "stateMutability": "nonpayable",
      "type": "function"
    },
    {
      "inputs": [],
      "name": "removeVesting",
      "outputs": [],
      "stateMutability": "nonpayable",
      "type": "function"
    },
    {
      "inputs": [
        {
          "internalType": "uint256",
          "name": "amount",
          "type": "uint256"
        }
      ],
      "name": "calculateGanancia",
      "outputs": [
        {
          "internalType": "uint256",
          "name": "x",
          "type": "uint256"
        }
      ],
      "stateMutability": "view",
      "type": "function"
    },
    {
      "inputs": [
        {
          "internalType": "address",
          "name": "addr",
          "type": "address"
        }
      ],
      "name": "distributeProfitsVesting",
      "outputs": [],
      "stateMutability": "nonpayable",
      "type": "function"
    }
  ],
  "bytecode": "0x60806040523480156200001157600080fd5b50336000806101000a81548173ffffffffffffffffffffffffffffffffffffffff021916908373ffffffffffffffffffffffffffffffffffffffff1602179055506040518060400160405280601481526020017f546f6b656e2046696e7455736420546573742031000000000000000000000000815250600190805190602001906200009f929190620001cd565b506040518060400160405280600781526020017f46496e745573640000000000000000000000000000000000000000000000000081525060029080519060200190620000ed929190620001cd565b506012600360006101000a81548160ff021916908360ff160217905550600360009054906101000a900460ff16600a62000128919062000417565b64e8d4a510006200013a919062000468565b600481905550600454600760003373ffffffffffffffffffffffffffffffffffffffff1673ffffffffffffffffffffffffffffffffffffffff168152602001908152602001600020819055506016600560006101000a81548160ff021916908360ff1602179055506000600560016101000a81548160ff021916908360ff160217905550610ef76006819055506200052e565b828054620001db90620004f8565b90600052602060002090601f016020900481019282620001ff57600085556200024b565b82601f106200021a57805160ff19168380011785556200024b565b828001600101855582156200024b579182015b828111156200024a5782518255916020019190600101906200022d565b5b5090506200025a91906200025e565b5090565b5b80821115620002795760008160009055506001016200025f565b5090565b7f4e487b7100000000000000000000000000000000000000000000000000000000600052601160045260246000fd5b60008160011c9050919050565b6000808291508390505b60018511156200030b57808604811115620002e357620002e26200027d565b5b6001851615620002f35780820291505b80810290506200030385620002ac565b9450620002c3565b94509492505050565b600082620003265760019050620003f9565b81620003365760009050620003f9565b81600181146200034f57600281146200035a5762000390565b6001915050620003f9565b60ff8411156200036f576200036e6200027d565b5b8360020a9150848211156200038957620003886200027d565b5b50620003f9565b5060208310610133831016604e8410600b8410161715620003ca5782820a905083811115620003c457620003c36200027d565b5b620003f9565b620003d98484846001620002b9565b92509050818404811115620003f357620003f26200027d565b5b81810290505b9392505050565b6000819050919050565b600060ff82169050919050565b6000620004248262000400565b915062000431836200040a565b9250620004607fffffffffffffffffffffffffffffffffffffffffffffffffffffffffffffffff848462000314565b905092915050565b6000620004758262000400565b9150620004828362000400565b9250817fffffffffffffffffffffffffffffffffffffffffffffffffffffffffffffffff0483118215151615620004be57620004bd6200027d565b5b828202905092915050565b7f4e487b7100000000000000000000000000000000000000000000000000000000600052602260045260246000fd5b600060028204905060018216806200051157607f821691505b60208210811415620005285762000527620004c9565b5b50919050565b612c7a806200053e6000396000f3fe608060405234801561001057600080fd5b50600436106101a95760003560e01c80635a7f1a8f116100f9578063aa4e603c11610097578063dd62ed3e11610071578063dd62ed3e146104f6578063e0fbd1fb14610526578063e388c42314610542578063f2c6a5f014610573576101a9565b8063aa4e603c14610478578063c8a4ac9c14610496578063cc49ede7146104c6576101a9565b806388bb14c7116100d357806388bb14c7146103dc57806395d89b41146103fa5780639b96eece14610418578063a9059cbb14610448576101a9565b80635a7f1a8f1461038657806361fe49a61461039057806370a08231146103ac576101a9565b80631a58b28911610166578063313ce56711610140578063313ce567146102d857806334e73122146102f65780633883e41f1461032657806345ba78ab14610356576101a9565b80631a58b2891461027057806323b872dd1461028c5780632bfe880a146102bc576101a9565b806306fdde03146101ae578063095ea7b3146101cc5780630a1a8d3c146101fc5780630af4187d1461020657806318160ddd1461023657806318cbb1bb14610254575b600080fd5b6101b6610591565b6040516101c3919061226c565b60405180910390f35b6101e660048036038101906101e19190612327565b61061f565b6040516101f39190612382565b60405180910390f35b610204610711565b005b610220600480360381019061021b919061239d565b610a33565b60405161022d91906123ec565b60405180910390f35b61023e610aba565b60405161024b91906123ec565b60405180910390f35b61026e60048036038101906102699190612440565b610ac0565b005b61028a6004803603810190610285919061246d565b610b6c565b005b6102a660048036038101906102a1919061249a565b610eb6565b6040516102b39190612382565b60405180910390f35b6102d660048036038101906102d191906124ed565b6113b9565b005b6102e0611603565b6040516102ed9190612529565b60405180910390f35b610310600480360381019061030b9190612544565b611616565b60405161031d91906123ec565b60405180910390f35b610340600480360381019061033b91906124ed565b61164e565b60405161034d91906123ec565b60405180910390f35b610370600480360381019061036b9190612327565b611678565b60405161037d91906125c2565b60405180910390f35b61038e6116fa565b005b6103aa60048036038101906103a591906124ed565b61187a565b005b6103c660048036038101906103c1919061246d565b611a4e565b6040516103d391906123ec565b60405180910390f35b6103e4611a66565b6040516103f19190612529565b60405180910390f35b610402611a79565b60405161040f919061226c565b60405180910390f35b610432600480360381019061042d919061246d565b611b07565b60405161043f91906123ec565b60405180910390f35b610462600480360381019061045d9190612327565b611b50565b60405161046f9190612382565b60405180910390f35b610480612002565b60405161048d91906123ec565b60405180910390f35b6104b060048036038101906104ab9190612544565b612008565b6040516104bd91906123ec565b60405180910390f35b6104e060048036038101906104db919061246d565b61204b565b6040516104ed9190612382565b60405180910390f35b610510600480360381019061050b919061239d565b6120a4565b60405161051d91906123ec565b60405180910390f35b610540600480360381019061053b9190612440565b6120c9565b005b61055c6004803603810190610557919061246d565b612175565b60405161056a9291906125dd565b60405180910390f35b61057b6121a6565b6040516105889190612529565b60405180910390f35b6001805461059e90612635565b80601f01602080910402602001604051908101604052809291908181526020018280546105ca90612635565b80156106175780601f106105ec57610100808354040283529160200191610617565b820191906000526020600020905b8154815290600101906020018083116105fa57829003601f168201915b505050505081565b600081600860003373ffffffffffffffffffffffffffffffffffffffff1673ffffffffffffffffffffffffffffffffffffffff16815260200190815260200160002060008573ffffffffffffffffffffffffffffffffffffffff1673ffffffffffffffffffffffffffffffffffffffff168152602001908152602001600020819055508273ffffffffffffffffffffffffffffffffffffffff163373ffffffffffffffffffffffffffffffffffffffff167f8c5be1e5ebec7d5bd14f71427d1e84f3dd0314c0f7b2291e5b200ac8c7c3b925846040516106ff91906123ec565b60405180910390a36001905092915050565b6000600760003373ffffffffffffffffffffffffffffffffffffffff1673ffffffffffffffffffffffffffffffffffffffff16815260200190815260200160002054905060001515600960003373ffffffffffffffffffffffffffffffffffffffff1673ffffffffffffffffffffffffffffffffffffffff16815260200190815260200160002060000160009054906101000a900460ff1615151480156107b85750600081115b6107f7576040517f08c379a00000000000000000000000000000000000000000000000000000000081526004016107ee906126b3565b60405180910390fd5b6001600960003373ffffffffffffffffffffffffffffffffffffffff1673ffffffffffffffffffffffffffffffffffffffff16815260200190815260200160002060000160006101000a81548160ff02191690831515021790555080600960003373ffffffffffffffffffffffffffffffffffffffff1673ffffffffffffffffffffffffffffffffffffffff1681526020019081526020016000206002016000600960003373ffffffffffffffffffffffffffffffffffffffff1673ffffffffffffffffffffffffffffffffffffffff1681526020019081526020016000206001015481526020019081526020016000206000018190555042600960003373ffffffffffffffffffffffffffffffffffffffff1673ffffffffffffffffffffffffffffffffffffffff1681526020019081526020016000206002016000600960003373ffffffffffffffffffffffffffffffffffffffff1673ffffffffffffffffffffffffffffffffffffffff16815260200190815260200160002060010154815260200190815260200160002060010181905550600960003373ffffffffffffffffffffffffffffffffffffffff1673ffffffffffffffffffffffffffffffffffffffff16815260200190815260200160002060010160008154809291906109df90612702565b91905055503373ffffffffffffffffffffffffffffffffffffffff167faf28afe33c907ed85455c17f1d1a00488270d6bc19a8da2dc7ee697374db6592604051610a2890612797565b60405180910390a250565b6000600860008473ffffffffffffffffffffffffffffffffffffffff1673ffffffffffffffffffffffffffffffffffffffff16815260200190815260200160002060008373ffffffffffffffffffffffffffffffffffffffff1673ffffffffffffffffffffffffffffffffffffffff16815260200190815260200160002054905092915050565b60045481565b60008054906101000a900473ffffffffffffffffffffffffffffffffffffffff1673ffffffffffffffffffffffffffffffffffffffff163373ffffffffffffffffffffffffffffffffffffffff1614610b4e576040517f08c379a0000000000000000000000000000000000000000000000000000000008152600401610b4590612803565b60405180910390fd5b80600560016101000a81548160ff021916908360ff16021790555050565b60008054906101000a900473ffffffffffffffffffffffffffffffffffffffff1673ffffffffffffffffffffffffffffffffffffffff163373ffffffffffffffffffffffffffffffffffffffff1614610bfa576040517f08c379a0000000000000000000000000000000000000000000000000000000008152600401610bf190612803565b60405180910390fd5b600960008273ffffffffffffffffffffffffffffffffffffffff1673ffffffffffffffffffffffffffffffffffffffff16815260200190815260200160002060000160009054906101000a900460ff16610c89576040517f08c379a0000000000000000000000000000000000000000000000000000000008152600401610c809061286f565b60405180910390fd5b600080600090505b600960008473ffffffffffffffffffffffffffffffffffffffff1673ffffffffffffffffffffffffffffffffffffffff16815260200190815260200160002060010154811015610ea6576000600960008573ffffffffffffffffffffffffffffffffffffffff1673ffffffffffffffffffffffffffffffffffffffff1681526020019081526020016000206002016000838152602001908152602001600020600101549050600042905060006018603c808585610d4e919061288f565b610d5891906128f2565b610d6291906128f2565b610d6c91906128f2565b9050600560019054906101000a900460ff1660ff16811415610e5a576000610de9600960008973ffffffffffffffffffffffffffffffffffffffff1673ffffffffffffffffffffffffffffffffffffffff16815260200190815260200160002060020160008781526020019081526020016000206000015461164e565b90508086610df79190612923565b955042600960008973ffffffffffffffffffffffffffffffffffffffff1673ffffffffffffffffffffffffffffffffffffffff16815260200190815260200160002060020160008781526020019081526020016000206001018190555050610e90565b7f6fa3ddd260f4df2444b0ccdc2af1fa784911f77575bc1c3e370736d1cf8ec9c0604051610e87906129c5565b60405180910390a15b5050508080610e9e90612702565b915050610c91565b50610eb18282611b50565b505050565b6000801515600960008673ffffffffffffffffffffffffffffffffffffffff1673ffffffffffffffffffffffffffffffffffffffff16815260200190815260200160002060000160009054906101000a900460ff16151514610f4d576040517f08c379a0000000000000000000000000000000000000000000000000000000008152600401610f4490612a57565b60405180910390fd5b81600760008673ffffffffffffffffffffffffffffffffffffffff1673ffffffffffffffffffffffffffffffffffffffff168152602001908152602001600020541015610f9957600080fd5b81600860008673ffffffffffffffffffffffffffffffffffffffff1673ffffffffffffffffffffffffffffffffffffffff16815260200190815260200160002060003373ffffffffffffffffffffffffffffffffffffffff1673ffffffffffffffffffffffffffffffffffffffff16815260200190815260200160002054101561102257600080fd5b600960008473ffffffffffffffffffffffffffffffffffffffff1673ffffffffffffffffffffffffffffffffffffffff16815260200190815260200160002060000160009054906101000a900460ff161561120a5781600960008573ffffffffffffffffffffffffffffffffffffffff1673ffffffffffffffffffffffffffffffffffffffff1681526020019081526020016000206002016000600960008773ffffffffffffffffffffffffffffffffffffffff1673ffffffffffffffffffffffffffffffffffffffff1681526020019081526020016000206001015481526020019081526020016000206000018190555042600960008573ffffffffffffffffffffffffffffffffffffffff1673ffffffffffffffffffffffffffffffffffffffff1681526020019081526020016000206002016000600960008773ffffffffffffffffffffffffffffffffffffffff1673ffffffffffffffffffffffffffffffffffffffff16815260200190815260200160002060010154815260200190815260200160002060010181905550600960008473ffffffffffffffffffffffffffffffffffffffff1673ffffffffffffffffffffffffffffffffffffffff168152602001908152602001600020600101600081548092919061120490612702565b91905055505b81600760008673ffffffffffffffffffffffffffffffffffffffff1673ffffffffffffffffffffffffffffffffffffffff1681526020019081526020016000206000828254611259919061288f565b9250508190555081600760008573ffffffffffffffffffffffffffffffffffffffff1673ffffffffffffffffffffffffffffffffffffffff16815260200190815260200160002060008282546112af9190612923565b9250508190555081600860008673ffffffffffffffffffffffffffffffffffffffff1673ffffffffffffffffffffffffffffffffffffffff16815260200190815260200160002060003373ffffffffffffffffffffffffffffffffffffffff1673ffffffffffffffffffffffffffffffffffffffff1681526020019081526020016000206000828254611342919061288f565b925050819055508273ffffffffffffffffffffffffffffffffffffffff168473ffffffffffffffffffffffffffffffffffffffff167fddf252ad1be2c89b69c2b068fc378daa952ba7f163c4a11628f55a4df523b3ef846040516113a691906123ec565b60405180910390a3600190509392505050565b60008054906101000a900473ffffffffffffffffffffffffffffffffffffffff1673ffffffffffffffffffffffffffffffffffffffff163373ffffffffffffffffffffffffffffffffffffffff1614611447576040517f08c379a000000000000000000000000000000000000000000000000000000000815260040161143e90612803565b60405180910390fd5b600454816004546114589190612923565b1161146257600080fd5b600760008060009054906101000a900473ffffffffffffffffffffffffffffffffffffffff1673ffffffffffffffffffffffffffffffffffffffff1673ffffffffffffffffffffffffffffffffffffffff1681526020019081526020016000205481600760008060009054906101000a900473ffffffffffffffffffffffffffffffffffffffff1673ffffffffffffffffffffffffffffffffffffffff1673ffffffffffffffffffffffffffffffffffffffff1681526020019081526020016000205461152f9190612923565b1161153957600080fd5b80600760008060009054906101000a900473ffffffffffffffffffffffffffffffffffffffff1673ffffffffffffffffffffffffffffffffffffffff1673ffffffffffffffffffffffffffffffffffffffff16815260200190815260200160002060008282546115a99190612923565b9250508190555080600460008282546115c29190612923565b925050819055507f964b3ebadb29f0e879c66bdc27d7bfe7768a583e8dfcbe9f9dead0182ff1e156816040516115f891906123ec565b60405180910390a150565b600360009054906101000a900460ff1681565b6000806103e883856116289190612a77565b61163291906128f2565b90506116458166038d7ea4c68000612008565b91505092915050565b600080620f4240600654846116639190612a77565b61166d91906128f2565b905080915050919050565b6116806121b9565b600960008473ffffffffffffffffffffffffffffffffffffffff1673ffffffffffffffffffffffffffffffffffffffff168152602001908152602001600020600201600083815260200190815260200160002060405180604001604052908160008201548152602001600182015481525050905092915050565b600960003373ffffffffffffffffffffffffffffffffffffffff1673ffffffffffffffffffffffffffffffffffffffff16815260200190815260200160002060000160009054906101000a900460ff16611789576040517f08c379a00000000000000000000000000000000000000000000000000000000081526004016117809061286f565b60405180910390fd5b6000600960003373ffffffffffffffffffffffffffffffffffffffff1673ffffffffffffffffffffffffffffffffffffffff16815260200190815260200160002060000160006101000a81548160ff0219169083151502179055506000600960003373ffffffffffffffffffffffffffffffffffffffff1673ffffffffffffffffffffffffffffffffffffffff168152602001908152602001600020600101819055503373ffffffffffffffffffffffffffffffffffffffff167f3edd3ac20c9e394dfba2e2b2ea0b45e3e2df26253da6299aa1f1f01a0b8a378860405161187090612b1d565b60405180910390a2565b60008054906101000a900473ffffffffffffffffffffffffffffffffffffffff1673ffffffffffffffffffffffffffffffffffffffff163373ffffffffffffffffffffffffffffffffffffffff1614611908576040517f08c379a00000000000000000000000000000000000000000000000000000000081526004016118ff90612803565b60405180910390fd5b80600454101561191757600080fd5b80600760008060009054906101000a900473ffffffffffffffffffffffffffffffffffffffff1673ffffffffffffffffffffffffffffffffffffffff1673ffffffffffffffffffffffffffffffffffffffff16815260200190815260200160002054101561198457600080fd5b8060046000828254611996919061288f565b9250508190555080600760008060009054906101000a900473ffffffffffffffffffffffffffffffffffffffff1673ffffffffffffffffffffffffffffffffffffffff1673ffffffffffffffffffffffffffffffffffffffff1681526020019081526020016000206000828254611a0d919061288f565b925050819055507fde825eccb9c29070abe49d285551c4b2d2def9a9f5d9279b91f2832ecb5714f581604051611a4391906123ec565b60405180910390a150565b60076020528060005260406000206000915090505481565b600560009054906101000a900460ff1681565b60028054611a8690612635565b80601f0160208091040260200160405190810160405280929190818152602001828054611ab290612635565b8015611aff5780601f10611ad457610100808354040283529160200191611aff565b820191906000526020600020905b815481529060010190602001808311611ae257829003601f168201915b505050505081565b6000600760008373ffffffffffffffffffffffffffffffffffffffff1673ffffffffffffffffffffffffffffffffffffffff168152602001908152602001600020549050919050565b6000801515600960003373ffffffffffffffffffffffffffffffffffffffff1673ffffffffffffffffffffffffffffffffffffffff16815260200190815260200160002060000160009054906101000a900460ff16151514611be7576040517f08c379a0000000000000000000000000000000000000000000000000000000008152600401611bde90612b89565b60405180910390fd5b60001515600960003373ffffffffffffffffffffffffffffffffffffffff1673ffffffffffffffffffffffffffffffffffffffff16815260200190815260200160002060000160009054906101000a900460ff16151514611c7d576040517f08c379a0000000000000000000000000000000000000000000000000000000008152600401611c7490612a57565b60405180910390fd5b81600760003373ffffffffffffffffffffffffffffffffffffffff1673ffffffffffffffffffffffffffffffffffffffff168152602001908152602001600020541015611cff576040517f08c379a0000000000000000000000000000000000000000000000000000000008152600401611cf690612bf5565b60405180910390fd5b600960008473ffffffffffffffffffffffffffffffffffffffff1673ffffffffffffffffffffffffffffffffffffffff16815260200190815260200160002060000160009054906101000a900460ff1615611ee75781600960008573ffffffffffffffffffffffffffffffffffffffff1673ffffffffffffffffffffffffffffffffffffffff1681526020019081526020016000206002016000600960008773ffffffffffffffffffffffffffffffffffffffff1673ffffffffffffffffffffffffffffffffffffffff1681526020019081526020016000206001015481526020019081526020016000206000018190555042600960008573ffffffffffffffffffffffffffffffffffffffff1673ffffffffffffffffffffffffffffffffffffffff1681526020019081526020016000206002016000600960008773ffffffffffffffffffffffffffffffffffffffff1673ffffffffffffffffffffffffffffffffffffffff16815260200190815260200160002060010154815260200190815260200160002060010181905550600960008473ffffffffffffffffffffffffffffffffffffffff1673ffffffffffffffffffffffffffffffffffffffff1681526020019081526020016000206001016000815480929190611ee190612702565b91905055505b81600760003373ffffffffffffffffffffffffffffffffffffffff1673ffffffffffffffffffffffffffffffffffffffff1681526020019081526020016000206000828254611f36919061288f565b9250508190555081600760008573ffffffffffffffffffffffffffffffffffffffff1673ffffffffffffffffffffffffffffffffffffffff1681526020019081526020016000206000828254611f8c9190612923565b925050819055508273ffffffffffffffffffffffffffffffffffffffff163373ffffffffffffffffffffffffffffffffffffffff167fddf252ad1be2c89b69c2b068fc378daa952ba7f163c4a11628f55a4df523b3ef84604051611ff091906123ec565b60405180910390a36001905092915050565b60065481565b60008083141561201b5760009050612045565b81836120279190612a77565b905081838261203691906128f2565b1461204457612043612c15565b5b5b92915050565b6000600960008373ffffffffffffffffffffffffffffffffffffffff1673ffffffffffffffffffffffffffffffffffffffff16815260200190815260200160002060000160009054906101000a900460ff169050919050565b6008602052816000526040600020602052806000526040600020600091509150505481565b60008054906101000a900473ffffffffffffffffffffffffffffffffffffffff1673ffffffffffffffffffffffffffffffffffffffff163373ffffffffffffffffffffffffffffffffffffffff1614612157576040517f08c379a000000000000000000000000000000000000000000000000000000000815260040161214e90612803565b60405180910390fd5b80600560006101000a81548160ff021916908360ff16021790555050565b60096020528060005260406000206000915090508060000160009054906101000a900460ff16908060010154905082565b600560019054906101000a900460ff1681565b604051806040016040528060008152602001600081525090565b600081519050919050565b600082825260208201905092915050565b60005b8381101561220d5780820151818401526020810190506121f2565b8381111561221c576000848401525b50505050565b6000601f19601f8301169050919050565b600061223e826121d3565b61224881856121de565b93506122588185602086016121ef565b61226181612222565b840191505092915050565b600060208201905081810360008301526122868184612233565b905092915050565b600080fd5b600073ffffffffffffffffffffffffffffffffffffffff82169050919050565b60006122be82612293565b9050919050565b6122ce816122b3565b81146122d957600080fd5b50565b6000813590506122eb816122c5565b92915050565b6000819050919050565b612304816122f1565b811461230f57600080fd5b50565b600081359050612321816122fb565b92915050565b6000806040838503121561233e5761233d61228e565b5b600061234c858286016122dc565b925050602061235d85828601612312565b9150509250929050565b60008115159050919050565b61237c81612367565b82525050565b60006020820190506123976000830184612373565b92915050565b600080604083850312156123b4576123b361228e565b5b60006123c2858286016122dc565b92505060206123d3858286016122dc565b9150509250929050565b6123e6816122f1565b82525050565b600060208201905061240160008301846123dd565b92915050565b600060ff82169050919050565b61241d81612407565b811461242857600080fd5b50565b60008135905061243a81612414565b92915050565b6000602082840312156124565761245561228e565b5b60006124648482850161242b565b91505092915050565b6000602082840312156124835761248261228e565b5b6000612491848285016122dc565b91505092915050565b6000806000606084860312156124b3576124b261228e565b5b60006124c1868287016122dc565b93505060206124d2868287016122dc565b92505060406124e386828701612312565b9150509250925092565b6000602082840312156125035761250261228e565b5b600061251184828501612312565b91505092915050565b61252381612407565b82525050565b600060208201905061253e600083018461251a565b92915050565b6000806040838503121561255b5761255a61228e565b5b600061256985828601612312565b925050602061257a85828601612312565b9150509250929050565b61258d816122f1565b82525050565b6040820160008201516125a96000850182612584565b5060208201516125bc6020850182612584565b50505050565b60006040820190506125d76000830184612593565b92915050565b60006040820190506125f26000830185612373565b6125ff60208301846123dd565b9392505050565b7f4e487b7100000000000000000000000000000000000000000000000000000000600052602260045260246000fd5b6000600282049050600182168061264d57607f821691505b6020821081141561266157612660612606565b5b50919050565b7f6e6f2062616c616e63652c2076657374696e6720616374697665000000000000600082015250565b600061269d601a836121de565b91506126a882612667565b602082019050919050565b600060208201905081810360008301526126cc81612690565b9050919050565b7f4e487b7100000000000000000000000000000000000000000000000000000000600052601160045260246000fd5b600061270d826122f1565b91507fffffffffffffffffffffffffffffffffffffffffffffffffffffffffffffffff8214156127405761273f6126d3565b5b600182019050919050565b7f496e6963696f2076657374696e67000000000000000000000000000000000000600082015250565b6000612781600e836121de565b915061278c8261274b565b602082019050919050565b600060208201905081810360008301526127b081612774565b9050919050565b7f536f6c6f207075656465206c6c616d617220656c2070726f706965746172696f600082015250565b60006127ed6020836121de565b91506127f8826127b7565b602082019050919050565b6000602082019050818103600083015261281c816127e0565b9050919050565b7f6e6f207469656e652076657374696e6700000000000000000000000000000000600082015250565b60006128596010836121de565b915061286482612823565b602082019050919050565b600060208201905081810360008301526128888161284c565b9050919050565b600061289a826122f1565b91506128a5836122f1565b9250828210156128b8576128b76126d3565b5b828203905092915050565b7f4e487b7100000000000000000000000000000000000000000000000000000000600052601260045260246000fd5b60006128fd826122f1565b9150612908836122f1565b925082612918576129176128c3565b5b828204905092915050565b600061292e826122f1565b9150612939836122f1565b9250827fffffffffffffffffffffffffffffffffffffffffffffffffffffffffffffffff0382111561296e5761296d6126d3565b5b828201905092915050565b7f6e6f2068616e2070617361646f206c6f73206469617300000000000000000000600082015250565b60006129af6016836121de565b91506129ba82612979565b602082019050919050565b600060208201905081810360008301526129de816129a2565b9050919050565b7f6e6f207075656465207472616e73666572697220706f72717565207469656e6560008201527f2076657374696e67200000000000000000000000000000000000000000000000602082015250565b6000612a416029836121de565b9150612a4c826129e5565b604082019050919050565b60006020820190508181036000830152612a7081612a34565b9050919050565b6000612a82826122f1565b9150612a8d836122f1565b9250817fffffffffffffffffffffffffffffffffffffffffffffffffffffffffffffffff0483118215151615612ac657612ac56126d3565b5b828202905092915050565b7f52656d6f76652076657374696e67000000000000000000000000000000000000600082015250565b6000612b07600e836121de565b9150612b1282612ad1565b602082019050919050565b60006020820190508181036000830152612b3681612afa565b9050919050565b7f7469656e652076657374696e6700000000000000000000000000000000000000600082015250565b6000612b73600d836121de565b9150612b7e82612b3d565b602082019050919050565b60006020820190508181036000830152612ba281612b66565b9050919050565b7f6e6f207469656e6520746f6b656e7320737566696369656e7465730000000000600082015250565b6000612bdf601b836121de565b9150612bea82612ba9565b602082019050919050565b60006020820190508181036000830152612c0e81612bd2565b9050919050565b7f4e487b7100000000000000000000000000000000000000000000000000000000600052600160045260246000fdfea264697066735822122042f9de6709cbd034f2a3f975e8a43e0c583d2a56c5dee019a40d371df7e3c1c764736f6c634300080b0033",
  "immutableReferences": {},
  "source": "// SPDX-License-Identifier: MIT\r\npragma solidity ^0.8.6;\r\ncontract tokenFintUsd {\r\n    address owner;\r\n    string public name; //nombre del token\r\n    string public symbol;   //simbolo del token \r\n    uint8 public decimals;  //variable para los decimales \r\n    uint256 public totalSupply; //cantidad inicial del token \r\n    uint8 public interes; \r\n    uint8 public vestingDays; \r\n    uint public porcentajeForumula; //( (1 + interes) ^ (1/52) )-1\r\n    mapping(address => uint256) public balanceOf; \r\n    mapping(address => mapping(address => uint256)) public allowance; \r\n     struct Payment {\r\n        uint amount;\r\n        uint timestamp;\r\n    }\r\n    struct AddressVes {\r\n        bool active;\r\n        uint counter;\r\n        mapping(uint => Payment) cantOfVesting;\r\n    }\r\n    mapping(address => AddressVes) public vesting; //variable para activar o desactivar vesting en una address\r\n      modifier onlyOwner() {\r\n         require(msg.sender == owner, \"Solo puede llamar el propietario\");\r\n        _;\r\n    }\r\n     constructor(){\r\n        owner = msg.sender;\r\n        name = \"Token FintUsd Test 1\"; \r\n        symbol = \"FIntUsd\"; \r\n        decimals = 18; \r\n        totalSupply = 1000000000000 * (uint256(10) ** decimals ); \r\n        balanceOf[msg.sender] = totalSupply; //enviamos todos los tokens a la direccion creadora del contrato\r\n        interes = 22; //0.22%\r\n        vestingDays = 0; \r\n        porcentajeForumula = 3831; //0.3831\r\n    }\r\n    \r\n    event Transfer(address indexed _from, address indexed _to, uint256 _value);\r\n    event Approval(address indexed _owner, address indexed _spender, uint256 _value);\r\n    event aumentarMonedas(uint amount);\r\n    event disminuirMonedas(uint amount);\r\n    event calcularGanancia(string texto, uint ganancia);\r\n    event iniciarVesting(string texto, address indexed _from);\r\n    event deleteVesting(string texto, address indexed _from);\r\n    event eventoPrueba(string x);\r\n    event eventoPrueba2(string x, uint c);\r\n  \r\n\r\n    function mul(uint256 a, uint256 b) public pure returns (uint256 c) {\r\n    if (a == 0) {\r\n    return 0;\r\n    }\r\n    c = a * b;\r\n    assert(c / a == b);\r\n    return c;\r\n    }\r\n    function getBalanceOf(address _address) public view returns (uint256) {\r\n        return balanceOf[_address];\r\n    }\r\n    function getVestingAddr(address addr, uint c) public view returns(Payment memory){\r\n        return vesting[addr].cantOfVesting[c]; \r\n    }\r\n\r\n      function getAllowance(address _owner, address spender) public view returns (uint){\r\n        return allowance[_owner][spender];\r\n    }\r\n\r\n     function getVesting(address _address) public view returns (bool){\r\n        return vesting[_address].active;\r\n    }\r\n\r\n    function calculateFee(uint amount, uint _porcentaje) public pure returns(uint x){\r\n        uint calculo = amount * _porcentaje/ 1000; \r\n        return mul(calculo, 10**15); \r\n    }\r\n\r\n    function transfer(address _to, uint256 _value) public returns (bool success){\r\n        //recibe la direccion a donde se envia , y el valor de tokens a enviar\r\n        //retorna un success en caso de ser exitosa\r\n        require(vesting[msg.sender].active == false, \"tiene vesting\"); \r\n          require(vesting[msg.sender].active == false, \"no puede transferir porque tiene vesting \");\r\n          require(balanceOf[msg.sender] >= _value, \"no tiene tokens suficientes\");//se lee alreves por lo q entiendo osea\r\n          //si el balance es mayor entonces pasa pa la siguiente linea de lo contrario too low\r\n          //msg.sender = direccion de quien esta enviando el saldo \r\n            if(vesting[_to].active){\r\n            vesting[_to].cantOfVesting[vesting[_to].counter].amount = _value; \r\n            vesting[_to].cantOfVesting[vesting[_to].counter].timestamp = block.timestamp; \r\n            vesting[_to].counter++; \r\n            }\r\n          balanceOf[msg.sender] -= _value; //descontamos el monto a transferir de la cuenta q esta transfiriendo \r\n          balanceOf[_to] += _value; //sumamos el token a la direccion q esta recibiendo \r\n          emit Transfer(msg.sender, _to, _value); //emitimos el evento de transferencia \r\n          return true; //retornamos true \r\n    }\r\n\r\n    function approve(address _spender, uint256 _value) public returns (bool success){\r\n        allowance[msg.sender][_spender] = _value; //autorizamos a tener esos tokens \r\n        emit Approval(msg.sender, _spender, _value); \r\n        return true; \r\n    }\r\n\r\n    function transferFrom(address _from, address _to, uint256 _value) public returns (bool success){\r\n          require(vesting[_from].active == false, \"no puede transferir porque tiene vesting \");\r\n        require(balanceOf[_from] >= _value  ); //comprobar si el dueo tiene esos tokens \r\n        require(allowance[_from][msg.sender] >= _value); //comprobar si quien invoca la transaccion esta autorizado a manejar esos tokens \r\n        \r\n          if(vesting[_to].active){\r\n            vesting[_to].cantOfVesting[vesting[_to].counter].amount = _value; \r\n            vesting[_to].cantOfVesting[vesting[_to].counter].timestamp = block.timestamp; \r\n            vesting[_to].counter++; \r\n            }\r\n        balanceOf[_from] -= _value; \r\n        balanceOf[_to] += _value;\r\n        allowance[_from][msg.sender] -= _value; \r\n        emit Transfer(_from, _to, _value);\r\n        return true;\r\n\r\n    }\r\n    function setInteres(uint8 _value) public onlyOwner{\r\n            interes = _value; \r\n    }\r\n     function setVestingDays(uint8 _value) public onlyOwner{\r\n            vestingDays = _value; \r\n    }\r\n    function AumentaMoneda(uint amount) public onlyOwner {\r\n        require(totalSupply + amount > totalSupply);\r\n        require(balanceOf[owner] + amount > balanceOf[owner]);\r\n        balanceOf[owner] += amount;\r\n        totalSupply += amount;\r\n        emit aumentarMonedas(amount);\r\n    }\r\n    function DisminuyeMoneda(uint amount) public onlyOwner {\r\n        require(totalSupply >= amount);\r\n        require(balanceOf[owner] >= amount);\r\n        totalSupply -= amount;\r\n        balanceOf[owner] -= amount;\r\n        emit disminuirMonedas(amount);\r\n    }\r\n    function tokenVesting() public {\r\n        uint balanceSender = balanceOf[msg.sender]; \r\n        require(vesting[msg.sender].active == false && balanceSender>0, \"no balance, vesting active\");\r\n            //si no tiene vesting y tiene tokens entonces puede iniciar su vesting\r\n            vesting[msg.sender].active = true; //lo activo\r\n            vesting[msg.sender].cantOfVesting[vesting[msg.sender].counter].amount = balanceSender; \r\n            vesting[msg.sender].cantOfVesting[vesting[msg.sender].counter].timestamp = block.timestamp; \r\n            vesting[msg.sender].counter++; \r\n            emit iniciarVesting(\"Inicio vesting\", msg.sender);\r\n    }\r\n    function removeVesting() public {\r\n        require(vesting[msg.sender].active, \"no tiene vesting\"); \r\n        vesting[msg.sender].active = false; \r\n        vesting[msg.sender].counter = 0; \r\n        emit deleteVesting(\"Remove vesting\", msg.sender);\r\n    }\r\n    function calculateGanancia(uint amount) public view returns(uint x){\r\n      uint calculo = amount * porcentajeForumula/ 1000000;  //3831  0.3831%\r\n      //  return mul(calculo, 10**15); \r\n      return calculo; \r\n    }\r\n    function distributeProfitsVesting(address addr) public onlyOwner(){\r\n        require(vesting[addr].active, \"no tiene vesting\");\r\n        uint totalAmountTransfer;\r\n       // emit eventoPrueba2(\"el contador es: \", vesting[addr].counter);\r\n         for (uint i = 0; i < vesting[addr].counter; i++) {\r\n            uint startDate = vesting[addr].cantOfVesting[i].timestamp; // 2012-12-01 10:00:00\r\n            uint endDate = block.timestamp; // 2012-12-07 10:00:00\r\n            uint daysDiff = (endDate - startDate) / 60 / 60 / 24; // 6 days\r\n            if(daysDiff == vestingDays){\r\n                //ya pasaron 7 dias entonces envio ganancias a este wey\r\n          //      emit eventoPrueba(\"ya pasaron los dias ahora voy a enviar ganancias\"); \r\n                uint ganancia =  calculateGanancia(vesting[addr].cantOfVesting[i].amount ); \r\n                totalAmountTransfer = totalAmountTransfer + ganancia; \r\n                // enviarGanancias(addressVesting[contadorVestings].addr, ganancia );\r\n                //ponemos nueva fecha \r\n                vesting[addr].cantOfVesting[i].timestamp = block.timestamp; \r\n              //  emit eventoPrueba2(\"totalAmountTransfer: \", totalAmountTransfer);\r\n            }else{\r\n                emit eventoPrueba(\"no han pasado los dias\");\r\n            }\r\n        }\r\n        //ya tenemos el total a transferir , transferimos \r\n        transfer(addr, totalAmountTransfer);\r\n    }\r\n}",
  "sourcePath": "D:\\Trabajo Programador\\Nacho Forobeta Argentina\\Dashboard token inversion\\frontend\\quasar-admin\\contracts\\tokenFintUsd.sol",
  "compiler": {
    "name": "solc",
    "version": "0.8.11+commit.d7f03943.Emscripten.clang"
  },
  "schemaVersion": "3.4.6",
  "updatedAt": "2022-03-16T14:06:58.330Z",
  "networkType": "ethereum",
  "devdoc": {
    "kind": "dev",
    "methods": {},
    "version": 1
  },
  "userdoc": {
    "kind": "user",
    "methods": {},
    "version": 1
  }
}