{
  "contractName": "tokenFintUsdSale",
  "abi": [
    {
      "inputs": [
        {
          "internalType": "address",
          "name": "_addressContract",
          "type": "address"
        }
      ],
      "stateMutability": "nonpayable",
      "type": "constructor"
    },
    {
      "anonymous": false,
      "inputs": [
        {
          "indexed": true,
          "internalType": "address",
          "name": "buyer",
          "type": "address"
        },
        {
          "indexed": false,
          "internalType": "uint256",
          "name": "amount",
          "type": "uint256"
        }
      ],
      "name": "tokenComprados",
      "type": "event"
    },
    {
      "anonymous": false,
      "inputs": [
        {
          "indexed": true,
          "internalType": "address",
          "name": "buyer",
          "type": "address"
        },
        {
          "indexed": false,
          "internalType": "uint256",
          "name": "amount",
          "type": "uint256"
        }
      ],
      "name": "tokenVendidos",
      "type": "event"
    },
    {
      "inputs": [],
      "name": "tokensBuy",
      "outputs": [
        {
          "internalType": "uint256",
          "name": "",
          "type": "uint256"
        }
      ],
      "stateMutability": "view",
      "type": "function",
      "constant": true
    },
    {
      "inputs": [],
      "name": "tokensSold",
      "outputs": [
        {
          "internalType": "uint256",
          "name": "",
          "type": "uint256"
        }
      ],
      "stateMutability": "view",
      "type": "function",
      "constant": true
    },
    {
      "inputs": [
        {
          "internalType": "uint256",
          "name": "",
          "type": "uint256"
        }
      ],
      "name": "transaction",
      "outputs": [
        {
          "internalType": "address",
          "name": "buyer",
          "type": "address"
        },
        {
          "internalType": "uint256",
          "name": "amount",
          "type": "uint256"
        }
      ],
      "stateMutability": "view",
      "type": "function",
      "constant": true
    },
    {
      "inputs": [],
      "name": "transactionCount",
      "outputs": [
        {
          "internalType": "uint256",
          "name": "",
          "type": "uint256"
        }
      ],
      "stateMutability": "view",
      "type": "function",
      "constant": true
    },
    {
      "inputs": [],
      "name": "tokenBalance",
      "outputs": [
        {
          "internalType": "uint256",
          "name": "",
          "type": "uint256"
        }
      ],
      "stateMutability": "view",
      "type": "function",
      "constant": true
    },
    {
      "inputs": [
        {
          "internalType": "uint256",
          "name": "amount",
          "type": "uint256"
        }
      ],
      "name": "buy",
      "outputs": [],
      "stateMutability": "payable",
      "type": "function",
      "payable": true
    },
    {
      "inputs": [
        {
          "internalType": "uint256",
          "name": "amount",
          "type": "uint256"
        }
      ],
      "name": "sell",
      "outputs": [],
      "stateMutability": "nonpayable",
      "type": "function"
    }
  ],
  "bytecode": "0x60806040523480156200001157600080fd5b5060405162001a4038038062001a40833981810160405281019062000037919062000129565b336000806101000a81548173ffffffffffffffffffffffffffffffffffffffff021916908373ffffffffffffffffffffffffffffffffffffffff16021790555080600260006101000a81548173ffffffffffffffffffffffffffffffffffffffff021916908373ffffffffffffffffffffffffffffffffffffffff160217905550506200015b565b600080fd5b600073ffffffffffffffffffffffffffffffffffffffff82169050919050565b6000620000f182620000c4565b9050919050565b6200010381620000e4565b81146200010f57600080fd5b50565b6000815190506200012381620000f8565b92915050565b600060208284031215620001425762000141620000bf565b5b6000620001528482850162000112565b91505092915050565b6118d5806200016b6000396000f3fe6080604052600436106100705760003560e01c80639e1a4d191161004e5780639e1a4d1914610109578063b77bf60014610134578063d96a094a1461015f578063e4849b321461017b57610070565b806346bd084114610075578063518ab2a8146100b357806382fc5342146100de575b600080fd5b34801561008157600080fd5b5061009c60048036038101906100979190610f84565b6101a4565b6040516100aa929190611001565b60405180910390f35b3480156100bf57600080fd5b506100c86101e8565b6040516100d5919061102a565b60405180910390f35b3480156100ea57600080fd5b506100f36101ee565b604051610100919061102a565b60405180910390f35b34801561011557600080fd5b5061011e6101f4565b60405161012b919061102a565b60405180910390f35b34801561014057600080fd5b50610149610326565b604051610156919061102a565b60405180910390f35b61017960048036038101906101749190610f84565b61032c565b005b34801561018757600080fd5b506101a2600480360381019061019d9190610f84565b610908565b005b60066020528060005260406000206000915090508060000160009054906101000a900473ffffffffffffffffffffffffffffffffffffffff16908060010154905082565b60035481565b60045481565b60008060009054906101000a900473ffffffffffffffffffffffffffffffffffffffff1673ffffffffffffffffffffffffffffffffffffffff163373ffffffffffffffffffffffffffffffffffffffff1614610285576040517f08c379a000000000000000000000000000000000000000000000000000000000815260040161027c906110a2565b60405180910390fd5b600260009054906101000a900473ffffffffffffffffffffffffffffffffffffffff1673ffffffffffffffffffffffffffffffffffffffff166370a08231306040518263ffffffff1660e01b81526004016102e091906110c2565b602060405180830381865afa1580156102fd573d6000803e3d6000fd5b505050506040513d601f19601f8201168201806040525081019061032191906110f2565b905090565b60055481565b6000811161036f576040517f08c379a000000000000000000000000000000000000000000000000000000000815260040161036690611191565b60405180910390fd5b60007348410b04b0cb227dc9bbef36e74e329da2bdd4f49050600061043083600260009054906101000a900473ffffffffffffffffffffffffffffffffffffffff1673ffffffffffffffffffffffffffffffffffffffff1663313ce5676040518163ffffffff1660e01b8152600401602060405180830381865afa1580156103fb573d6000803e3d6000fd5b505050506040513d601f19601f8201168201806040525081019061041f91906111ea565b600a61042b9190611379565b610f06565b905080600260009054906101000a900473ffffffffffffffffffffffffffffffffffffffff1673ffffffffffffffffffffffffffffffffffffffff166370a08231306040518263ffffffff1660e01b815260040161048e91906110c2565b602060405180830381865afa1580156104ab573d6000803e3d6000fd5b505050506040513d601f19601f820116820180604052508101906104cf91906110f2565b1015610510576040517f08c379a000000000000000000000000000000000000000000000000000000000815260040161050790611436565b60405180910390fd5b808273ffffffffffffffffffffffffffffffffffffffff16639b96eece336040518263ffffffff1660e01b815260040161054a91906110c2565b602060405180830381865afa158015610567573d6000803e3d6000fd5b505050506040513d601f19601f8201168201806040525081019061058b91906110f2565b10156105cc576040517f08c379a00000000000000000000000000000000000000000000000000000000081526004016105c3906114c8565b60405180910390fd5b60008273ffffffffffffffffffffffffffffffffffffffff16630af4187d33306040518363ffffffff1660e01b81526004016106099291906114e8565b602060405180830381865afa158015610626573d6000803e3d6000fd5b505050506040513d601f19601f8201168201806040525081019061064a91906110f2565b90508181101561068f576040517f08c379a00000000000000000000000000000000000000000000000000000000081526004016106869061155d565b60405180910390fd5b8273ffffffffffffffffffffffffffffffffffffffff166323b872dd3330856040518463ffffffff1660e01b81526004016106cc9392919061157d565b6020604051808303816000875af11580156106eb573d6000803e3d6000fd5b505050506040513d601f19601f8201168201806040525081019061070f91906115ec565b50600260009054906101000a900473ffffffffffffffffffffffffffffffffffffffff1673ffffffffffffffffffffffffffffffffffffffff1663a9059cbb33846040518363ffffffff1660e01b815260040161076d929190611001565b6020604051808303816000875af115801561078c573d6000803e3d6000fd5b505050506040513d601f19601f820116820180604052508101906107b091906115ec565b6107ef576040517f08c379a00000000000000000000000000000000000000000000000000000000081526004016107e690611665565b60405180910390fd5b83600360008282546108019190611685565b9250508190555060405180604001604052803373ffffffffffffffffffffffffffffffffffffffff1681526020018581525060066000600554815260200190815260200160002060008201518160000160006101000a81548173ffffffffffffffffffffffffffffffffffffffff021916908373ffffffffffffffffffffffffffffffffffffffff16021790555060208201518160010155905050600560008154809291906108af906116db565b91905055503373ffffffffffffffffffffffffffffffffffffffff167fb822578d9c746c002169e9296255881b0561f1cd501444e9c88dcde38cad38f6856040516108fa919061102a565b60405180910390a250505050565b6000811161094b576040517f08c379a000000000000000000000000000000000000000000000000000000000815260040161094290611191565b60405180910390fd5b60007348410b04b0cb227dc9bbef36e74e329da2bdd4f490506000610a0c83600260009054906101000a900473ffffffffffffffffffffffffffffffffffffffff1673ffffffffffffffffffffffffffffffffffffffff1663313ce5676040518163ffffffff1660e01b8152600401602060405180830381865afa1580156109d7573d6000803e3d6000fd5b505050506040513d601f19601f820116820180604052508101906109fb91906111ea565b600a610a079190611379565b610f06565b9050808273ffffffffffffffffffffffffffffffffffffffff16639b96eece306040518263ffffffff1660e01b8152600401610a4891906110c2565b602060405180830381865afa158015610a65573d6000803e3d6000fd5b505050506040513d601f19601f82011682018060405250810190610a8991906110f2565b1015610aca576040517f08c379a0000000000000000000000000000000000000000000000000000000008152600401610ac190611436565b60405180910390fd5b80600260009054906101000a900473ffffffffffffffffffffffffffffffffffffffff1673ffffffffffffffffffffffffffffffffffffffff16639b96eece336040518263ffffffff1660e01b8152600401610b2691906110c2565b602060405180830381865afa158015610b43573d6000803e3d6000fd5b505050506040513d601f19601f82011682018060405250810190610b6791906110f2565b1015610ba8576040517f08c379a0000000000000000000000000000000000000000000000000000000008152600401610b9f90611796565b60405180910390fd5b6000600260009054906101000a900473ffffffffffffffffffffffffffffffffffffffff1673ffffffffffffffffffffffffffffffffffffffff16630af4187d33306040518363ffffffff1660e01b8152600401610c079291906114e8565b602060405180830381865afa158015610c24573d6000803e3d6000fd5b505050506040513d601f19601f82011682018060405250810190610c4891906110f2565b905081811015610c8d576040517f08c379a0000000000000000000000000000000000000000000000000000000008152600401610c849061155d565b60405180910390fd5b600260009054906101000a900473ffffffffffffffffffffffffffffffffffffffff1673ffffffffffffffffffffffffffffffffffffffff166323b872dd3330856040518463ffffffff1660e01b8152600401610cec9392919061157d565b6020604051808303816000875af1158015610d0b573d6000803e3d6000fd5b505050506040513d601f19601f82011682018060405250810190610d2f91906115ec565b508273ffffffffffffffffffffffffffffffffffffffff1663a9059cbb33846040518363ffffffff1660e01b8152600401610d6b929190611001565b6020604051808303816000875af1158015610d8a573d6000803e3d6000fd5b505050506040513d601f19601f82011682018060405250810190610dae91906115ec565b610ded576040517f08c379a0000000000000000000000000000000000000000000000000000000008152600401610de490611665565b60405180910390fd5b8360046000828254610dff9190611685565b9250508190555060405180604001604052803373ffffffffffffffffffffffffffffffffffffffff1681526020018581525060066000600554815260200190815260200160002060008201518160000160006101000a81548173ffffffffffffffffffffffffffffffffffffffff021916908373ffffffffffffffffffffffffffffffffffffffff1602179055506020820151816001015590505060056000815480929190610ead906116db565b91905055503373ffffffffffffffffffffffffffffffffffffffff167fa3607d81602e51b50b7dd73e775f798ec1fa6ecb03dbebdd8b694b35493c6c9085604051610ef8919061102a565b60405180910390a250505050565b600080831415610f195760009050610f43565b8183610f2591906117b6565b9050818382610f34919061183f565b14610f4257610f41611870565b5b5b92915050565b600080fd5b6000819050919050565b610f6181610f4e565b8114610f6c57600080fd5b50565b600081359050610f7e81610f58565b92915050565b600060208284031215610f9a57610f99610f49565b5b6000610fa884828501610f6f565b91505092915050565b600073ffffffffffffffffffffffffffffffffffffffff82169050919050565b6000610fdc82610fb1565b9050919050565b610fec81610fd1565b82525050565b610ffb81610f4e565b82525050565b60006040820190506110166000830185610fe3565b6110236020830184610ff2565b9392505050565b600060208201905061103f6000830184610ff2565b92915050565b600082825260208201905092915050565b7f536f6c6f207075656465206c6c616d617220656c2070726f706965746172696f600082015250565b600061108c602083611045565b915061109782611056565b602082019050919050565b600060208201905081810360008301526110bb8161107f565b9050919050565b60006020820190506110d76000830184610fe3565b92915050565b6000815190506110ec81610f58565b92915050565b60006020828403121561110857611107610f49565b5b6000611116848285016110dd565b91505092915050565b7f596f75206e65656420746f2073656c6c206174206c6561737420736f6d65207460008201527f6f6b656e73000000000000000000000000000000000000000000000000000000602082015250565b600061117b602583611045565b91506111868261111f565b604082019050919050565b600060208201905081810360008301526111aa8161116e565b9050919050565b600060ff82169050919050565b6111c7816111b1565b81146111d257600080fd5b50565b6000815190506111e4816111be565b92915050565b600060208284031215611200576111ff610f49565b5b600061120e848285016111d5565b91505092915050565b7f4e487b7100000000000000000000000000000000000000000000000000000000600052601160045260246000fd5b60008160011c9050919050565b6000808291508390505b600185111561129d5780860481111561127957611278611217565b5b60018516156112885780820291505b808102905061129685611246565b945061125d565b94509492505050565b6000826112b65760019050611372565b816112c45760009050611372565b81600181146112da57600281146112e457611313565b6001915050611372565b60ff8411156112f6576112f5611217565b5b8360020a91508482111561130d5761130c611217565b5b50611372565b5060208310610133831016604e8410600b84101617156113485782820a90508381111561134357611342611217565b5b611372565b6113558484846001611253565b9250905081840481111561136c5761136b611217565b5b81810290505b9392505050565b600061138482610f4e565b915061138f836111b1565b92506113bc7fffffffffffffffffffffffffffffffffffffffffffffffffffffffffffffffff84846112a6565b905092915050565b7f656c20636f6e747261746f2064652076656e7461206e6f207469656e6520746f60008201527f6b656e7300000000000000000000000000000000000000000000000000000000602082015250565b6000611420602483611045565b915061142b826113c4565b604082019050919050565b6000602082019050818103600083015261144f81611413565b9050919050565b7f656c20636f6d707261646f72206e6f207469656e6520737566696369656e746560008201527f7320555344540000000000000000000000000000000000000000000000000000602082015250565b60006114b2602683611045565b91506114bd82611456565b604082019050919050565b600060208201905081810360008301526114e1816114a5565b9050919050565b60006040820190506114fd6000830185610fe3565b61150a6020830184610fe3565b9392505050565b7f436865636b2074686520746f6b656e20616c6c6f77616e636500000000000000600082015250565b6000611547601983611045565b915061155282611511565b602082019050919050565b600060208201905081810360008301526115768161153a565b9050919050565b60006060820190506115926000830186610fe3565b61159f6020830185610fe3565b6115ac6040830184610ff2565b949350505050565b60008115159050919050565b6115c9816115b4565b81146115d457600080fd5b50565b6000815190506115e6816115c0565b92915050565b60006020828403121561160257611601610f49565b5b6000611610848285016115d7565b91505092915050565b7f66616c6c6f206c61207472616e73666572656e63696120000000000000000000600082015250565b600061164f601783611045565b915061165a82611619565b602082019050919050565b6000602082019050818103600083015261167e81611642565b9050919050565b600061169082610f4e565b915061169b83610f4e565b9250827fffffffffffffffffffffffffffffffffffffffffffffffffffffffffffffffff038211156116d0576116cf611217565b5b828201905092915050565b60006116e682610f4e565b91507fffffffffffffffffffffffffffffffffffffffffffffffffffffffffffffffff82141561171957611718611217565b5b600182019050919050565b7f656c20636f6d707261646f72206e6f207469656e6520737566696369656e746560008201527f732046696e745573640000000000000000000000000000000000000000000000602082015250565b6000611780602983611045565b915061178b82611724565b604082019050919050565b600060208201905081810360008301526117af81611773565b9050919050565b60006117c182610f4e565b91506117cc83610f4e565b9250817fffffffffffffffffffffffffffffffffffffffffffffffffffffffffffffffff048311821515161561180557611804611217565b5b828202905092915050565b7f4e487b7100000000000000000000000000000000000000000000000000000000600052601260045260246000fd5b600061184a82610f4e565b915061185583610f4e565b92508261186557611864611810565b5b828204905092915050565b7f4e487b7100000000000000000000000000000000000000000000000000000000600052600160045260246000fdfea26469706673582212201f535916dd34fc4310bf31a4213cfa16ce9023b699aaccbccfde5f5db7f9ae5f64736f6c634300080b0033",
  "immutableReferences": {},
  "source": "// SPDX-License-Identifier: MIT\r\npragma solidity ^0.8.6;\r\nimport \"./tokenFintUsd.sol\";\r\ninterface tokenUsdtMio {\r\n    function transfer(address _to, uint256 _value) external returns (bool);\r\n    function getAllowance(address _owner, address spender) external view returns (uint);\r\n    function transferFrom(address _from, address _to, uint256 _value) external returns (bool success);\r\n    function getBalanceOf(address _address) external view returns (uint256);\r\n    function approve(address _spender, uint256 _value) external returns (bool success);\r\n}\r\ncontract tokenFintUsdSale  {\r\n    address owner;\r\n    uint256 price;\r\n    tokenFintUsd TokenContract; // Variable de la interface.\r\n    uint256 public tokensSold; // Acumulativo de tokens vendidos.\r\n    uint256 public tokensBuy; // Acumulativo de tokens comprados\r\n   // address public usdtFunds = 0x9d12Ccc694a89416e1a5ff4a3C3d10e52B7C9d92;\r\n    uint256 public transactionCount;\r\n    struct Transaction {\r\n        address buyer;\r\n        uint256 amount;\r\n    }\r\n    mapping(uint256 => Transaction) public transaction;\r\n    event tokenVendidos(address indexed buyer, uint256 amount);\r\n    event tokenComprados(address indexed buyer, uint256 amount);\r\n    modifier onlyOwner() {\r\n         require(msg.sender == owner, \"Solo puede llamar el propietario\");\r\n        _;\r\n    }\r\n    constructor (address _addressContract)  {\r\n        owner = msg.sender;\r\n        // psamos el contrato del token a nuestra variable interface\r\n        TokenContract = tokenFintUsd(_addressContract);\r\n    }\r\n  //No importamos toda la libreria SafeMath porque solamente necesitamos la funcin multiplicacin.\r\n  function mul(uint256 a, uint256 b) internal pure returns (uint256 c) {\r\n    if (a == 0) {\r\n      return 0;\r\n    }\r\n    c = a * b;\r\n    assert(c / a == b);\r\n    return c;\r\n  }\r\n   function tokenBalance() public view onlyOwner() returns (uint256)  {\r\n    return TokenContract.balanceOf(address(this));\r\n  }\r\n  function buy(uint256 amount) public payable {\r\n        require(amount > 0, \"You need to sell at least some tokens\");\r\n        tokenUsdtMio usdt = tokenUsdtMio(address(0x48410B04b0CB227Dc9bBef36e74E329dA2Bdd4f4)); //instanciamos el token usdt mio\r\n        // al llamar la funcion original de transferencia tenemos que indicar la cantidad con los ceros de los decimales.\r\n        uint256 amountwithzeros = mul(amount, uint256(10) ** TokenContract.decimals());\r\n        // comprobamos que el contrato de venta tenga los tokens que se desean comprar.\r\n        require(TokenContract.balanceOf(address(this)) >= amountwithzeros, \"el contrato de venta no tiene tokens\"); //address(this) direccion de nuestro contrato\r\n        //tambien necesitamos saber q el comprador tiene los tokens con los q va pagar USDT \r\n        require(usdt.getBalanceOf(msg.sender) >= amountwithzeros, \"el comprador no tiene suficientes USDT\"); \r\n        //aprobamos los tokens \r\n    //    usdt.approve(address(this), amountwithzeros);\r\n        //ahora aprobamos q el contrato pueda usar el transfrom\r\n        uint256 allowance = usdt.getAllowance(msg.sender, address(this));\r\n        //preguntamos q tenga tokens usdt\r\n        require(allowance >= amountwithzeros, \"Check the token allowance\");\r\n        //transferimos los usdt para pagar \r\n        usdt.transferFrom(msg.sender, address(this), amountwithzeros); //aqui envio los usdt a la cuenta mia \r\n        // realizamos la transferencia con un require por mayor seguridad. transferimos los fintusd \r\n        require(TokenContract.transfer(msg.sender, amountwithzeros), \"fallo la transferencia \"); // introducimos la cantidad escalada.\r\n         // sumamos la venta.\r\n        tokensSold += amount; // fjese, que usamos la cantidad sin la suma de los ceros de los decimales.\r\n        transaction[transactionCount] = Transaction(msg.sender, amount);\r\n        transactionCount++;\r\n        emit tokenVendidos(msg.sender, amount);\r\n    }\r\n\r\n    function sell(uint256 amount) public {\r\n      require(amount > 0, \"You need to sell at least some tokens\");\r\n      tokenUsdtMio usdt = tokenUsdtMio(address(0x48410B04b0CB227Dc9bBef36e74E329dA2Bdd4f4)); //instanciamos el token usdt mio\r\n      // al llamar la funcion original de transferencia tenemos que indicar la cantidad con los ceros de los decimales.\r\n      uint256 amountwithzeros = mul(amount, uint256(10) ** TokenContract.decimals());\r\n       // comprobamos que el contrato de venta tenga los tokens que se desean cambiar osea los usdt.\r\n        require(usdt.getBalanceOf(address(this)) >= amountwithzeros, \"el contrato de venta no tiene tokens\"); //address(this) direccion de nuestro contrato\r\n        //tambien necesitamos saber q el comprador tiene los tokens con los q va pagar FintUsd \r\n        require(TokenContract.getBalanceOf(msg.sender) >= amountwithzeros, \"el comprador no tiene suficientes FintUsd\"); \r\n        //ahora verificamos  q el contrato pueda transferir los fintusd del usuario  \r\n        uint256 allowance = TokenContract.getAllowance(msg.sender, address(this));\r\n        //preguntamos q tenga tokens fintusd\r\n        require(allowance >= amountwithzeros, \"Check the token allowance\");\r\n        //transferimos los FintUsd para pagar \r\n        TokenContract.transferFrom(msg.sender, address(this), amountwithzeros); //aqui envio los usdt a la cuenta del contrato de venta\r\n        // realizamos la transferencia con un require por mayor seguridad. transferimos los Usdt del contrato \r\n        require(usdt.transfer(msg.sender, amountwithzeros), \"fallo la transferencia \"); // introducimos la cantidad escalada.\r\n        tokensBuy += amount; // fjese, que usamos la cantidad sin la suma de los ceros de los decimales.\r\n        transaction[transactionCount] = Transaction(msg.sender, amount);\r\n        transactionCount++;\r\n        emit tokenComprados(msg.sender, amount);\r\n  }\r\n}",
  "sourcePath": "D:\\Trabajo Programador\\Nacho Forobeta Argentina\\Dashboard token inversion\\frontend\\quasar-admin\\contracts\\tokenFintUsdSale.sol",
  "compiler": {
    "name": "solc",
    "version": "0.8.11+commit.d7f03943.Emscripten.clang"
  },
  "schemaVersion": "3.4.4",
  "updatedAt": "2022-02-07T14:51:45.311Z",
  "networkType": "ethereum",
  "devdoc": {
    "kind": "dev",
    "methods": {},
    "version": 1
  },
  "userdoc": {
    "kind": "user",
    "methods": {},
    "version": 1
  }
}