{
  "contractName": "tokenFintUsdSale",
  "abi": [
    {
      "inputs": [
        {
          "internalType": "address",
          "name": "_addressContract",
          "type": "address"
        }
      ],
      "stateMutability": "nonpayable",
      "type": "constructor"
    },
    {
      "anonymous": false,
      "inputs": [
        {
          "indexed": true,
          "internalType": "address",
          "name": "buyer",
          "type": "address"
        },
        {
          "indexed": false,
          "internalType": "uint256",
          "name": "amount",
          "type": "uint256"
        }
      ],
      "name": "tokenComprados",
      "type": "event"
    },
    {
      "anonymous": false,
      "inputs": [
        {
          "indexed": true,
          "internalType": "address",
          "name": "buyer",
          "type": "address"
        },
        {
          "indexed": false,
          "internalType": "uint256",
          "name": "amount",
          "type": "uint256"
        }
      ],
      "name": "tokenVendidos",
      "type": "event"
    },
    {
      "inputs": [],
      "name": "tokensBuy",
      "outputs": [
        {
          "internalType": "uint256",
          "name": "",
          "type": "uint256"
        }
      ],
      "stateMutability": "view",
      "type": "function",
      "constant": true
    },
    {
      "inputs": [],
      "name": "tokensSold",
      "outputs": [
        {
          "internalType": "uint256",
          "name": "",
          "type": "uint256"
        }
      ],
      "stateMutability": "view",
      "type": "function",
      "constant": true
    },
    {
      "inputs": [
        {
          "internalType": "uint256",
          "name": "",
          "type": "uint256"
        }
      ],
      "name": "transaction",
      "outputs": [
        {
          "internalType": "address",
          "name": "buyer",
          "type": "address"
        },
        {
          "internalType": "uint256",
          "name": "amount",
          "type": "uint256"
        }
      ],
      "stateMutability": "view",
      "type": "function",
      "constant": true
    },
    {
      "inputs": [],
      "name": "transactionCount",
      "outputs": [
        {
          "internalType": "uint256",
          "name": "",
          "type": "uint256"
        }
      ],
      "stateMutability": "view",
      "type": "function",
      "constant": true
    },
    {
      "inputs": [],
      "name": "tokenBalance",
      "outputs": [
        {
          "internalType": "uint256",
          "name": "",
          "type": "uint256"
        }
      ],
      "stateMutability": "view",
      "type": "function",
      "constant": true
    },
    {
      "inputs": [
        {
          "internalType": "uint256",
          "name": "amount",
          "type": "uint256"
        }
      ],
      "name": "buy",
      "outputs": [],
      "stateMutability": "payable",
      "type": "function",
      "payable": true
    },
    {
      "inputs": [
        {
          "internalType": "uint256",
          "name": "amount",
          "type": "uint256"
        }
      ],
      "name": "sell",
      "outputs": [],
      "stateMutability": "nonpayable",
      "type": "function"
    },
    {
      "inputs": [
        {
          "internalType": "address",
          "name": "_to",
          "type": "address"
        },
        {
          "internalType": "uint256",
          "name": "_value",
          "type": "uint256"
        }
      ],
      "name": "transferUsdtTo",
      "outputs": [
        {
          "internalType": "bool",
          "name": "success",
          "type": "bool"
        }
      ],
      "stateMutability": "nonpayable",
      "type": "function"
    },
    {
      "inputs": [],
      "name": "endSale",
      "outputs": [],
      "stateMutability": "nonpayable",
      "type": "function"
    }
  ],
  "bytecode": "0x60806040527396c373f02c3ab1ba96249f6f4faa5875b6fb38f1600660006101000a81548173ffffffffffffffffffffffffffffffffffffffff021916908373ffffffffffffffffffffffffffffffffffffffff1602179055503480156200006657600080fd5b50604051620021663803806200216683398181016040528101906200008c91906200017e565b336000806101000a81548173ffffffffffffffffffffffffffffffffffffffff021916908373ffffffffffffffffffffffffffffffffffffffff16021790555080600260006101000a81548173ffffffffffffffffffffffffffffffffffffffff021916908373ffffffffffffffffffffffffffffffffffffffff16021790555050620001b0565b600080fd5b600073ffffffffffffffffffffffffffffffffffffffff82169050919050565b6000620001468262000119565b9050919050565b620001588162000139565b81146200016457600080fd5b50565b60008151905062000178816200014d565b92915050565b60006020828403121562000197576200019662000114565b5b6000620001a78482850162000167565b91505092915050565b611fa680620001c06000396000f3fe6080604052600436106100865760003560e01c80639e1a4d19116100595780639e1a4d1914610136578063b77bf60014610161578063d96a094a1461018c578063dad428ad146101a8578063e4849b32146101e557610086565b8063380d831b1461008b57806346bd0841146100a2578063518ab2a8146100e057806382fc53421461010b575b600080fd5b34801561009757600080fd5b506100a061020e565b005b3480156100ae57600080fd5b506100c960048036038101906100c4919061149b565b6103d2565b6040516100d7929190611518565b60405180910390f35b3480156100ec57600080fd5b506100f5610416565b6040516101029190611541565b60405180910390f35b34801561011757600080fd5b5061012061041c565b60405161012d9190611541565b60405180910390f35b34801561014257600080fd5b5061014b610422565b6040516101589190611541565b60405180910390f35b34801561016d57600080fd5b50610176610554565b6040516101839190611541565b60405180910390f35b6101a660048036038101906101a1919061149b565b61055a565b005b3480156101b457600080fd5b506101cf60048036038101906101ca9190611588565b610b82565b6040516101dc91906115e3565b60405180910390f35b3480156101f157600080fd5b5061020c6004803603810190610207919061149b565b610df5565b005b60008054906101000a900473ffffffffffffffffffffffffffffffffffffffff1673ffffffffffffffffffffffffffffffffffffffff163373ffffffffffffffffffffffffffffffffffffffff161461026657600080fd5b6000600260009054906101000a900473ffffffffffffffffffffffffffffffffffffffff1673ffffffffffffffffffffffffffffffffffffffff166370a08231306040518263ffffffff1660e01b81526004016102c391906115fe565b602060405180830381865afa1580156102e0573d6000803e3d6000fd5b505050506040513d601f19601f82011682018060405250810190610304919061162e565b9050600260009054906101000a900473ffffffffffffffffffffffffffffffffffffffff1673ffffffffffffffffffffffffffffffffffffffff1663a9059cbb60008054906101000a900473ffffffffffffffffffffffffffffffffffffffff16836040518363ffffffff1660e01b8152600401610383929190611518565b6020604051808303816000875af11580156103a2573d6000803e3d6000fd5b505050506040513d601f19601f820116820180604052508101906103c69190611687565b6103cf57600080fd5b50565b60076020528060005260406000206000915090508060000160009054906101000a900473ffffffffffffffffffffffffffffffffffffffff16908060010154905082565b60035481565b60045481565b60008060009054906101000a900473ffffffffffffffffffffffffffffffffffffffff1673ffffffffffffffffffffffffffffffffffffffff163373ffffffffffffffffffffffffffffffffffffffff16146104b3576040517f08c379a00000000000000000000000000000000000000000000000000000000081526004016104aa90611711565b60405180910390fd5b600260009054906101000a900473ffffffffffffffffffffffffffffffffffffffff1673ffffffffffffffffffffffffffffffffffffffff166370a08231306040518263ffffffff1660e01b815260040161050e91906115fe565b602060405180830381865afa15801561052b573d6000803e3d6000fd5b505050506040513d601f19601f8201168201806040525081019061054f919061162e565b905090565b60055481565b6000811161059d576040517f08c379a0000000000000000000000000000000000000000000000000000000008152600401610594906117a3565b60405180910390fd5b600061064582600260009054906101000a900473ffffffffffffffffffffffffffffffffffffffff1673ffffffffffffffffffffffffffffffffffffffff1663313ce5676040518163ffffffff1660e01b8152600401602060405180830381865afa158015610610573d6000803e3d6000fd5b505050506040513d601f19601f8201168201806040525081019061063491906117fc565b600a610640919061198b565b61141d565b905080600260009054906101000a900473ffffffffffffffffffffffffffffffffffffffff1673ffffffffffffffffffffffffffffffffffffffff166370a08231306040518263ffffffff1660e01b81526004016106a391906115fe565b602060405180830381865afa1580156106c0573d6000803e3d6000fd5b505050506040513d601f19601f820116820180604052508101906106e4919061162e565b1015610725576040517f08c379a000000000000000000000000000000000000000000000000000000000815260040161071c90611a48565b60405180910390fd5b80600660009054906101000a900473ffffffffffffffffffffffffffffffffffffffff1673ffffffffffffffffffffffffffffffffffffffff16639b96eece336040518263ffffffff1660e01b815260040161078191906115fe565b602060405180830381865afa15801561079e573d6000803e3d6000fd5b505050506040513d601f19601f820116820180604052508101906107c2919061162e565b1015610803576040517f08c379a00000000000000000000000000000000000000000000000000000000081526004016107fa90611ada565b60405180910390fd5b6000600660009054906101000a900473ffffffffffffffffffffffffffffffffffffffff1673ffffffffffffffffffffffffffffffffffffffff16630af4187d33306040518363ffffffff1660e01b8152600401610862929190611afa565b602060405180830381865afa15801561087f573d6000803e3d6000fd5b505050506040513d601f19601f820116820180604052508101906108a3919061162e565b9050818110156108e8576040517f08c379a00000000000000000000000000000000000000000000000000000000081526004016108df90611b6f565b60405180910390fd5b600660009054906101000a900473ffffffffffffffffffffffffffffffffffffffff1673ffffffffffffffffffffffffffffffffffffffff166323b872dd3330856040518463ffffffff1660e01b815260040161094793929190611b8f565b6020604051808303816000875af1158015610966573d6000803e3d6000fd5b505050506040513d601f19601f8201168201806040525081019061098a9190611687565b50600260009054906101000a900473ffffffffffffffffffffffffffffffffffffffff1673ffffffffffffffffffffffffffffffffffffffff1663a9059cbb33846040518363ffffffff1660e01b81526004016109e8929190611518565b6020604051808303816000875af1158015610a07573d6000803e3d6000fd5b505050506040513d601f19601f82011682018060405250810190610a2b9190611687565b610a6a576040517f08c379a0000000000000000000000000000000000000000000000000000000008152600401610a6190611c12565b60405180910390fd5b8260036000828254610a7c9190611c32565b9250508190555060405180604001604052803373ffffffffffffffffffffffffffffffffffffffff1681526020018481525060076000600554815260200190815260200160002060008201518160000160006101000a81548173ffffffffffffffffffffffffffffffffffffffff021916908373ffffffffffffffffffffffffffffffffffffffff1602179055506020820151816001015590505060056000815480929190610b2a90611c88565b91905055503373ffffffffffffffffffffffffffffffffffffffff167fb822578d9c746c002169e9296255881b0561f1cd501444e9c88dcde38cad38f684604051610b759190611541565b60405180910390a2505050565b600080610c2b83600260009054906101000a900473ffffffffffffffffffffffffffffffffffffffff1673ffffffffffffffffffffffffffffffffffffffff1663313ce5676040518163ffffffff1660e01b8152600401602060405180830381865afa158015610bf6573d6000803e3d6000fd5b505050506040513d601f19601f82011682018060405250810190610c1a91906117fc565b600a610c26919061198b565b61141d565b905080600660009054906101000a900473ffffffffffffffffffffffffffffffffffffffff1673ffffffffffffffffffffffffffffffffffffffff16639b96eece306040518263ffffffff1660e01b8152600401610c8991906115fe565b602060405180830381865afa158015610ca6573d6000803e3d6000fd5b505050506040513d601f19601f82011682018060405250810190610cca919061162e565b1015610d0b576040517f08c379a0000000000000000000000000000000000000000000000000000000008152600401610d0290611a48565b60405180910390fd5b600660009054906101000a900473ffffffffffffffffffffffffffffffffffffffff1673ffffffffffffffffffffffffffffffffffffffff1663a9059cbb85836040518363ffffffff1660e01b8152600401610d68929190611518565b6020604051808303816000875af1158015610d87573d6000803e3d6000fd5b505050506040513d601f19601f82011682018060405250810190610dab9190611687565b610dea576040517f08c379a0000000000000000000000000000000000000000000000000000000008152600401610de190611c12565b60405180910390fd5b600191505092915050565b60008111610e38576040517f08c379a0000000000000000000000000000000000000000000000000000000008152600401610e2f906117a3565b60405180910390fd5b6000610ee082600260009054906101000a900473ffffffffffffffffffffffffffffffffffffffff1673ffffffffffffffffffffffffffffffffffffffff1663313ce5676040518163ffffffff1660e01b8152600401602060405180830381865afa158015610eab573d6000803e3d6000fd5b505050506040513d601f19601f82011682018060405250810190610ecf91906117fc565b600a610edb919061198b565b61141d565b905080600660009054906101000a900473ffffffffffffffffffffffffffffffffffffffff1673ffffffffffffffffffffffffffffffffffffffff16639b96eece306040518263ffffffff1660e01b8152600401610f3e91906115fe565b602060405180830381865afa158015610f5b573d6000803e3d6000fd5b505050506040513d601f19601f82011682018060405250810190610f7f919061162e565b1015610fc0576040517f08c379a0000000000000000000000000000000000000000000000000000000008152600401610fb790611a48565b60405180910390fd5b80600260009054906101000a900473ffffffffffffffffffffffffffffffffffffffff1673ffffffffffffffffffffffffffffffffffffffff16639b96eece336040518263ffffffff1660e01b815260040161101c91906115fe565b602060405180830381865afa158015611039573d6000803e3d6000fd5b505050506040513d601f19601f8201168201806040525081019061105d919061162e565b101561109e576040517f08c379a000000000000000000000000000000000000000000000000000000000815260040161109590611d43565b60405180910390fd5b6000600260009054906101000a900473ffffffffffffffffffffffffffffffffffffffff1673ffffffffffffffffffffffffffffffffffffffff16630af4187d33306040518363ffffffff1660e01b81526004016110fd929190611afa565b602060405180830381865afa15801561111a573d6000803e3d6000fd5b505050506040513d601f19601f8201168201806040525081019061113e919061162e565b905081811015611183576040517f08c379a000000000000000000000000000000000000000000000000000000000815260040161117a90611dd5565b60405180910390fd5b600260009054906101000a900473ffffffffffffffffffffffffffffffffffffffff1673ffffffffffffffffffffffffffffffffffffffff166323b872dd3330856040518463ffffffff1660e01b81526004016111e293929190611b8f565b6020604051808303816000875af1158015611201573d6000803e3d6000fd5b505050506040513d601f19601f820116820180604052508101906112259190611687565b50600660009054906101000a900473ffffffffffffffffffffffffffffffffffffffff1673ffffffffffffffffffffffffffffffffffffffff1663a9059cbb33846040518363ffffffff1660e01b8152600401611283929190611518565b6020604051808303816000875af11580156112a2573d6000803e3d6000fd5b505050506040513d601f19601f820116820180604052508101906112c69190611687565b611305576040517f08c379a00000000000000000000000000000000000000000000000000000000081526004016112fc90611e67565b60405180910390fd5b82600460008282546113179190611c32565b9250508190555060405180604001604052803373ffffffffffffffffffffffffffffffffffffffff1681526020018481525060076000600554815260200190815260200160002060008201518160000160006101000a81548173ffffffffffffffffffffffffffffffffffffffff021916908373ffffffffffffffffffffffffffffffffffffffff16021790555060208201518160010155905050600560008154809291906113c590611c88565b91905055503373ffffffffffffffffffffffffffffffffffffffff167fa3607d81602e51b50b7dd73e775f798ec1fa6ecb03dbebdd8b694b35493c6c90846040516114109190611541565b60405180910390a2505050565b600080831415611430576000905061145a565b818361143c9190611e87565b905081838261144b9190611f10565b1461145957611458611f41565b5b5b92915050565b600080fd5b6000819050919050565b61147881611465565b811461148357600080fd5b50565b6000813590506114958161146f565b92915050565b6000602082840312156114b1576114b0611460565b5b60006114bf84828501611486565b91505092915050565b600073ffffffffffffffffffffffffffffffffffffffff82169050919050565b60006114f3826114c8565b9050919050565b611503816114e8565b82525050565b61151281611465565b82525050565b600060408201905061152d60008301856114fa565b61153a6020830184611509565b9392505050565b60006020820190506115566000830184611509565b92915050565b611565816114e8565b811461157057600080fd5b50565b6000813590506115828161155c565b92915050565b6000806040838503121561159f5761159e611460565b5b60006115ad85828601611573565b92505060206115be85828601611486565b9150509250929050565b60008115159050919050565b6115dd816115c8565b82525050565b60006020820190506115f860008301846115d4565b92915050565b600060208201905061161360008301846114fa565b92915050565b6000815190506116288161146f565b92915050565b60006020828403121561164457611643611460565b5b600061165284828501611619565b91505092915050565b611664816115c8565b811461166f57600080fd5b50565b6000815190506116818161165b565b92915050565b60006020828403121561169d5761169c611460565b5b60006116ab84828501611672565b91505092915050565b600082825260208201905092915050565b7f536f6c6f207075656465206c6c616d617220656c2070726f706965746172696f600082015250565b60006116fb6020836116b4565b9150611706826116c5565b602082019050919050565b6000602082019050818103600083015261172a816116ee565b9050919050565b7f596f75206e65656420746f2073656c6c206174206c6561737420736f6d65207460008201527f6f6b656e73000000000000000000000000000000000000000000000000000000602082015250565b600061178d6025836116b4565b915061179882611731565b604082019050919050565b600060208201905081810360008301526117bc81611780565b9050919050565b600060ff82169050919050565b6117d9816117c3565b81146117e457600080fd5b50565b6000815190506117f6816117d0565b92915050565b60006020828403121561181257611811611460565b5b6000611820848285016117e7565b91505092915050565b7f4e487b7100000000000000000000000000000000000000000000000000000000600052601160045260246000fd5b60008160011c9050919050565b6000808291508390505b60018511156118af5780860481111561188b5761188a611829565b5b600185161561189a5780820291505b80810290506118a885611858565b945061186f565b94509492505050565b6000826118c85760019050611984565b816118d65760009050611984565b81600181146118ec57600281146118f657611925565b6001915050611984565b60ff84111561190857611907611829565b5b8360020a91508482111561191f5761191e611829565b5b50611984565b5060208310610133831016604e8410600b841016171561195a5782820a90508381111561195557611954611829565b5b611984565b6119678484846001611865565b9250905081840481111561197e5761197d611829565b5b81810290505b9392505050565b600061199682611465565b91506119a1836117c3565b92506119ce7fffffffffffffffffffffffffffffffffffffffffffffffffffffffffffffffff84846118b8565b905092915050565b7f656c20636f6e747261746f2064652076656e7461206e6f207469656e6520746f60008201527f6b656e7300000000000000000000000000000000000000000000000000000000602082015250565b6000611a326024836116b4565b9150611a3d826119d6565b604082019050919050565b60006020820190508181036000830152611a6181611a25565b9050919050565b7f656c20636f6d707261646f72206e6f207469656e6520737566696369656e746560008201527f7320555344540000000000000000000000000000000000000000000000000000602082015250565b6000611ac46026836116b4565b9150611acf82611a68565b604082019050919050565b60006020820190508181036000830152611af381611ab7565b9050919050565b6000604082019050611b0f60008301856114fa565b611b1c60208301846114fa565b9392505050565b7f436865636b2074686520746f6b656e20616c6c6f77616e636500000000000000600082015250565b6000611b596019836116b4565b9150611b6482611b23565b602082019050919050565b60006020820190508181036000830152611b8881611b4c565b9050919050565b6000606082019050611ba460008301866114fa565b611bb160208301856114fa565b611bbe6040830184611509565b949350505050565b7f66616c6c6f206c61207472616e73666572656e63696120000000000000000000600082015250565b6000611bfc6017836116b4565b9150611c0782611bc6565b602082019050919050565b60006020820190508181036000830152611c2b81611bef565b9050919050565b6000611c3d82611465565b9150611c4883611465565b9250827fffffffffffffffffffffffffffffffffffffffffffffffffffffffffffffffff03821115611c7d57611c7c611829565b5b828201905092915050565b6000611c9382611465565b91507fffffffffffffffffffffffffffffffffffffffffffffffffffffffffffffffff821415611cc657611cc5611829565b5b600182019050919050565b7f656c20636f6d707261646f72206e6f207469656e6520737566696369656e746560008201527f732046696e745573640000000000000000000000000000000000000000000000602082015250565b6000611d2d6029836116b4565b9150611d3882611cd1565b604082019050919050565b60006020820190508181036000830152611d5c81611d20565b9050919050565b7f436865636b2074686520746f6b656e20616c6c6f77616e63652066696e74757360008201527f6400000000000000000000000000000000000000000000000000000000000000602082015250565b6000611dbf6021836116b4565b9150611dca82611d63565b604082019050919050565b60006020820190508181036000830152611dee81611db2565b9050919050565b7f66616c6c6f206c61207472616e73666572656e6369612064652075736474206460008201527f656c20636f6e747261746f206861636961207469200000000000000000000000602082015250565b6000611e516035836116b4565b9150611e5c82611df5565b604082019050919050565b60006020820190508181036000830152611e8081611e44565b9050919050565b6000611e9282611465565b9150611e9d83611465565b9250817fffffffffffffffffffffffffffffffffffffffffffffffffffffffffffffffff0483118215151615611ed657611ed5611829565b5b828202905092915050565b7f4e487b7100000000000000000000000000000000000000000000000000000000600052601260045260246000fd5b6000611f1b82611465565b9150611f2683611465565b925082611f3657611f35611ee1565b5b828204905092915050565b7f4e487b7100000000000000000000000000000000000000000000000000000000600052600160045260246000fdfea264697066735822122059908ecf42fe5a7c257ce8ee3d8f2a741da02ecc59dd3d38cdbc85ee0bfd6e1564736f6c634300080b0033",
  "immutableReferences": {},
  "source": "// SPDX-License-Identifier: MIT\r\npragma solidity ^0.8.6;\r\nimport \"./tokenFintUsd.sol\";\r\ninterface tokenUsdtMio {\r\n    function transfer(address _to, uint256 _value) external returns (bool);\r\n    function getAllowance(address _owner, address spender) external view returns (uint);\r\n    function transferFrom(address _from, address _to, uint256 _value) external returns (bool success);\r\n    function getBalanceOf(address _address) external view returns (uint256);\r\n    function approve(address _spender, uint256 _value) external returns (bool success);\r\n}\r\ncontract tokenFintUsdSale  {\r\n    address owner;\r\n    uint256 price;\r\n    tokenFintUsd TokenContract; // Variable de la interface.\r\n    uint256 public tokensSold; // Acumulativo de tokens vendidos.\r\n    uint256 public tokensBuy; // Acumulativo de tokens comprados\r\n    uint256 public transactionCount;\r\n    tokenUsdtMio usdt = tokenUsdtMio(address(0x96c373F02C3Ab1BA96249F6f4fAA5875B6FB38f1)); //instanciamos el token usdt mio\r\n    struct Transaction {\r\n        address buyer;\r\n        uint256 amount;\r\n    }\r\n    mapping(uint256 => Transaction) public transaction;\r\n    event tokenVendidos(address indexed buyer, uint256 amount);\r\n    event tokenComprados(address indexed buyer, uint256 amount);\r\n    modifier onlyOwner() {\r\n         require(msg.sender == owner, \"Solo puede llamar el propietario\");\r\n        _;\r\n    }\r\n    constructor (address _addressContract)  {\r\n        owner = msg.sender;\r\n        // psamos el contrato del token a nuestra variable interface\r\n        TokenContract = tokenFintUsd(_addressContract);\r\n    }\r\n  //No importamos toda la libreria SafeMath porque solamente necesitamos la funcin multiplicacin.\r\n  function mul(uint256 a, uint256 b) internal pure returns (uint256 c) {\r\n    if (a == 0) {\r\n      return 0;\r\n    }\r\n    c = a * b;\r\n    assert(c / a == b);\r\n    return c;\r\n  }\r\n   function tokenBalance() public view onlyOwner() returns (uint256)  {\r\n    return TokenContract.balanceOf(address(this));\r\n  }\r\n  function buy(uint256 amount) public payable {\r\n        require(amount > 0, \"You need to sell at least some tokens\");\r\n        // al llamar la funcion original de transferencia tenemos que indicar la cantidad con los ceros de los decimales.\r\n        uint256 amountwithzeros = mul(amount, uint256(10) ** TokenContract.decimals());\r\n        // comprobamos que el contrato de venta tenga los tokens que se desean comprar.\r\n        require(TokenContract.balanceOf(address(this)) >= amountwithzeros, \"el contrato de venta no tiene tokens\"); //address(this) direccion de nuestro contrato\r\n        //tambien necesitamos saber q el comprador tiene los tokens con los q va pagar USDT \r\n        require(usdt.getBalanceOf(msg.sender) >= amountwithzeros, \"el comprador no tiene suficientes USDT\"); \r\n        //aprobamos los tokens \r\n    //    usdt.approve(address(this), amountwithzeros);\r\n        //ahora aprobamos q el contrato pueda usar el transfrom\r\n        uint256 allowance = usdt.getAllowance(msg.sender, address(this));\r\n        //preguntamos q tenga tokens usdt\r\n        require(allowance >= amountwithzeros, \"Check the token allowance\");\r\n        //transferimos los usdt para pagar \r\n        usdt.transferFrom(msg.sender, address(this), amountwithzeros); //aqui envio los usdt a la cuenta mia \r\n        // realizamos la transferencia con un require por mayor seguridad. transferimos los fintusd \r\n        require(TokenContract.transfer(msg.sender, amountwithzeros), \"fallo la transferencia \"); // introducimos la cantidad escalada.\r\n         // sumamos la venta.\r\n        tokensSold += amount; // fjese, que usamos la cantidad sin la suma de los ceros de los decimales.\r\n        transaction[transactionCount] = Transaction(msg.sender, amount);\r\n        transactionCount++;\r\n        emit tokenVendidos(msg.sender, amount);\r\n    }\r\n\r\n    function sell(uint256 amount) public {\r\n      require(amount > 0, \"You need to sell at least some tokens\");\r\n      \r\n      // al llamar la funcion original de transferencia tenemos que indicar la cantidad con los ceros de los decimales.\r\n      uint256 amountwithzeros = mul(amount, uint256(10) ** TokenContract.decimals());\r\n       // comprobamos que la direccion donde enviamos los tokens usdt tenga los tokens que se desean cambiar osea los usdt.\r\n        require(usdt.getBalanceOf(address(this)) >= amountwithzeros, \"el contrato de venta no tiene tokens\"); //address(this) direccion de nuestro contrato\r\n        //tambien necesitamos saber q el comprador tiene los tokens con los q va pagar FintUsd \r\n        require(TokenContract.getBalanceOf(msg.sender) >= amountwithzeros, \"el comprador no tiene suficientes FintUsd\"); \r\n        //ahora verificamos  q el contrato pueda transferir los fintusd del usuario  \r\n        uint256 allowance = TokenContract.getAllowance(msg.sender, address(this));\r\n        //preguntamos q tenga tokens fintusd\r\n        require(allowance >= amountwithzeros, \"Check the token allowance fintusd\");\r\n        //transferimos los FintUsd para pagar \r\n        TokenContract.transferFrom(msg.sender, address(this), amountwithzeros); //aqui envio los usdt a la cuenta del contrato de venta\r\n        // realizamos la transferencia con un require por mayor seguridad. transferimos los Usdt del contrato \r\n        require(usdt.transfer(msg.sender, amountwithzeros), \"fallo la transferencia de usdt del contrato hacia ti \"); // introducimos la cantidad escalada.\r\n        tokensBuy += amount; // fjese, que usamos la cantidad sin la suma de los ceros de los decimales.\r\n        transaction[transactionCount] = Transaction(msg.sender, amount);\r\n        transactionCount++;\r\n        emit tokenComprados(msg.sender, amount);\r\n  }\r\n\r\n  function transferUsdtTo(address _to, uint256 _value) public returns (bool success){\r\n        uint256 amountwithzeros = mul(_value, uint256(10) ** TokenContract.decimals());\r\n        require(usdt.getBalanceOf(address(this)) >= amountwithzeros, \"el contrato de venta no tiene tokens\"); //address(this) direccion de nuestro contrato\r\n        require(usdt.transfer(_to, amountwithzeros), \"fallo la transferencia \"); // introducimos la cantidad escalada.\r\n        return true; //retornamos true \r\n    }\r\n    function endSale() public {\r\n        require(msg.sender == owner);\r\n        // Return the tokens that were left inside of the sale contract\r\n        uint256 amount = TokenContract.balanceOf(address(this));\r\n        require(TokenContract.transfer(owner, amount));\r\n     //   selfdestruct(payable(owner));\r\n    }\r\n}",
  "sourcePath": "D:\\Trabajo Programador\\Nacho Forobeta Argentina\\Dashboard token inversion\\frontend\\quasar-admin\\contracts\\tokenFintUsdSale.sol",
  "compiler": {
    "name": "solc",
    "version": "0.8.11+commit.d7f03943.Emscripten.clang"
  },
  "schemaVersion": "3.4.4",
  "updatedAt": "2022-02-08T12:27:13.312Z",
  "networkType": "ethereum",
  "devdoc": {
    "kind": "dev",
    "methods": {},
    "version": 1
  },
  "userdoc": {
    "kind": "user",
    "methods": {},
    "version": 1
  }
}